S00F0000746578746C63642E737265631D
S11300000C9472000C9494000C9494000C9494003E
S11300100C9494000C9494000C9494000C9494000C
S11300200C9494000C9494000C9494000C949400FC
S11300300C9494000C9494000C9494000C949400EC
S11300400C9494000C9494000C9494000C949400DC
S11300500C9494000C9494000C9494000C949400CC
S11300600C9494000C9494000C9494000C949400BC
S11300700C9494000C9494000C9494000C949400AC
S11300800C9494000C9494000C9494000C9494009C
S11300900C9494000C9494000C9494000C9494008C
S11300A00C9494000C9494000C9494000C9494007C
S11300B00C9494000C9494000C9494000C9494006C
S11300C00C9494000C9494000C9494000C9494005C
S11300D00C9494000C9494000C9494000C9494004C
S11300E00C94940011241FBECFEFD1E2DEBFCDBF2C
S11300F000E00CBF12E0A0E0B2E0EEE6FAE000E0BF
S11301000BBF02C007900D92AE31B107D9F71BBEE9
S113011012E0AEE1B2E001C01D92AE31B107E1F7E9
S11301200E9401050C9435050C9400008823E9F421
S1130130442369F021B181E090E0AC0102C0440F96
S1130140551F6A95E2F7BA01622B61B9089521B18E
S113015081E090E0AC0102C0440F551F6A95E2F7BC
S1130160BA016095622361B908958130E9F44423AA
S113017069F024B181E090E0AC0102C0440F551F46
S11301806A95E2F7BA01622B64B9089524B181E05B
S113019090E0AC0102C0440F551F6A95E2F7BA0122
S11301A06095622364B908958230E9F4442369F0C8
S11301B027B181E090E0AC0102C0440F551F6A955D
S11301C0E2F7BA01622B67B9089527B181E090E0A4
S11301D0AC0102C0440F551F6A95E2F7BA0160955D
S11301E0622367B908958330E9F4442369F02AB19E
S11301F081E090E0AC0102C0440F551F6A95E2F71C
S1130200BA01622B6AB908952AB181E090E0AC0189
S113021002C0440F551F6A95E2F7BA016095622344
S11302206AB908958430E9F4442369F02DB181E07A
S113023090E0AC0102C0440F551F6A95E2F7BA0181
S1130240622B6DB908952DB181E090E0AC0102C03C
S1130250440F551F6A95E2F7BA01609562236DB9A0
S113026008958530E9F4442369F020B381E090E0F7
S1130270AC0102C0440F551F6A95E2F7BA01622B24
S113028060BB089520B381E090E0AC0102C0440F4C
S1130290551F6A95E2F7BA016095622360BB089521
S11302A08630E9F4442369F023B381E090E0AC01A3
S11302B002C0440F551F6A95E2F7BA01622B63BB73
S11302C0089523B381E090E0AC0102C0440F551FB0
S11302D06A95E2F7BA016095622363BB089587309B
S11302E009F5442379F0E1E0F1E0208181E090E038
S11302F0AC0102C0440F551F6A95E2F7BA01622BA4
S113030060830895E1E0F1E0208181E090E0AC01B8
S113031002C0440F551F6A95E2F7BA016095622343
S113032060830895893009F5442379F0E4E0F1E02D
S1130330208181E090E0AC0102C0440F551F6A9512
S1130340E2F7BA01622B60830895E4E0F1E02081D2
S113035081E090E0AC0102C0440F551F6A95E2F7BA
S1130360BA0160956223608308958A3009F54423B5
S113037079F0E7E0F1E0208181E090E0AC0102C097
S1130380440F551F6A95E2F7BA01622B6083089502
S1130390E7E0F1E0208181E090E0AC0102C0440F8D
S11303A0551F6A95E2F7BA01609562236083089548
S11303B08B3001F5442379F0EAE0F1E0208181E01B
S11303C090E0AC0102C0440F551F6A95E2F7BA01F0
S11303D0622B60830895EAE0F1E0208181E090E0FF
S11303E0AC0102C0440F551F6A95E2F7BA0160954B
S11303F06223608308958823E9F4442369F022B1D9
S113040081E090E0AC0102C0440F551F6A95E2F709
S1130410BA01622B62B9089522B181E090E0AC0187
S113042002C0440F551F6A95E2F7BA016095622332
S113043062B908958130E9F4442369F025B181E07B
S113044090E0AC0102C0440F551F6A95E2F7BA016F
S1130450622B65B9089525B181E090E0AC0102C03A
S1130460440F551F6A95E2F7BA016095622365B996
S113047008958230E9F4442369F028B181E090E0E2
S1130480AC0102C0440F551F6A95E2F7BA01622B12
S113049068B9089528B181E090E0AC0102C0440F2E
S11304A0551F6A95E2F7BA016095622368B9089509
S11304B08330E9F4442369F02BB181E090E0AC018E
S11304C002C0440F551F6A95E2F7BA01622B6BB95B
S11304D008952BB181E090E0AC0102C0440F551F98
S11304E06A95E2F7BA01609562236BB90895843086
S11304F0E9F4442369F02EB181E090E0AC0102C03C
S1130500440F551F6A95E2F7BA01622B6EB908953C
S11305102EB181E090E0AC0102C0440F551F6A95F2
S1130520E2F7BA01609562236EB908958530E9F463
S1130530442369F021B381E090E0AC0102C0440F90
S1130540551F6A95E2F7BA01622B61BB089521B386
S113055081E090E0AC0102C0440F551F6A95E2F7B8
S1130560BA016095622361BB08958630E9F444239F
S113057069F024B381E090E0AC0102C0440F551F40
S11305806A95E2F7BA01622B64BB089524B381E053
S113059090E0AC0102C0440F551F6A95E2F7BA011E
S11305A06095622364BB0895873009F5442379F08C
S11305B0E2E0F1E0208181E090E0AC0102C0440F70
S11305C0551F6A95E2F7BA01622B60830895E2E051
S11305D0F1E0208181E090E0AC0102C0440F551F9E
S11305E06A95E2F7BA0160956223608308958930C1
S11305F009F5442379F0E5E0F1E0208181E090E021
S1130600AC0102C0440F551F6A95E2F7BA01622B90
S113061060830895E5E0F1E0208181E090E0AC01A1
S113062002C0440F551F6A95E2F7BA016095622330
S1130630608308958A3009F5442379F0E8E0F1E015
S1130640208181E090E0AC0102C0440F551F6A95FF
S1130650E2F7BA01622B60830895E8E0F1E02081BB
S113066081E090E0AC0102C0440F551F6A95E2F7A7
S1130670BA0160956223608308958B3001F54423A9
S113068079F0EBE0F1E0208181E090E0AC0102C080
S1130690440F551F6A95E2F7BA01622B60830895EF
S11306A0EBE0F1E0208181E090E0AC0102C0440F76
S11306B0551F6A95E2F7BA01609562236083089535
S11306C0882359F420B130E0C90102C0959587957B
S11306D06A95E2F7982F91707BC0813059F423B169
S11306E030E0C90102C0959587956A95E2F7982F85
S11306F091706EC0823059F426B130E0C90102C055
S1130700959587956A95E2F7982F917061C083302B
S113071039F489B191E0681708F45AC090E058C0E0
S1130720843059F42CB130E0C90102C09595879505
S11307306A95E2F7982F91704BC0853051F48FB1D0
S113074090E002C0959587956A95E2F7982F91708D
S11307503FC0863051F482B390E002C095958795EE
S11307606A95E2F7982F917033C0873059F48091DD
S1130770000190E002C0959587956A95E2F7982F5D
S1130780917026C0893059F48091030190E002C031
S1130790959587956A95E2F7982F917019C08A30DC
S11307A059F48091060190E002C0959587956A9569
S11307B0E2F7982F91700CC08B3051F480910901AD
S11307C090E002C0959587956A95E2F7982F91700D
S11307D0892F90E008950F931F93CF93DF93082FF1
S11307E08AE060E040E00E94FB018AE061E040E0D2
S11307F00E94FB018AE062E040E00E94FB018AE083
S113080060E041E00E94FB01C0E0D0E010E0C801DC
S11308100C2E02C0959587950A94E2F780FF06C0D6
S113082082E06C2F41E00E94FB0105C082E06C2F46
S113083040E00E94FB012196C830D10541F78AE0CF
S113084062E041E00E94FB0185E991E00197F1F744
S113085000C08AE062E040E00E94FB0185E991E08B
S11308600197F1F700C0DF91CF911F910F91089587
S1130870CF93DF93EC018881882331F021960E9485
S1130880EB0389918823D9F7DF91CF9108950F93D2
S11308901F93CF93DF93082F8AE060E040E00E942B
S11308A0FB018AE061E040E00E94FB018AE062E033
S11308B040E00E94FB01C0E0D0E010E0C8010C2E33
S11308C002C0959587950A94E2F780FF06C082E0FE
S11308D06C2F41E00E94FB0105C082E06C2F40E0D8
S11308E00E94FB012196C830D10541F78AE062E0FD
S11308F041E00E94FB0185E991E00197F1F700C016
S11309008AE062E040E00E94FB0185E991E0019702
S1130910F1F700C0DF91CF911F910F910895EF92ED
S1130920FF920F931F93CF93DF93C82FF62E142FAC
S1130930D22FE02E00E08E2D602F41E00E94960021
S11309408E2D602F40E00E94FB010F5F083099F765
S11309508C2F6F2D41E00E9496008C2F6F2D40E06C
S11309600E94FB018C2F612F41E00E9496008C2F86
S1130970612F40E00E94FB018C2F6D2F41E00E940B
S113098096008C2F6D2F40E00E94FB0185E991E0D9
S11309900197F1F700C08C2F6D2F40E00E94FB01FE
S11309A085E991E00197F1F700C088E30E944704CC
S11309B08BE293E00197F1F78FE00E9447048BE20A
S11309C093E00197F1F782E00E94470489E991E8F6
S11309D00197F1F700C081E00E94470489E991E89A
S11309E00197F1F700C086E00E9447048BE293E090
S11309F00197F1F7DF91CF911F910F91FF90EF9045
S1130A0008958AE090E060E070E041E050E022E088
S1130A1030E002E010E00E948F0481E00E9447046D
S1130A2089E991E80197F1F700C080E80E94470442
S1130A30ABE2B3E01197F1F780E092E00E94380452
S1130A4080EC0E9447048BE293E00197F1F781E187
S1130A5092E00E9438048FEF9FE7A6E18150904016
S1110A60A040E1F700C00000FFCFF894FFCFE4
S1130A6E48656C6C6F204D435520576F726C642132
S1110A7E0057656C636F6D6520496F5400006E
S9030000FC
