S010000057696669546573742E73726563E5
S11300000C9472000C9494000C9494000C9494003E
S11300100C9494000C9494000C9494000C9494000C
S11300200C9494000C9494000C9494000C949400FC
S11300300C9494000C9494000C9494000C949400EC
S11300400C9494000C9494000C9494000C949400DC
S11300500C9494000C9494000C9494000C94B000B0
S11300600C9494000C94B1010C9494000C9494009E
S11300700C9494000C9494000C9494000C949400AC
S11300800C9494000C9494000C9494000C9494009C
S11300900C9494000C9494000C9494000C9494008C
S11300A00C9494000C9494000C9494000C9494007C
S11300B00C9494000C9494000C9494000C9494006C
S11300C00C9494000C9494000C9494000C942301CC
S11300D00C9494000C9494000C9494000C9494004C
S11300E00C94940011241FBECFEFD1E2DEBFCDBF2C
S11300F000E00CBF14E0A0E0B2E0E2E2FBE200E0CA
S11301000BBF02C007900D92AA34B107D9F71BBEEA
S11301101AE0AAE4B4E001C01D92A23BB107E1F7E2
S11301200E94EC0E0C948F150C940000806C80934C
S11301307C00EAE7F0E087EA808380818064808342
S11301400895EAE7F0E0808184FFFDCF8091780094
S113015090917900392F20E090E0822B932B089521
S11301601F920F920FB60F9211244F935F936F93C8
S11301707F938F939F93AF93BF93F89482ED86BD43
S11301808091590490915A04A0915B04B0915C044D
S11301900196A11DB11D8093590490935A04A09314
S11301A05B04B0935C044091590450915A046091EB
S11301B05B0470915C048091550490915604A09165
S11301C05704B0915804481759076A077B0758F039
S11301D081E0809354041092590410925A041092AE
S11301E05B0410925C04789480914C048F5F80933C
S11301F04C048A3041F410924C0481E090E09093D6
S11302004B0480934A04BF91AF919F918F917F914A
S11302106F915F914F910F900FBE0F901F901895A3
S113022085E085BD82ED86BDEEE6F0E080818160EB
S11302308083A89A0895E0EDF0E0908195FFFDCFCA
S11302408093D60008951F920F920FB60F920BB6AB
S11302500F9211248F939F93EF93FF9390914D04EA
S11302608091D600EFE5F4E0E90FF11D80838091E1
S11302704D048F5F80934D0480914D04803410F0C1
S113028010924D04FF91EF919F918F910F900BBEAF
S11302900F900FBE0F901F901895E1E0F1E0808160
S11302A08C7F8083E2E0F1E0808180831092D00033
S11302B088E98093D10086E08093D2001092D50023
S11302C087E08093D40008950F931F93CF93DF9317
S11302D0CDB7DEB7C058D0400FB6F894DEBF0FBE1E
S11302E0CDBFFE01E857FF4F61917191CE01019698
S11302F04E2F5F2F0E94BF128981882351F08E01F7
S11303000E5F1F4F0E941B01F80181918F0188230A
S1130310C9F7C058DF4F0FB6F894DEBF0FBECDBF8C
S1130320DF91CF911F910F91089580914D048823FF
S113033079F080914D04882349F080E090E00196A3
S113034020914D0430E082179307CCF310924D04B2
S11303500895E0ECF0E0908195FFFDCF8093C60016
S113036008951F920F920FB60F920BB60F9211249D
S11303708F939F93EF93FF93909153048091C600C2
S1130380EFE9F6E0E90FF11D8083809153048F5F5C
S11303908093530480915304FF91EF919F918F9127
S11303A00F900BBE0F900FBE0F901F90189556988C
S11303B05E9889E999E5A1E081509040A040E1F779
S11303C00000569A8FEF9FE3A2E081509040A04036
S11303D0E1F700C0000056985E9A8FEF9FEFA9E501
S11303E081509040A040E1F700C0000008958823A8
S11303F011F05F9A01C05F988FEF9FEFA8E08150E2
S11304009040A040E1F700C0000008958DB18C7FBA
S11304108DB98EB18EB91092C00088E98093C10065
S113042086E08093C2001092C50087E08093C400E8
S1130430579A5F9A0E94D7018FEF9FE7A4E08150FB
S11304409040A040E1F700C0000081E00E94F70165
S11304501092A00A10929F0A08950F931F93CF93AE
S1130460DF93CDB7DEB7C058D0400FB6F894DEBFE7
S11304700FBECDBFFE01E857FF4F61917191CE01D0
S113048001964E2F5F2F0E94BF128981882351F05D
S11304908E010E5F1F4F0E94A901F80181918F0107
S11304A08823C9F7C058DF4F0FB6F894DEBF0FBEDC
S11304B0CDBFDF91CF911F910F9108958F929F929D
S11304C0AF92BF92CF92DF92EF92FF920F931F935E
S11304D0CF93DF93CDB7DEB72A970FB6F894DEBF7C
S11304E00FBECDBF6C017B01161617060CF076C04B
S11304F0FC0180818A33C1F0319680E090E003C032
S113050021912A3331F001968E159F05C9F781E0B8
S11305106EC0FFEF8F3F9F0709F462C05C018C300F
S113052091050CF05FC002C0AA24BB2485010550CC
S11305301040B6016B5F7F4FCE010196402F512FC3
S11305400E947112E1E0F0E0EC0FFD1FE00FF11FDB
S11305501082CE0101960E945312AC01009709F457
S113056043C0EA18FB088701015010400817190717
S113057034F5C701019684179507C1F59093520489
S1130580809351040F2EFFE98F2EF4E09F2EF02D5F
S1130590B5016F5F7F4F6C0D7D1D882D992D402F08
S11305A0512F0E947112F401E00FF11F8DE080833E
S11305B0F401EE0DFF1D8AE0808380E018C0909363
S11305C05204809351048FE994E0B5016F5F7F4F2B
S11305D06C0D7D1D0E94711280E009C081E007C08E
S11305E081E005C082E003C082E001C081E02A9678
S11305F00FB6F894DEBF0FBECDBFDF91CF911F9130
S11306000F91FF90EF90DF90CF90BF90AF909F90AD
S11306108F9008950F931F93CF93DF93EC018B0179
S113062060E072E042E050E00E947A12282F392FF5
S11306302115310509F46AC088818E3309F468C034
S1130640073011056CF0CE0163E072E047E050E042
S11306500E947A12282F392F2115310509F45AC026
S113066004301105C4F0CE016BE072E044E050E0C8
S11306700E947A12282F392F2115310561F4CE01F9
S1130680B8010E945E02882309F446C0813009F053
S113069045C084E04EC00530110564F0CE0161E12F
S11306A072E045E050E00E947A12282F392F21157C
S11306B03105B1F10430110564F0CE0167E172E057
S11306C045E050E00E947A12282F392F2115310578
S11306D049F10730110544F1CE016CE172E047E0C5
S11306E050E00E947A12282F392F21153105F1F09C
S11306F0CE0164E272E047E050E00E947A12282FB3
S1130700392F21153105A1F489E013C082E011C00D
S113071088E00FC081E00DC083E00BC080E009C019
S113072085E007C086E005C08AE003C087E001C019
S113073080E0DF91CF911F910F9108952F923F9206
S11307404F925F926F927F928F929F92AF92BF92DD
S1130750CF92DF92EF92FF920F931F93CF93DF9389
S1130760CDB7DEB7C250D2400FB6F894DEBF0FBE8D
S1130770CDBF3C01C62E80915304882309F40BC1DC
S11307802091530480914E0490914F04820F911D47
S113079022E08030920744F010924F0410924E04ED
S11307A010925004DD24F8C0409153048FE998E07E
S11307B06FE976E050E00E94711220915304809119
S11307C04E0490914F04820F911D90934F04809397
S11307D04E0410925304DD24AA24BB2488248A9452
S11307E0982C0F2EFFE9EF2EF8E0FF2EF02DCF5FAF
S11307F0DD4FE882C150D240CE5FDD4FF882C25057
S1130800D2400F2EF1EA4F2EF8E05F2EF02D0F2E7E
S1130810FEEF2F2EFFEF3F2EF02D240C351C809180
S11308204E0490914F04181619060CF09BC08501D4
S1130830B4018FEF6F3F780709F483C0F701E00F2D
S1130840F11F80818A3009F083C0CB0101968017A3
S1130850910709F07DC08130910519F540914E044E
S113086050914F0442505040CE010196642D752D95
S11308700E94711240914E0450914F0442505040D6
S1130880822D932DBE016F5F7F4F0E947112809164
S11308904E0490914F04029790934F0480934E041A
S11308A0BECFCF5FDD4F8881C150D240CE5FDD4FD8
S11308B09881C250D2400E940A03DC1428F4F30148
S11308C0ED0DF11D8083D39420914E0430914F049B
S11308D0C80101968217930719F4109250045CC062
S11308E0B8016056774F40914E0450914F04401B1D
S11308F0510B41505040CE0101960E94711240911B
S11309004E0450914F04401B510B415050408E2DCA
S11309109F2DBE016F5F7F4F0E94711220914E0484
S113092030914F04C80180959095820F931F909346
S11309304F0480934E042FEF0F3F120709F06FCF3F
S113094011C0F701E00FF11F80818D3009F4B80167
S11309500F5F1F4F80914E0490914F0408171907A1
S11309600CF467CF81E08093500460914E04709141
S11309704F048FE998E00E940A038A3031F08430F2
S113098021F010924F0410924E04F301ED0DF11D6D
S11309908083D39401C0DD248D2DCE5FDD4F0FB64F
S11309A0F894DEBF0FBECDBFDF91CF911F910F91A1
S11309B0FF90EF90DF90CF90BF90AF909F908F907B
S11309C07F906F905F904F903F902F900895CF93BA
S11309D0DF9300D00F92CDB7DEB780915104909190
S11309E05204009799F0E0919F0AF091A00A309781
S11309F049F0409151045091520481E090E06FE934
S1130A0074E0199510925204109251048091530489
S1130A108823F1F0CE01019664E00E949E03809148
S1130A20510490915204009799F0E0919F0AF0913B
S1130A30A00A309749F0409151045091520481E04A
S1130A4090E06FE974E019951092520410925104E9
S1130A500F900F900F900F90DF91CF9108952F92E8
S1130A603F924F925F926F927F928F929F92AF923A
S1130A70BF92CF92DF92EF92FF920F931F93CF9387
S1130A80DF93CDB7DEB7C050D2400FB6F894DEBFC7
S1130A900FBECDBFEE24FF240F2EFFE9AF2EF6E0EC
S1130AA0BF2EF02D0F2EF1E12F2EF2E03F2EF02D70
S1130AB00F2EF0E06F2EF2E07F2EF02D0F2EFBE0D4
S1130AC04F2EF2E05F2EF02D809153048823E1F342
S1130AD080915304882309F4A9C0CC24DD248824FC
S1130AE0992485010C0D1D1DF8018081E1E0F0E0E1
S1130AF0EC0FFD1FEE0DFF1D80830894E11CF11C1B
S1130B00F80180810E941B01F80180818A3009F07C
S1130B1083C0F4E0EF16F1040CF479C0CE01019621
S1130B20B30142E050E00E947A12282F392F211598
S1130B30310529F41092530480E090E07AC0CE018C
S1130B400196B20144E050E00E947A12282F392F16
S1130B502115310529F4109253048FEF9FEF69C0DA
S1130B6087E0E816F1048CF0CE010196B10145E06E
S1130B7050E00E947A12282F392F2115310529F4CB
S1130B80109253048FEF9FEF54C0E6E0EE16F10489
S1130B9094F0CE01019667E172E045E050E00E94D6
S1130BA07A12282F392F2115310529F41092530474
S1130BB08FEF9FEF3EC0F7E0EF16F10494F0CE0103
S1130BC001966CE272E045E050E00E947A12282F10
S1130BD0392F2115310529F41092530480E090E057
S1130BE028C089E0E816F104A4F0CE01019663E080
S1130BF072E047E050E00E947A12282F392F211525
S1130C00310549F41092530480E090E012C074015D
S1130C1003C0740101C074010894C11CD11C8091EB
S1130C20530490E0C816D9060CF45BCF1092530419
S1130C304BCFC050DE4F0FB6F894DEBF0FBECDBF12
S1130C40DF91CF911F910F91FF90EF90DF90CF90A4
S1130C50BF90AF909F908F907F906F905F904F90D8
S1130C603F902F900895CF92DF92FF920F931F939E
S1130C70CF93DF9300D00F92CDB7DEB70F2EF5E6FA
S1130C80CF2EDD24F02D00E0FF2411E0CE010196EB
S1130C9064E00E949E038823A1F0FE0131969F0127
S1130CA0280F311DC9012191283029F0223029F063
S1130CB0253021F426C0012F01C0F12EE817F907D1
S1130CC091F7002311F0FF20F9F40894C108D1082A
S1130CD0C114D10479F40F920F9283E392E0EDB73B
S1130CE0FEB7928381830E9464010F900F908FEF6F
S1130CF09FEF0CC08FEF9FE80197F1F700C0000051
S1130D00C5CF8FEF9FEF02C080E090E00F900F906F
S1130D100F900F90DF91CF911F910F91FF90DF9073
S1130D20CF9008950F931F93CF93DF9300D00F922A
S1130D30CDB7DEB705E610E0CE01019664E00E946F
S1130D409E038823B9F09981913069F1953071F14E
S1130D50FE01329621E030E02C0F3D1F280F311D9B
S1130D60C90105C02191213021F1253029F1E8176D
S1130D70F907C1F70150104079F40F920F928BE5F7
S1130D8092E0EDB7FEB7928381830E9464010F90D5
S1130D900F908FEF9FEF12C08FEF9FE80197F1F74D
S1130DA000C00000C9CF80E090E008C08FEF9FEF43
S1130DB005C080E090E002C08FEF9FEF0F900F908E
S1130DC00F900F90DF91CF911F910F910895CF92C3
S1130DD0DF92EF92FF920F931F93CF93DF93CDB7E0
S1130DE0DEB7C050D1400FB6F894DEBF0FBECDBF02
S1130DF0DD2440E050E0BE016F5F7F4FEE24FF240E
S1130E000FE916E0CC24C394809153048823E1F3C2
S1130E10809153048823C1F3DB01A40FB51F97010C
S1130E20F801E20FF31F80818D9380818A3039F5B8
S1130E30DD2021F1CE01039660E072E042E050E053
S1130E400E947A12282F392F2115310529F4109286
S1130E50530480E090E022C0CE01039661E172E089
S1130E6045E050E00E947A12282F392F21153105D0
S1130E7099F4109253048FEF9FEF10C0DC2CAD0156
S1130E80461B570B2F5F3F4F8091530490E0281768
S1130E9039070CF0B9CFC4CF8FEF9FEFC050DF4FAD
S1130EA00FB6F894DEBF0FBECDBFDF91CF911F9177
S1130EB00F91FF90EF90DF90CF9008950F920F92D3
S1130EC08CE792E0ADB7BEB712969C938E931197C0
S1130ED00E942D028FEF9FEFA9E581509040A04022
S1130EE0E1F700C000000F900F900E942F050895B5
S1130EF000D000D0EDB7FEB7319627E832E0ADB7A9
S1130F00BEB712963C932E93119793838283758375
S1130F1064830E942D028DB79EB706960FB6F8948F
S1130F209EBF0FBE8DBF0E942F0508950F920F9292
S1130F3080EA92E0EDB7FEB7928381830E942D028E
S1130F400F900F900E942F0508950F920F928EEA32
S1130F5092E0EDB7FEB7928381830E942D020F9039
S1130F600F900E942F0508950F920F928FEB92E03D
S1130F70EDB7FEB7928381830E942D020F900F90EC
S1130F800E942F0508952DB73EB7285030400FB664
S1130F90F8943EBF0FBE2DBFEDB7FEB7319623EDDB
S1130FA032E0ADB7BEB712963C932E93119793835C
S1130FB0828344835583668377830E942D022DB7F1
S1130FC03EB7285F3F4F0FB6F8943EBF0FBE2DBF0C
S1130FD00E942F0508959093A00A80939F0A80E0B1
S1130FE00895EF92FF920F931F93CF93DF93082FEF
S1130FF0192FEB0100D00F928FEE92E0ADB7BEB780
S113100012969C938E93119714967C936E931397D8
S11310100E942D020F900F900F900F900E943306A4
S113102099232CF01C161D060CF44AC057C00F92CD
S11310300F928FEF92E0EDB7FEB7928381830E9407
S1131040640188E193E0ADB7BEB712969C938E938A
S113105011970E94640180914E0490914F040F9067
S11310600F9018161906ECF5C0E0D0E00FE918E06F
S11310700F2EFBE1EF2EF3E0FF2EF02DF801EC0F25
S1131080FD1F808100D00F92EDB7FEB73196ADB74A
S1131090BEB71296FC92EE921197828313820E943D
S11310A06401219680914E0490914F040F900F900B
S11310B00F900F90C817D9070CF38FEF9FEF13C051
S11310C0E02EF12E00E010E0F70181917F010E94F3
S11310D0A9010F5F1F4F0C171D07B1F70E9492065D
S11310E002C08FEF9FEFDF91CF911F910F91FF907F
S11310F0EF9008951092530410924F0410924E04EE
S113110008950F920F9282E293E0ADB7BEB71296A4
S11311109C938E9311970E942D028FEF9FE3A2E080
S113112081509040A040E1F700C000000F900F9064
S11311300E94E70608950F920F9284E393E0ADB7FF
S1131140BEB712969C938E9311970E942D028FEF37
S11311509FE7A4E081509040A040E1F700C0000068
S11311600F900F900E947A0808958823E9F444238D
S113117069F021B181E090E0AC0102C0440F551F39
S11311806A95E2F7BA01622B61B9089521B181E051
S113119090E0AC0102C0440F551F6A95E2F7BA0112
S11311A06095622361B908958130E9F4442369F0BC
S11311B024B181E090E0AC0102C0440F551F6A9550
S11311C0E2F7BA01622B64B9089524B181E090E09A
S11311D0AC0102C0440F551F6A95E2F7BA0160954D
S11311E0622364B908958230E9F4442369F027B195
S11311F081E090E0AC0102C0440F551F6A95E2F70C
S1131200BA01622B67B9089527B181E090E0AC017F
S113121002C0440F551F6A95E2F7BA016095622334
S113122067B908958330E9F4442369F02AB181E071
S113123090E0AC0102C0440F551F6A95E2F7BA0171
S1131240622B6AB908952AB181E090E0AC0102C032
S1131250440F551F6A95E2F7BA01609562236AB993
S113126008958430E9F4442369F02DB181E090E0DD
S1131270AC0102C0440F551F6A95E2F7BA01622B14
S11312806DB908952DB181E090E0AC0102C0440F26
S1131290551F6A95E2F7BA01609562236DB9089506
S11312A08530E9F4442369F020B381E090E0AC0197
S11312B002C0440F551F6A95E2F7BA01622B60BB66
S11312C0089520B381E090E0AC0102C0440F551FA3
S11312D06A95E2F7BA016095622360BB089586308F
S11312E0E9F4442369F023B381E090E0AC0102C047
S11312F0440F551F6A95E2F7BA01622B63BB089548
S113130023B381E090E0AC0102C0440F551F6A95FD
S1131310E2F7BA016095622363BB0895873009F54B
S1131320442379F0E1E0F1E0208181E090E0AC0138
S113133002C0440F551F6A95E2F7BA01622B60831D
S11313400895E1E0F1E0208181E090E0AC0102C089
S1131350440F551F6A95E2F7BA01609562236083D2
S11313600895893009F5442379F0E4E0F1E020811F
S113137081E090E0AC0102C0440F551F6A95E2F78A
S1131380BA01622B60830895E4E0F1E0208181E0FA
S113139090E0AC0102C0440F551F6A95E2F7BA0110
S11313A060956223608308958A3009F5442379F0B7
S11313B0E7E0F1E0208181E090E0AC0102C0440F5D
S11313C0551F6A95E2F7BA01622B60830895E7E03E
S11313D0F1E0208181E090E0AC0102C0440F551F90
S11313E06A95E2F7BA0160956223608308958B30B1
S11313F001F5442379F0EAE0F1E0208181E090E016
S1131400AC0102C0440F551F6A95E2F7BA01622B82
S113141060830895EAE0F1E0208181E090E0AC018E
S113142002C0440F551F6A95E2F7BA016095622322
S1131430608308958823E9F4442369F022B181E0AC
S113144090E0AC0102C0440F551F6A95E2F7BA015F
S1131450622B62B9089522B181E090E0AC0102C030
S1131460440F551F6A95E2F7BA016095622362B989
S113147008958130E9F4442369F025B181E090E0D6
S1131480AC0102C0440F551F6A95E2F7BA01622B02
S113149065B9089525B181E090E0AC0102C0440F24
S11314A0551F6A95E2F7BA016095622365B90895FC
S11314B08230E9F4442369F028B181E090E0AC0182
S11314C002C0440F551F6A95E2F7BA01622B68B94E
S11314D0089528B181E090E0AC0102C0440F551F8B
S11314E06A95E2F7BA016095622368B9089583307A
S11314F0E9F4442369F02BB181E090E0AC0102C02F
S1131500440F551F6A95E2F7BA01622B6BB908952F
S11315102BB181E090E0AC0102C0440F551F6A95E5
S1131520E2F7BA01609562236BB908958430E9F457
S1131530442369F02EB181E090E0AC0102C0440F75
S1131540551F6A95E2F7BA01622B6EB908952EB160
S113155081E090E0AC0102C0440F551F6A95E2F7A8
S1131560BA01609562236EB908958530E9F4442385
S113157069F021B381E090E0AC0102C0440F551F33
S11315806A95E2F7BA01622B61BB089521B381E049
S113159090E0AC0102C0440F551F6A95E2F7BA010E
S11315A06095622361BB08958630E9F4442369F0B1
S11315B024B381E090E0AC0102C0440F551F6A954A
S11315C0E2F7BA01622B64BB089524B381E090E092
S11315D0AC0102C0440F551F6A95E2F7BA01609549
S11315E0622364BB0895873009F5442379F0E2E06F
S11315F0F1E0208181E090E0AC0102C0440F551F6E
S11316006A95E2F7BA01622B60830895E2E0F1E0A3
S1131610208181E090E0AC0102C0440F551F6A951F
S1131620E2F7BA016095622360830895893009F571
S1131630442379F0E5E0F1E0208181E090E0AC0121
S113164002C0440F551F6A95E2F7BA01622B60830A
S11316500895E5E0F1E0208181E090E0AC0102C072
S1131660440F551F6A95E2F7BA01609562236083BF
S113167008958A3009F5442379F0E8E0F1E0208107
S113168081E090E0AC0102C0440F551F6A95E2F777
S1131690BA01622B60830895E8E0F1E0208181E0E3
S11316A090E0AC0102C0440F551F6A95E2F7BA01FD
S11316B060956223608308958B3001F5442379F0AB
S11316C0EBE0F1E0208181E090E0AC0102C0440F46
S11316D0551F6A95E2F7BA01622B60830895EBE027
S11316E0F1E0208181E090E0AC0102C0440F551F7D
S11316F06A95E2F7BA0160956223608308958823AE
S113170059F420B130E0C90102C0959587956A95D6
S1131710E2F7982F91707BC0813059F423B130E007
S1131720C90102C0959587956A95E2F7982F917043
S11317306EC0823059F426B130E0C90102C09595DB
S113174087956A95E2F7982F917061C0833039F4D8
S113175089B191E0681708F45AC090E058C0843009
S113176059F42CB130E0C90102C0959587956A956A
S1131770E2F7982F91704BC0853051F48FB190E00F
S113178002C0959587956A95E2F7982F91703FC0AE
S1131790863051F482B390E002C0959587956A959E
S11317A0E2F7982F917033C0873059F4809100018B
S11317B090E002C0959587956A95E2F7982F91700D
S11317C026C0893059F48091030190E002C09595B8
S11317D087956A95E2F7982F917019C08A3059F469
S11317E08091060190E002C0959587956A95E2F78D
S11317F0982F91700CC08B3051F48091090190E0C6
S113180002C0959587956A95E2F7982F9170892F74
S113181090E0089585E065E040E00E94B5080895F1
S113182085E065E041E00E94B508089585E065E043
S11318300E947F0B089585E065E040E00E941A0A4B
S1131840089585E062E041E00E941A0A089585E067
S113185062E040E00E941A0A089585E065E041E0F4
S11318600E941A0A08950E942D0C0E94270C000061
S113187000000E94210C000000000E941B0C0000CC
S113188000000E94270C000000000E94210C0000B0
S113189000000E942D0C000000000E94270C0895F7
S11318A0CF930E942D0C0E94270CC9E00E94210CAA
S11318B00E94270CC150D1F70E94330CCF91089598
S11318C00E94100C85E062E041E00E94B5080E948D
S11318D0500C08950F931F93CF93DF93082F0E940A
S11318E0100CC8E0D0E010E8812F802319F00E948A
S11318F02D0C02C00E941B0C0E94210C0000000051
S11319000E94270C1695219779F70E942D0C0E94AE
S11319100A0C000000000E94210C0E94160CC82F23
S11319200E94270C0E94100C8C2FDF91CF911F91E5
S11319300F910895FF920F931F93CF93DF93F82E87
S11319400E940A0C0E942D0C00000000C8E0D0E0A8
S113195000E010E80E94210C000000000E94160C18
S1131960009709F0012B0E94270C00000000169537
S1131970219781F70E94100CFF2019F00E941B0C84
S113198002C00E942D0C0E94210C000000000E9445
S1131990270C000000000E942D0C802FDF91CF91B6
S11319A01F910F91FF900895EF92FF920F931F9351
S11319B0CF937C018B01C42F0E94330CCC2319F0EC
S11319C0C13059F405C083E00E946A0C90E007C05E
S11319D085E00E946A0C90E002C080E090E00097ED
S11319E0E9F40E940A0C0E94160C0097E1F70E9489
S11319F00A0C81E00E949A0CC82F81E00E949A0C84
S1131A003C2F20E0280F311DF7013183208380E033
S1131A100E949A0CF8018083118280E0CF911F917B
S1131A200F91FF90EF9008952F923F924F925F9203
S1131A306F927F928F929F92AF92BF92CF92DF92DA
S1131A40EF92FF920F931F93CF93DF930F920F9216
S1131A50CDB7DEB78B01BC0180E090E00E94261177
S1131A60C62ED72EF82EE92EB80180E090E00E9411
S1131A7026112AE037ED43E25CE30E94DC1120E00A
S1131A8030E040E252E40E94911020E030E040EA6D
S1131A9050E40E949110362E272E89839A83382F82
S1131AA0292F862F922DA32FB22FBC01CD0120E028
S1131AB030E048EC51E40E9491104B015C018C2D04
S1131AC09D2DAF2DBE2DBC01CD012CEA35EC47EA8E
S1131AD058E30E94DC112AE037ED43E25CE30E9404
S1131AE092109B01AC01C501B4010E94DC112B01D1
S1131AF03C018C2D9D2DAF2DBE2DBC01CD0122EAC4
S1131B0037EE4BE356EB0E94DC110C2D1D2D2F2DCF
S1131B103E2DA90198010E94DC114B015C01802F2C
S1131B20912FAF2DBE2DBC01CD0124E533EE45E24E
S1131B305DE30E94DC119B01AC01C501B4010E946C
S1131B40921020E030E040E850E40E9491109B01A4
S1131B50AC01C301B2010E949210F62E072F482E49
S1131B60892EE62E172FD82EC92E862F902FA42D1E
S1131B70B82DBC01CD0120E030E048EC52E40E94D5
S1131B80D81118167CF08F2D902FA42DB82DBC01E0
S1131B90CD012DEC3CEC4CEC5DE30E94F610882367
S1131BA064F018C0EE2410E00F2EF8ECDF2EF02DB8
S1131BB00F2EF2E4CF2EF02D0DC00F2EFDECEF2EE4
S1131BC0F02D1CEC0F2EFCECDF2EF02D0F2EFDE380
S1131BD0CF2EF02D39812A81832D922DA32FB22F60
S1131BE0BC01CD0120E030E040E251E40E94DC1170
S1131BF00E94FA10DC01CB019093A40A8093A30AFB
S1131C008E2D912FAD2DBC2DBC01CD0120E030E0F7
S1131C1040E251E40E94DC110E94FA10DC01CB0185
S1131C209093A60A8093A50A0F900F90DF91CF910D
S1131C301F910F91FF90EF90DF90CF90BF90AF90E6
S1131C409F908F907F906F905F904F903F902F90D8
S1131C500895CF93DF938093AB0A1092AA0A10924F
S1131C60A90ACCEADAE081EA9AE0BE0141E00E94E6
S1131C70D40C2091A90A3091AA0A280F311D30935F
S1131C80AA0A2093A90A87EA9AE0BE0140E00E94CA
S1131C90D40C2091A90A3091AA0A280F311D30933F
S1131CA0AA0A2093A90A2115310519F00E94500CA3
S1131CB00AC06091A70A7091A80A8091A10A909124
S1131CC0A20A0E94140D8091AB0A813029F48091FC
S1131CD0A50A9091A60A09C0882329F48091A30A31
S1131CE09091A40A02C080E090E0DF91CF91089522
S1131CF0882319F0813009F00895CB016AE070E07F
S1131D000E943F12862F089581309105E1F46130DD
S1131D10710559F485E066E041E00E941A0A85E005
S1131D2063E040E00E941A0A089561157105B9F450
S1131D3085E066E040E00E941A0A85E063E041E045
S1131D400E941A0A0895009751F485E066E040E085
S1131D500E941A0A85E063E040E00E941A0A08958E
S1131D6085E085BD82ED86BDEEE6F0E08081816090
S1131D708083A89A0895DC01CB0180935504909345
S1131D805604A0935704B093580410925904109227
S1131D905A0410925B0410925C04089580915404D8
S1131DA0882321F01092540481E0089580E008957E
S1131DB08130910581F400D00F928BE393E0EDB76D
S1131DC0FEB792838183748363830E9464010F90BE
S1131DD00F900F900F900895CF93DF93CDB7DEB798
S1131DE0C050D1400FB6F894DEBF0FBECDBF0E94E5
S1131DF04D010E94060278940F920F9285E493E0BD
S1131E00ADB7BEB712969C938E9311970E9464014E
S1131E108FEF9FEFACE281509040A040E1F700C00B
S1131E2000000F900F900E947A080E949B080E9465
S1131E307A0888ED9EE00E94EB070E9481080E94C8
S1131E407A080E9496070E94B4070F920F9287E5C2
S1131E5093E0ADB7BEB712969C938E9311970E94F0
S1131E6064010F900F900E945E070F920F928CE610
S1131E7093E0EDB7FEB7928381830E9464010F90D3
S1131E800F908FE693E069E773E00E947807882358
S1131E9079F40F920F9283E893E0ADB7BEB7129630
S1131EA09C938E9311970E9464010F900F900CC025
S1131EB00F920F9283E993E0EDB7FEB7928381838B
S1131EC00E9464010F900F900F920F9289EA93E0A1
S1131ED0ADB7BEB712969C938E9311970E9464017E
S1131EE00F900F900E94A5070F920F928CE693E03B
S1131EF0EDB7FEB7928381830E9464010F900F9027
S1131F0082EC93E041E553EC60E070E00E94C3078B
S1131F10882379F40F920F928FEC93E0ADB7BEB79C
S1131F2012969C938E9311970E9464010F900F90C8
S1131F300CC00F920F9283EE93E0EDB7FEB792833D
S1131F4081830E9464010F900F900F920F928CE690
S1131F5093E0ADB7BEB712969C938E9311970E94EF
S1131F606401DE011196EDEFF3E087E101900D923B
S1131F708150E1F70F900F900E94B00E64E670E07C
S1131F8080E090E00E94BB0E0F920F9284E194E0F7
S1131F90EDB7FEB7928381830E9464010F900F9086
S1131FA00E944D0180E00E9496000E9410017894E6
S1131FB00E94600C7E010894E11CF11C0F2EF1E2DA
S1131FC0CF2EF4E0DF2EF02D0F2EF1E4AF2EF4E04F
S1131FD0BF2EF02D80E00E94290E9093B10A8093C9
S1131FE0B00A81E00E94290E9093AF0A8093AE0A52
S1131FF06091B00A7091B10A80E00E94780E082FB7
S11320006091AE0A7091AF0A81E00E94780E182F99
S113201080914A0490914B048130910551F41092BF
S11320204B0410924A040E94A10090935E04809392
S11320305D0481E090E060E070E00E94840E809195
S11320405D0490915E048F31910500F581E090E08C
S113205061E070E00E94840E8FEF9FE3ABE081505B
S11320609040A040E1F700C0000080E090E061E013
S113207070E00E94840E8FEF9FE7A2E3B2E08150EC
S11320809040A040B040D9F700C000000E94E7048F
S11320900E94CE0E882309F49DCFADB7BEB71A9720
S11320A00FB6F894BEBF0FBEADBFEDB7FEB7319605
S11320B01296FC92EE921197D382C28280915D04B3
S11320C090915E049583848306831782108711861A
S11320D00E949012F70101900020E9F7BF016150BE
S11320E070406E197F098DB79EB70A960FB6F894A3
S11320F09EBF0FBE8DBFC7010E94F10700D00F9293
S1132100ADB7BEB71296BC92AE9211971496FC92DC
S1132110EE9213970E9464010F900F900F900F900E
S113212059CF5058BB27AA270ED008C1F9D030F098
S1132130FED020F031F49F3F11F41EF4EEC00EF4F3
S1132140E095E7FBE4C0E92F0AD180F3BA176207F0
S113215073078407950718F071F49EF522C10EF4F5
S1132160E0950B2EBA2FA02D0B01B90190010C01A3
S1132170CA01A0011124FF27591B99F0593F50F4BB
S1132180503E68F11A16F040A22F232F342F442713
S1132190585FF3CF469537952795A795F04053950B
S11321A0C9F77EF41F16BA0B620B730B840BBAF0DB
S11321B09150A1F0FF0FBB1F661F771F881FC2F746
S11321C00EC0BA0F621F731F841F48F4879577955A
S11321D06795B795F7959E3F08F0B3CF9395880F11
S11321E008F09927EE0F9795879508956CD008F419
S11321F081E00895BCD088F09F5790F0B92F9927BB
S1132200B751A0F0D1F0660F771F881F991F1AF0FD
S1132210BA95C9F712C0B13081F0C3D0B1E00895C6
S1132220C0C0672F782F8827B85F39F0B93FCCF347
S1132230869577956795B395D9F73EF490958095F3
S1132240709561957F4F8F4F9F4F0895E89409C013
S113225097FB3EF490958095709561957F4F8F4FD5
S11322609F4F9923A9F0F92F96E9BB279395F695EB
S1132270879577956795B795F111F8CFFAF4BB0F69
S113228011F460FF1BC06F5F7F4F8F4F9F4F16C0CD
S1132290882311F096E911C0772321F09EE8872F57
S11322A0762F05C0662371F096E8862F70E060E013
S11322B02AF09A95660F771F881FDAF7880F96958C
S11322C0879597F90895990F0008550FAA0BE0E830
S11322D0FEEF16161706E807F907C0F012161306E4
S11322E0E407F50798F0621B730B840B950B39F424
S11322F00A2661F0232B242B252B21F408950A268A
S113230009F4A140A6958FEF811D811D089597F9C9
S11323109F6780E870E060E008959FEF80EC089587
S113232000240A94161617061806090608950024B0
S11323300A9412161306140605060895092E03942A
S1132340000C11F4882352F0BB0F40F4BF2B11F49E
S113235060FF04C06F5F7F4F8F4F9F4F089557FDFD
S11323609058440F551F59F05F3F71F04795880FFF
S113237097FB991F61F09F3F79F087950895121696
S113238013061406551FF2CF4695F1DF08C0161642
S113239017061806991FF1CF8695710561050894F3
S11323A00895E894BB2766277727CB0197F908950A
S11323B08ADF08F48FEF08950BD0C0CFB1DF28F087
S11323C0B6DF18F0952309F0A2CFA7CF1124EACFE6
S11323D0C6DFA0F3959FD1F3950F50E0551F629F80
S11323E0F001729FBB27F00DB11D639FAA27F00D6A
S11323F0B11DAA1F649F6627B00DA11D661F829F91
S11324002227B00DA11D621F739FB00DA11D621F75
S1132410839FA00D611D221F749F3327A00D611D92
S1132420231F849F600D211D822F762F6A2F112474
S11324309F5750408AF0E1F088234AF0EE0FFF1FC7
S1132440BB1F661F771F881F91505040A9F79E3FFE
S1132450510570F05CCFA6CF5F3FECF3983EDCF300
S1132460869577956795B795F795E7959F5FC1F73B
S1132470FE2B880F911D9695879597F90895AA1BB1
S1132480BB1B51E107C0AA1FBB1FA617B70710F05B
S1132490A61BB70B881F991F5A95A9F7809590958D
S11324A0BC01CD010895FC0188279927E894219166
S11324B02032E9F3293010F02E30C8F32B3241F0EA
S11324C02D3239F4689404C00E948812820F911D41
S11324D0219120532A30C0F31EF4909581959F4F8B
S11324E00895FB01DC0102C001900D92415050405F
S11324F0D8F70895FB01DC014150504030F08D9134
S11325000190801919F40020B9F7881B990B0895DC
S11325107AE0979F902D879F802D910D1124089527
S11325200F931F93CF93DF93CDB7DEB72E970FB6DC
S1132530F894DEBF0FBECDBF0E891F8986E08C8361
S11325401A8309838FEF9FE79E838D83AE01465ED6
S11325505F4FCE010196688D798D0E94E812EF815C
S1132560F885E00FF11F10822E960FB6F894DEBFA7
S11325700FBECDBFDF91CF911F910F9108950F939F
S11325801F93CF93DF93CDB7DEB72E970FB6F89492
S1132590DEBF0FBECDBF8C0186E08C831A83098316
S11325A08FEF9FE79E838D83CE0101960E94E812F0
S11325B0EF81F885E00FF11F10822E960FB6F89484
S11325C0DEBF0FBECDBFDF91CF911F910F91089554
S11325D02F923F924F925F926F927F928F929F922F
S11325E0AF92BF92CF92DF92EF92FF920F931F931D
S11325F0CF93DF93CDB7DEB72D970FB6F894DEBF38
S11326000FBECDBF3C017D876C875A01FC01178248
S11326101682838181FFC8C12E010894411C511C7C
S1132620F3019381EC85FD8593FD859193FF819161
S1132630FD87EC87882309F4B3C1853241F493FD07
S1132640859193FF8191FD87EC87853229F490E091
S1132650B3010E940515E4CFFF24EE2410E01032EC
S1132660B0F48B3269F08C3228F4803251F083322A
S113267071F40BC08D3239F0803349F411602CC0F1
S11326801260146029C0186027C0106125C017FDAE
S11326902EC0282F20532A3098F416FF08C08F2DFF
S11326A0880FF82EFF0CFF0CF80EF20E15C08E2DBD
S11326B0880FE82EEE0CEE0CE80EE20E10620CC051
S11326C08E3221F416FD6CC1106406C08C3611F4F0
S11326D0106802C0883659F4EC85FD8593FD859118
S11326E093FF8191FD87EC87882309F0B8CF982F59
S11326F09554933018F09052933038F424E030E03D
S1132700A20EB31E3FE339830FC0833631F0833703
S113271081F0833509F05AC022C0F5018081898394
S113272022E030E0A20EB31E21E0C22ED12C4201E1
S113273014C092E0292E312C2A0C3B1CF501808018
S1132740918016FF03C06F2D70E002C06FEF7FEF22
S1132750C4010E94FA146C0151011F7715C082E074
S1132760282E312C2A0C3B1CF5018080918016FF09
S113277003C06F2D70E002C06FEF7FEFC4010E94B1
S1132780EF146C011068510113FD1CC006C080E2F7
S113279090E0B3010E940515EA948E2D90E0C816CE
S11327A0D906A8F30FC0F40117FD859117FF819195
S11327B04F0190E0B3010E940515E110EA940894DA
S11327C0C108D108C114D10471F7E7C0843611F0EF
S11327D0893651F5F50117FF07C080819181A281E7
S11327E0B38124E030E008C080819181AA2797FD5D
S11327F0A095BA2F22E030E0A20EB31E012F0F766F
S1132800B7FF08C0B095A095909581959F4FAF4FA5
S1132810BF4F0068BC01CD01A2012AE030E00E9454
S11328203115D82ED4183FC0853721F41F7E2AE0F5
S113283030E020C0197F8F36A9F0803720F4883526
S113284009F0AEC00BC0803721F0883709F0A8C06A
S113285001C0106114FF09C0146007C014FF08C050
S1132860166006C028E030E005C020E130E002C078
S113287020E132E0F50117FF07C060817181828198
S1132880938144E050E006C06081718180E090E073
S113289042E050E0A40EB51EA2010E943115D82ECC
S11328A0D418012F0F7706FF09C00E7FDF1430F410
S11328B004FF06C002FD04C00F7E02C01D2D01C02E
S11328C01F2D802F90E004FF0CC0FE01ED0DF11DC3
S11328D02081203311F4097E09C002FF06C01E5F67
S11328E005C086789070009709F01F5F802E9924A8
S11328F003FD12C000FF0DC0FD2C1E1550F4FE0C8C
S1132900F11A1E2D06C080E290E0B3010E94051565
S11329101F5F1E15C0F304C01E1510F4E11A01C098
S1132920EE2484FE0FC080E390E0B3010E940515FD
S113293082FE1FC081FE03C088E590E010C088E7D6
S113294090E00DC0C40186789070009791F081FCEE
S113295002C080E201C08BE207FD8DE290E0B3018A
S11329600E94051506C080E390E0B3010E9405159E
S1132970FA94DF14C0F3DA94F201ED0DF11D8081B5
S113298090E0B3010E940515DD20A9F706C080E29E
S113299090E0B3010E940515EA94EE20C1F740CE01
S11329A0F3018681978102C08FEF9FEF2D960FB6BA
S11329B0F894DEBF0FBECDBFDF91CF911F910F9171
S11329C0FF90EF90DF90CF90BF90AF909F908F904B
S11329D07F906F905F904F903F902F900895FC01EF
S11329E00590615070400110D8F7809590958E0F36
S11329F09F1F0895FC016150704001900110D8F7A9
S1132A00809590958E0F9F1F08950F931F93CF93DA
S1132A10DF938C01EB018B8181FF1BC082FF0DC012
S1132A202E813F818C819D812817390764F4E881C8
S1132A30F9810193F983E88306C0E885F985802F3D
S1132A401995009731F48E819F8101969F838E831F
S1132A5002C00FEF1FEFC801DF91CF911F910F91BB
S1132A600895FA01AA27283051F1203181F1E89420
S1132A706F936E7F6E5F7F4F8F4F9F4FAF4FB1E06D
S1132A803ED0B4E03CD0670F781F891F9A1FA11D68
S1132A90680F791F8A1F911DA11D6A0F711D811D69
S1132AA0911DA11D20D009F468943F912AE0269F2E
S1132AB011243019305D3193DEF6CF010895462F8D
S1132AC04770405D4193B3E00FD0C9F7F6CF462F6E
S1132AD04F70405D4A3318F0495D31FD40524193D7
S1132AE002D0A9F7EACFB4E0A69597958795779594
S1132AF06795BA95C9F700976105710508959B011B
S1132B00AC010A2E06945795479537952795BA95A3
S1132B10C9F7620F731F841F951FA01D0895F894B1
S1052B20FFCFE1
S1132B224F4B0053454E44204F4B002B4950442CED
S1132B32004552524F52004641494C00414C5245C5
S1132B4241445900627573792E2E2E00414C524530
S1132B524159005761697453656E645265616479C1
S1132B62576974686F75745072696E7420636F75F7
S1132B726E746572206572720D0A00576169744F32
S1132B824B576974686F75745072696E7420636F01
S1132B92756E746572206572720D0A0041542B437E
S1132BA2574C41500D0A0041542B43574A41505F40
S1132BB24445463D222573222C222573220D0A0008
S1132BC241542B43574D4F44453D330D0A00415464
S1132BD22B4349505354415F4355523F0D0A004120
S1132BE2542B4357444843505F4355523D312C3193
S1132BF20D0A0041542B43495053544152543D222F
S1132C02544350222C222573222C25750D0A00418F
S1132C12542B43495053454E443D25640D0A0077D5
S1132C2269666953656E644461746120776169748D
S1132C3220657272202D3000263A005B253032580E
S1132C425D0041542B43574155544F434F4E4E3D23
S1132C52300D0A00415445300D0A000D0A52583A0B
S1132C6225730D0A0077696669207465737420738D
S1132C72746172740D0A000D0A4150206C697374F8
S1132C8220646973706C61793A0D0A000D0A00437D
S1132C92534E45542D3330310067776E75636F6D33
S1132CA2736500415020636F6E6E65637465642EB4
S1132CB20D0A00415020636F6E6E656374696F6E16
S1132CC2206661696C2E0D0A000D0A20416C6C6F3E
S1132CD26361746564206C6F63616C2049503A0DC2
S1132CE20A003139322E3136382E312E3432004335
S1132CF26F6E6E6563746564205365727665722EB9
S1132D020D0A0053657276657220636F6E6E656399
S1132D1274696F6E206661696C2E0D0A00746573A6
S1132D2274206D736573736167653A2068656C6CB2
S1132D326F0D0A007374617274204C6F6F700D0A08
S1132D4200736F696C203A2025642074656D7020CD
S1132D523A2025642068756D69203A202564200A8A
S10D2D620054583A25730D0A0000CE
S9030000FC
