S010000057696669546573742E73726563E5
S11300000C9472000C9494000C9494000C9494003E
S11300100C9494000C9494000C9494000C9494000C
S11300200C9494000C9494000C9494000C949400FC
S11300300C9494000C9494000C9494000C949400EC
S11300400C9494000C9494000C9494000C949400DC
S11300500C9494000C9494000C9494000C94B000B0
S11300600C9494000C940E020C9494000C94940040
S11300700C9494000C9494000C9494000C949400AC
S11300800C9494000C9494000C9494000C9494009C
S11300900C9494000C9494000C9494000C9494008C
S11300A00C9494000C9494000C9494000C9494007C
S11300B00C9494000C9494000C9494000C9494006C
S11300C00C9494000C9494000C9494000C9480016F
S11300D00C9494000C9494000C9494000C9494004C
S11300E00C94940011241FBECFEFD1E2DEBFCDBF2C
S11300F000E00CBF14E0A0E0B2E0EEEBF4E200E0BC
S11301000BBF02C007900D92AE33B107D9F71BBEE7
S11301101AE0AEE3B4E001C01D92A539B107E1F7DE
S11301200E94A30C0C945D120C940000806C8093CC
S11301307C00EAE7F0E087EA808380818064808342
S11301400895EAE7F0E0808184FFFDCF8091780094
S113015090917900392F20E090E0822B932B089521
S11301601F920F920FB60F9211244F935F936F93C8
S11301707F938F939F93AF93BF93F8948FE686BD3D
S113018080914D0490914E04A0914F04B09150047D
S11301900196A11DB11D80934D0490934E04A0932C
S11301A04F04B093500440914D0450914E0460911B
S11301B04F04709150048091490490914A04A09195
S11301C04B04B0914C04481759076A077B0758F051
S11301D081E08093480410924D0410924E041092D2
S11301E04F04109250047894809140048F5F809360
S11301F04004843641F41092400481E090E09093EE
S11302003F0480933E04BF91AF919F918F917F9162
S11302106F915F914F910F900FBE0F901F901895A3
S113022085E085BD82ED86BDEEE6F0E080818160EB
S11302308083A89A0895CF93C0E082E06C2F41E0B8
S11302400E94120982E06C2F40E00E94770A8AE043
S11302506C2F41E00E9412098AE06C2F40E00E945A
S1130260770ACF5FC83049F7CF910895EF92FF9294
S11302700F931F93CF93DF938C01C0E0D0E0E62E61
S1130280FF24C7010C2E02C0959587950A94E2F7C6
S113029080FF12C00115110531F482E06C2F41E09A
S11302A00E94770A1AC001301105B9F48AE06C2F54
S11302B041E00E94770A11C00115110531F482E072
S11302C06C2F40E00E94770A08C00130110529F420
S11302D08AE06C2F40E00E94770A2196C830D1054D
S11302E081F6DF91CF911F910F91FF90EF900895C8
S11302F0E0EDF0E0908195FFFDCF8093D600089566
S11303001F920F920FB60F920BB60F9211248F9378
S11303109F93EF93FF93909141048091D600E3E57E
S1130320F4E0E90FF11D8083809141048F5F809395
S1130330410480914104803410F010924104FF91F3
S1130340EF919F918F910F900BBE0F900FBE0F9066
S11303501F901895E1E0F1E080818C7F8083E2E0DA
S1130360F1E0808180831092D00088E98093D100ED
S113037086E08093D2001092D50087E08093D40069
S113038008950F931F93CF93DF93CDB7DEB7C05873
S1130390D0400FB6F894DEBF0FBECDBFFE01E857C4
S11303A0FF4F61917191CE0101964E2F5F2F0E94F4
S11303B08D0F8981882351F08E010E5F1F4F0E949B
S11303C07801F80181918F018823C9F7C058DF4F64
S11303D00FB6F894DEBF0FBECDBFDF91CF911F9152
S11303E00F91089580914104882379F0809141040C
S11303F0882349F080E090E001962091410430E0A8
S113040082179307CCF3109241040895E0ECF0E0D6
S1130410908195FFFDCF8093C60008951F920F929F
S11304200FB60F920BB60F9211248F939F93EF93F5
S1130430FF93909147048091C600E3E9F6E0E90F49
S1130440F11D8083809147048F5F809347048091DE
S11304504704FF91EF919F918F910F900BBE0F90E6
S11304600FBE0F901F90189556985E9889E999E5EC
S1130470A1E081509040A040E1F70000569A8FEF30
S11304809FE3A2E081509040A040E1F700C000004B
S113049056985E9A8FEF9FEFA9E581509040A04057
S11304A0E1F700C000000895882311F05F9A01C0AD
S11304B05F988FEF9FEFA8E081509040A040E1F754
S11304C000C0000008958DB18C7F8DB98EB18EB9B6
S11304D01092C00088E98093C10086E08093C20036
S11304E01092C50087E08093C400579A5F9A0E94D7
S11304F034028FEF9FE7A4E081509040A040E1F7E1
S113050000C0000081E00E9454021092940A1092EC
S1130510930A08950F931F93CF93DF93CDB7DEB75C
S1130520C058D0400FB6F894DEBF0FBECDBFFE0159
S1130530E857FF4F61917191CE0101964E2F5F2FC5
S11305400E948D0F8981882351F08E010E5F1F4F09
S11305500E940602F80181918F018823C9F7C058CF
S1130560DF4F0FB6F894DEBF0FBECDBFDF91CF9142
S11305701F910F9108958F929F92AF92BF92CF9245
S1130580DF92EF92FF920F931F93CF93DF93CDB738
S1130590DEB72A970FB6F894DEBF0FBECDBF6C014D
S11305A07B01161617060CF076C0FC0180818A3395
S11305B0C1F0319680E090E003C021912A3331F0FC
S11305C001968E159F05C9F781E06EC0FFEF8F3F3E
S11305D09F0709F462C05C018C3091050CF05FC088
S11305E002C0AA24BB24850105501040B6016B5FEC
S11305F07F4FCE010196402F512F0E943F0FE1E023
S1130600F0E0EC0FFD1FE00FF11F1082CE01019608
S11306100E94210FAC01009709F443C0EA18FB08BB
S11306208701015010400817190734F5C7010196D6
S113063084179507C1F590934604809345040F2EC3
S1130640F3E98F2EF4E09F2EF02DB5016F5F7F4FFD
S11306506C0D7D1D882D992D402F512F0E943F0F29
S1130660F401E00FF11F8DE08083F401EE0DFF1D16
S11306708AE0808380E018C0909346048093450408
S113068083E994E0B5016F5F7F4F6C0D7D1D0E947F
S11306903F0F80E009C081E007C081E005C082E02F
S11306A003C082E001C081E02A960FB6F894DEBF51
S11306B00FBECDBFDF91CF911F910F91FF90EF90AF
S11306C0DF90CF90BF90AF909F908F9008950F933D
S11306D01F93CF93DF93EC018B0160E072E042E063
S11306E050E00E94480F282F392F2115310509F4B5
S11306F06AC088818E3309F468C0073011056CF034
S1130700CE0163E072E047E050E00E94480F282FDA
S1130710392F2115310509F45AC004301105C4F0EC
S1130720CE016BE072E044E050E00E94480F282FB5
S1130730392F2115310561F4CE01B8010E94BB02A5
S1130740882309F446C0813009F045C084E04EC0D6
S11307500530110564F0CE0161E172E045E050E03E
S11307600E94480F282F392F21153105B1F104308B
S1130770110564F0CE0167E172E045E050E00E94AB
S1130780480F282F392F2115310549F1073011055C
S113079044F1CE016CE172E047E050E00E94480F62
S11307A0282F392F21153105F1F0CE0164E272E0D2
S11307B047E050E00E94480F282F392F21153105BA
S11307C0A1F489E013C082E011C088E00FC081E089
S11307D00DC083E00BC080E009C085E007C086E05F
S11307E005C08AE003C087E001C080E0DF91CF91BB
S11307F01F910F9108952F923F924F925F926F92A3
S11308007F928F929F92AF92BF92CF92DF92EF929C
S1130810FF920F931F93CF93DF93CDB7DEB7C250F0
S1130820D2400FB6F894DEBF0FBECDBF3C01C62E3A
S113083080914704882309F40BC1209147048091D7
S1130840420490914304820F911D22E0803092076C
S113085044F0109243041092420410924404DD24A4
S1130860F8C04091470483E998E063E976E050E0FA
S11308700E943F0F209147048091420490914304C9
S1130880820F911D90934304809342041092470475
S1130890DD24AA24BB2488248A94982C0F2EF3E9FF
S11308A0EF2EF8E0FF2EF02DCF5FDD4FE882C15030
S11308B0D240CE5FDD4FF882C250D2400F2EF5E910
S11308C04F2EF8E05F2EF02D0F2EFEEF2F2EFFEFB0
S11308D03F2EF02D240C351C80914204909143044A
S11308E0181619060CF09BC08501B4018FEF6F3FF9
S11308F0780709F483C0F701E00FF11F80818A3083
S113090009F083C0CB0101968017910709F07DC0DF
S11309108130910519F540914204509143044250AD
S11309205040CE010196642D752D0E943F0F4091D9
S113093042045091430442505040822D932DBE01F5
S11309406F5F7F4F0E943F0F809142049091430458
S113095002979093430480934204BECFCF5FDD4F50
S11309608881C150D240CE5FDD4F9881C250D240C1
S11309700E946703DC1428F4F301ED0DF11D80835C
S1130980D3942091420430914304C8010196821704
S1130990930719F4109244045CC0B8016C56774F65
S11309A04091420450914304401B510B415050402C
S11309B0CE0101960E943F0F40914204509143049E
S11309C0401B510B415050408E2D9F2DBE016F5F37
S11309D07F4F0E943F0F2091420430914304C8018D
S11309E080959095820F931F9093430480934204C3
S11309F02FEF0F3F120709F06FCF11C0F701E00F7F
S1130A00F11F80818D3009F4B8010F5F1F4F809171
S1130A10420490914304081719070CF467CF81E04E
S1130A2080934404609142047091430483E998E004
S1130A300E9467038A3031F0843021F0109243041D
S1130A4010924204F301ED0DF11D8083D39401C093
S1130A50DD248D2DCE5FDD4F0FB6F894DEBF0FBEC3
S1130A60CDBFDF91CF911F910F91FF90EF90DF9059
S1130A70CF90BF90AF909F908F907F906F905F903A
S1130A804F903F902F900895CF93DF9300D00F9213
S1130A90CDB7DEB78091450490914604009799F054
S1130AA0E091930AF091940A309749F040914504FB
S1130AB05091460481E090E063E974E01995109246
S1130AC0460410924504809147048823F1F0CE0136
S1130AD0019664E00E94FB038091450490914604D2
S1130AE0009799F0E091930AF091940A309749F0B5
S1130AF0409145045091460481E090E063E974E03C
S1130B00199510924604109245040F900F900F907F
S1130B100F90DF91CF9108952F923F924F925F9261
S1130B206F927F928F929F92AF92BF92CF92DF92F9
S1130B30EF92FF920F931F93CF93DF93CDB7DEB75E
S1130B40C050D2400FB6F894DEBF0FBECDBFEE2426
S1130B50FF240F2EF3E9AF2EF6E0BF2EF02D0F2E5B
S1130B60F1E12F2EF2E03F2EF02D0F2EF0E06F2E4C
S1130B70F2E07F2EF02D0F2EFBE04F2EF2E05F2EE1
S1130B80F02D809147048823E1F380914704882362
S1130B9009F4A9C0CC24DD248824992485010C0DF2
S1130BA01D1DF8018081E1E0F0E0EC0FFD1FEE0D6A
S1130BB0FF1D80830894E11CF11CF80180810E94D0
S1130BC07801F80180818A3009F083C0F4E0EF16DF
S1130BD0F1040CF479C0CE010196B30142E050E077
S1130BE00E94480F282F392F2115310529F410921E
S1130BF0470480E090E07AC0CE010196B20144E05F
S1130C0050E00E94480F282F392F2115310529F46F
S1130C10109247048FEF9FEF69C087E0E816F10454
S1130C208CF0CE010196B10145E050E00E94480FDE
S1130C30282F392F2115310529F4109247048FEFFD
S1130C409FEF54C0E6E0EE16F10494F0CE01019655
S1130C5067E172E045E050E00E94480F282F392FE9
S1130C602115310529F4109247048FEF9FEF3EC000
S1130C70F7E0EF16F10494F0CE0101966CE272E015
S1130C8045E050E00E94480F282F392F21153105E7
S1130C9029F41092470480E090E028C089E0E81627
S1130CA0F104A4F0CE01019663E072E047E050E065
S1130CB00E94480F282F392F2115310549F410922D
S1130CC0470480E090E012C0740103C0740101C0C5
S1130CD074010894C11CD11C8091470490E0C8168B
S1130CE0D9060CF45BCF109247044BCFC050DE4FB3
S1130CF00FB6F894DEBF0FBECDBFDF91CF911F9129
S1130D000F91FF90EF90DF90CF90BF90AF909F90A6
S1130D108F907F906F905F904F903F902F900895A9
S1130D20CF92DF92FF920F931F93CF93DF9300D064
S1130D300F92CDB7DEB70F2EF5E6CF2EDD24F02DC2
S1130D4000E0FF2411E0CE01019664E00E94FB0361
S1130D508823A1F0FE0131969F01280F311DC9019E
S1130D602191283029F0223029F0253021F426C0A1
S1130D70012F01C0F12EE817F90791F7002311F0B4
S1130D80FF20F9F40894C108D108C114D10479F4FE
S1130D900F920F9283E392E0EDB7FEB792838183C3
S1130DA00E94C1010F900F908FEF9FEF0CC08FEF47
S1130DB09FE80197F1F700C00000C5CF8FEF9FEFC8
S1130DC002C080E090E00F900F900F900F90DF91A1
S1130DD0CF911F910F91FF90DF90CF9008950F93C3
S1130DE01F93CF93DF9300D00F92CDB7DEB705E604
S1130DF010E0CE01019664E00E94FB038823B9F061
S1130E009981913069F1953071F1FE01329621E0BA
S1130E1030E02C0F3D1F280F311DC90105C0219161
S1130E20213021F1253029F1E817F907C1F70150E4
S1130E30104079F40F920F928BE592E0EDB7FEB774
S1130E40928381830E94C1010F900F908FEF9FEFD7
S1130E5012C08FEF9FE80197F1F700C00000C9CFDF
S1130E6080E090E008C08FEF9FEF05C080E090E045
S1130E7002C08FEF9FEF0F900F900F900F90DF91B4
S1130E80CF911F910F910895CF92DF92EF92FF922D
S1130E900F931F93CF93DF93CDB7DEB7C050D140EC
S1130EA00FB6F894DEBF0FBECDBFDD2440E050E0A6
S1130EB0BE016F5F7F4FEE24FF2403E916E0CC24CC
S1130EC0C394809147048823E1F3809147048823E5
S1130ED0C1F3DB01A40FB51F9701F801E20FF31F63
S1130EE080818D9380818A3039F5DD2021F1CE0116
S1130EF0039660E072E042E050E00E94480F282F21
S1130F00392F2115310529F41092470480E090E02F
S1130F1022C0CE01039661E172E045E050E00E94F8
S1130F20480F282F392F2115310599F410924704C1
S1130F308FEF9FEF10C0DC2CAD01461B570B2F5FCA
S1130F403F4F8091470490E0281739070CF0B9CF40
S1130F50C4CF8FEF9FEFC050DF4F0FB6F894DEBFC2
S1130F600FBECDBFDF91CF911F910F91FF90EF90F6
S1130F70DF90CF9008950F920F928CE792E0ADB777
S1130F80BEB712969C938E9311970E948A028FEF9C
S1130F909FEFA9E581509040A040E1F700C0000018
S1130FA00F900F900E948C05089500D000D0EDB7EB
S1130FB0FEB7319627E832E0ADB7BEB712963C9340
S1130FC02E93119793838283758364830E948A028C
S1130FD08DB79EB706960FB6F8949EBF0FBE8DBF11
S1130FE00E948C0508950F920F9280EA92E0EDB76B
S1130FF0FEB7928381830E948A020F900F900E9411
S11310008C0508950F920F928EEA92E0EDB7FEB729
S1131010928381830E948A020F900F900E948C0514
S113102008950F920F928FEB92E0EDB7FEB7928383
S113103081830E948A020F900F900E948C0508956C
S11310402DB73EB7285030400FB6F8943EBF0FBEC0
S11310502DBFEDB7FEB7319623ED32E0ADB7BEB785
S113106012963C932E9311979383828344835583E2
S1131070668377830E948A022DB73EB7285F3F4F6D
S11310800FB6F8943EBF0FBE2DBF0E948C05089585
S11310909093940A8093930A80E00895EF92FF92CC
S11310A00F931F93CF93DF93082F192FEB0100D0D9
S11310B00F928FEE92E0ADB7BEB712969C938E93CB
S11310C0119714967C936E9313970E948A020F9043
S11310D00F900F900F900E94900699232CF01C16ED
S11310E01D060CF44AC057C00F920F928FEF92E086
S11310F0EDB7FEB7928381830E94C10188E193E03A
S1131100ADB7BEB712969C938E9311970E94C101FE
S113111080914204909143040F900F901816190681
S1131120ECF5C0E0D0E003E918E00F2EFBE1EF2E70
S1131130F3E0FF2EF02DF801EC0FFD1F808100D0AD
S11311400F92EDB7FEB73196ADB7BEB71296FC92CB
S1131150EE921197828313820E94C101219680919D
S11311604204909143040F900F900F900F90C81772
S1131170D9070CF38FEF9FEF13C0E02EF12E00E0A0
S113118010E0F70181917F010E9406020F5F1F4F5B
S11311900C171D07B1F70E94EF0602C08FEF9FEFF7
S11311A0DF91CF911F910F91FF90EF9008951092CE
S11311B04704109243041092420408950F920F9230
S11311C082E293E0ADB7BEB712969C938E931197CB
S11311D00E948A028FEF9FE3A2E081509040A040DA
S11311E0E1F700C000000F900F900E94440708959B
S11311F00F920F9284E393E0ADB7BEB712969C931F
S11312008E9311970E948A028FEF9FE7A4E081508A
S11312109040A040E1F700C000000F900F900E94A2
S1131220D70808958823E9F4442369F021B181E0C3
S113123090E0AC0102C0440F551F6A95E2F7BA0171
S1131240622B61B9089521B181E090E0AC0102C044
S1131250440F551F6A95E2F7BA016095622361B99C
S113126008958130E9F4442369F024B181E090E0E9
S1131270AC0102C0440F551F6A95E2F7BA01622B14
S113128064B9089524B181E090E0AC0102C0440F38
S1131290551F6A95E2F7BA016095622364B908950F
S11312A08230E9F4442369F027B181E090E0AC0195
S11312B002C0440F551F6A95E2F7BA01622B67B961
S11312C0089527B181E090E0AC0102C0440F551F9E
S11312D06A95E2F7BA016095622367B9089583308D
S11312E0E9F4442369F02AB181E090E0AC0102C042
S11312F0440F551F6A95E2F7BA01622B6AB9089543
S11313002AB181E090E0AC0102C0440F551F6A95F8
S1131310E2F7BA01609562236AB908958430E9F46A
S1131320442369F02DB181E090E0AC0102C0440F88
S1131330551F6A95E2F7BA01622B6DB908952DB174
S113134081E090E0AC0102C0440F551F6A95E2F7BA
S1131350BA01609562236DB908958530E9F4442398
S113136069F020B381E090E0AC0102C0440F551F46
S11313706A95E2F7BA01622B60BB089520B381E05D
S113138090E0AC0102C0440F551F6A95E2F7BA0120
S11313906095622360BB08958630E9F4442369F0C4
S11313A023B381E090E0AC0102C0440F551F6A955D
S11313B0E2F7BA01622B63BB089523B381E090E0A6
S11313C0AC0102C0440F551F6A95E2F7BA0160955B
S11313D0622363BB0895873009F5442379F0E1E083
S11313E0F1E0208181E090E0AC0102C0440F551F80
S11313F06A95E2F7BA01622B60830895E1E0F1E0B7
S1131400208181E090E0AC0102C0440F551F6A9531
S1131410E2F7BA016095622360830895893009F583
S1131420442379F0E4E0F1E0208181E090E0AC0134
S113143002C0440F551F6A95E2F7BA01622B60831C
S11314400895E4E0F1E0208181E090E0AC0102C085
S1131450440F551F6A95E2F7BA01609562236083D1
S113146008958A3009F5442379F0E7E0F1E020811A
S113147081E090E0AC0102C0440F551F6A95E2F789
S1131480BA01622B60830895E7E0F1E0208181E0F6
S113149090E0AC0102C0440F551F6A95E2F7BA010F
S11314A060956223608308958B3001F5442379F0BD
S11314B0EAE0F1E0208181E090E0AC0102C0440F59
S11314C0551F6A95E2F7BA01622B60830895EAE03A
S11314D0F1E0208181E090E0AC0102C0440F551F8F
S11314E06A95E2F7BA0160956223608308958823C0
S11314F0E9F4442369F022B181E090E0AC0102C038
S1131500440F551F6A95E2F7BA01622B62B9089538
S113151022B181E090E0AC0102C0440F551F6A95EE
S1131520E2F7BA016095622362B908958130E9F463
S1131530442369F025B181E090E0AC0102C0440F7E
S1131540551F6A95E2F7BA01622B65B9089525B172
S113155081E090E0AC0102C0440F551F6A95E2F7A8
S1131560BA016095622365B908958230E9F4442391
S113157069F028B181E090E0AC0102C0440F551F2E
S11315806A95E2F7BA01622B68B9089528B181E03F
S113159090E0AC0102C0440F551F6A95E2F7BA010E
S11315A06095622368B908958330E9F4442369F0AF
S11315B02BB181E090E0AC0102C0440F551F6A9545
S11315C0E2F7BA01622B6BB908952BB181E090E088
S11315D0AC0102C0440F551F6A95E2F7BA01609549
S11315E062236BB908958430E9F4442369F02EB181
S11315F081E090E0AC0102C0440F551F6A95E2F708
S1131600BA01622B6EB908952EB181E090E0AC016D
S113161002C0440F551F6A95E2F7BA016095622330
S11316206EB908958530E9F4442369F021B381E06B
S113163090E0AC0102C0440F551F6A95E2F7BA016D
S1131640622B61BB089521B381E090E0AC0102C03C
S1131650440F551F6A95E2F7BA016095622361BB96
S113166008958630E9F4442369F024B381E090E0DE
S1131670AC0102C0440F551F6A95E2F7BA01622B10
S113168064BB089524B381E090E0AC0102C0440F30
S1131690551F6A95E2F7BA016095622364BB089509
S11316A0873009F5442379F0E2E0F1E0208181E01C
S11316B090E0AC0102C0440F551F6A95E2F7BA01ED
S11316C0622B60830895E2E0F1E0208181E090E004
S11316D0AC0102C0440F551F6A95E2F7BA01609548
S11316E0622360830895893009F5442379F0E5E0A5
S11316F0F1E0208181E090E0AC0102C0440F551F6D
S11317006A95E2F7BA01622B60830895E5E0F1E09F
S1131710208181E090E0AC0102C0440F551F6A951E
S1131720E2F7BA0160956223608308958A3009F56F
S1131730442379F0E8E0F1E0208181E090E0AC011D
S113174002C0440F551F6A95E2F7BA01622B608309
S11317500895E8E0F1E0208181E090E0AC0102C06E
S1131760440F551F6A95E2F7BA01609562236083BE
S113177008958B3001F5442379F0EBE0F1E020810A
S113178081E090E0AC0102C0440F551F6A95E2F776
S1131790BA01622B60830895EBE0F1E0208181E0DF
S11317A090E0AC0102C0440F551F6A95E2F7BA01FC
S11317B06095622360830895882359F420B130E052
S11317C0C90102C0959587956A95E2F7982F9170A3
S11317D07BC0813059F423B130E0C90102C0959532
S11317E087956A95E2F7982F91706EC0823059F40C
S11317F026B130E0C90102C0959587956A95E2F754
S1131800982F917061C0833039F489B191E06817E1
S113181008F45AC090E058C0843059F42CB130E038
S1131820C90102C0959587956A95E2F7982F917042
S11318304BC0853051F48FB190E002C095958795E7
S11318406A95E2F7982F91703FC0863051F482B3C5
S113185090E002C0959587956A95E2F7982F91706C
S113186033C0873059F48091000190E002C095950F
S113187087956A95E2F7982F917026C0893059F4BC
S11318808091030190E002C0959587956A95E2F7EF
S1131890982F917019C08A3059F48091060190E014
S11318A002C0959587956A95E2F7982F91700CC0C0
S11318B08B3051F48091090190E002C09595879591
S11318C06A95E2F7982F9170892F90E0089585E04A
S11318D085BD8FE686BDEEE6F0E080818160808381
S11318E0A89A0895DC01CB018093490490934A049B
S11318F0A0934B04B0934C0410924D0410924E04E8
S113190010924F0410925004089580914804882343
S113191021F01092480481E0089580E00895813018
S1131920910581F400D00F928BE393E0EDB7FEB7FD
S113193092838183748363830E94C1010F900F900B
S11319400F900F900895CF93DF93CDB7DEB7C050BB
S1131950D1400FB6F894DEBF0FBECDBF0E94AA01DE
S11319600E94630278940F920F9285E493E0ADB7DE
S1131970BEB712969C938E9311970E94C1018FEF6C
S11319809FEFACE281509040A040E1F700C000001E
S11319900F900F900E94D7080E94F8080E94D70861
S11319A08FE89CE00E9448080E94DE080E94D70845
S11319B00E94F3070E9411080F920F9287E593E0AB
S11319C0ADB7BEB712969C938E9311970E94C10136
S11319D00F900F900E94BB070F920F928CE693E03A
S11319E0EDB7FEB7928381830E94C1010F900F90DF
S11319F08FE693E069E773E00E94D507882379F4C2
S1131A000F920F9283E893E0ADB7BEB712969C9302
S1131A108E9311970E94C1010F900F900CC00F92EA
S1131A200F9283E993E0EDB7FEB7928381830E941E
S1131A30C1010F900F900F920F9289EA93E0ADB716
S1131A40BEB712969C938E9311970E94C1010F907A
S1131A500F900E9402080F920F928CE693E0EDB76C
S1131A60FEB7928381830E94C1010F900F9082EC94
S1131A7093E041E553EC60E070E00E942008882385
S1131A8079F40F920F928FEC93E0ADB7BEB7129634
S1131A909C938E9311970E94C1010F900F900CC0DC
S1131AA00F920F9283EE93E0EDB7FEB7928381839A
S1131AB00E94C1010F900F900F920F928CE693E059
S1131AC0ADB7BEB712969C938E9311970E94C10135
S1131AD0DE011196EDEFF3E087E101900D92815064
S1131AE0E1F70F900F90CE01019667E170E00E943C
S1131AF04E080E94670C64E670E080E090E00E946B
S1131B00720C0F920F9284E194E0EDB7FEB79283CA
S1131B1081830E94C1010F900F900E941B0181E0FC
S1131B200E9496000E9410017894CC24DD247E014A
S1131B300894E11CF11C0F2EF1E2AF2EF4E0BF2E4D
S1131B40F02D0F2EF5E38F2EF4E09F2EF02D8091D3
S1131B503E0490913F048130910551F410923F046A
S1131B6010923E040E94A100909352048093510469
S1131B702091510430915204C90188559240883211
S1131B80910558F481E090E060E80E94360180E01D
S1131B9090E060E00E94360105C1C9018053924083
S1131BA08832910558F481E090E060EC0E9436019F
S1131BB080E090E060E00E943601F4C0C9018850E2
S1131BC092408832910558F481E090E060EE0E94E2
S1131BD0360180E090E060E00E943601E3C0C90174
S1131BE0805E91408832910558F481E090E060EF86
S1131BF00E94360180E090E060E00E943601D2C08D
S1131C00C901885B91408832910558F481E090E0E5
S1131C1068EF0E94360180E090E060E00E943601A7
S1131C20C1C0C901805991408832910558F481E0BE
S1131C3090E06CEF0E94360180E090E060E00E944A
S1131C403601B0C0C901885691408832910558F4D4
S1131C5081E090E06EEF0E94360180E090E060E069
S1131C600E9436019FC0C901805491408832910579
S1131C7058F481E090E06FEF0E94360180E090E03C
S1131C8060E00E9436018EC0C901885191408832BB
S1131C90910558F481E090E06FEF0E94360180E0F6
S1131CA090E060E80E9436017DC0C901805F9040E9
S1131CB08832910558F481E090E06FEF0E9436017C
S1131CC080E090E060EC0E9436016CC0C901885C41
S1131CD090408832910558F481E090E06FEF0E94C3
S1131CE0360180E090E060EE0E9436015BC0C901DD
S1131CF0805A90408832910558F481E090E06FEF6B
S1131D000E94360180E090E060EF0E9436014AC0F4
S1131D10C901885790408832910558F481E090E0D9
S1131D206FEF0E94360180E090E068EF0E94360178
S1131D3039C0C901805590408832910558F481E03A
S1131D4090E06FEF0E94360180E090E06CEF0E941B
S1131D50360128C0C90188978832910558F481E07A
S1131D6090E06FEF0E94360180E090E06EEF0E94F9
S1131D70360118C02832310558F481E090E06FEF45
S1131D800E94360180E090E06FEF0E9436010AC0A5
S1131D9081E090E060E00E94360180E090E060E045
S1131DA00E9436010E9444050E94850C882309F490
S1131DB0CECE86010F5F1F4F8DB79EB708970FB623
S1131DC0F8949EBF0FBE8DBFEDB7FEB73196ADB789
S1131DD0BEB71296FC92EE921197B382A282D5827C
S1131DE0C4828091510490915204978386830E9407
S1131DF05E0FF70101900020E9F7BF0161507040C8
S1131E006E197F098DB79EB708960FB6F8949EBFDA
S1131E100FBE8DBFC7010E944E0800D00F92ADB710
S1131E20BEB712969C928E9211971496FC92EE92E3
S1131E3013970E94C1010F900F900F900F906801AB
S1131E4086CEFC0188279927E89421912032E9F372
S1131E50293010F02E30C8F32B3241F02D3239F4F2
S1131E60689404C00E94560F820F911D2191205343
S1131E702A30C0F31EF4909581959F4F0895FB017D
S1131E80DC0102C001900D9241505040D8F70895F2
S1131E90FB01DC014150504030F08D9101908019DC
S1131EA019F40020B9F7881B990B08957AE0979FDD
S1131EB0902D879F802D910D112408950F931F93CA
S1131EC0CF93DF93CDB7DEB72E970FB6F894DEBF6E
S1131ED00FBECDBF0E891F8986E08C831A830983C8
S1131EE08FEF9FE79E838D83AE01465E5F4FCE01E9
S1131EF00196688D798D0E94B60FEF81F885E00F09
S1131F00F11F10822E960FB6F894DEBF0FBECDBF20
S1131F10DF91CF911F910F9108950F931F93CF934A
S1131F20DF93CDB7DEB72E970FB6F894DEBF0FBEA2
S1131F30CDBF8C0186E08C831A8309838FEF9FE7E2
S1131F409E838D83CE0101960E94B60FEF81F885A2
S1131F50E00FF11F10822E960FB6F894DEBF0FBE6D
S1131F60CDBFDF91CF911F910F9108952F923F9292
S1131F704F925F926F927F928F929F92AF92BF9295
S1131F80CF92DF92EF92FF920F931F93CF93DF9341
S1131F90CDB7DEB72D970FB6F894DEBF0FBECDBF19
S1131FA03C017D876C875A01FC011782168283816C
S1131FB081FFC8C12E010894411C511CF301938177
S1131FC0EC85FD8593FD859193FF8191FD87EC87D9
S1131FD0882309F4B3C1853241F493FD859193FFBD
S1131FE08191FD87EC87853229F490E0B3010E944A
S1131FF0D311E4CFFF24EE2410E01032B0F48B327E
S113200069F08C3228F4803251F0833271F40BC0C1
S11320108D3239F0803349F411602CC012601460A1
S113202029C0186027C0106125C017FD2EC0282FB5
S113203020532A3098F416FF08C08F2D880FF82EED
S1132040FF0CFF0CF80EF20E15C08E2D880FE82E33
S1132050EE0CEE0CE80EE20E10620CC08E3221F48F
S113206016FD6CC1106406C08C3611F4106802C0F1
S1132070883659F4EC85FD8593FD859193FF819114
S1132080FD87EC87882309F0B8CF982F95549330B7
S113209018F09052933038F424E030E0A20EB31ECE
S11320A03FE339830FC0833631F0833781F08335C2
S11320B009F05AC022C0F5018081898322E030E012
S11320C0A20EB31E21E0C22ED12C420114C092E014
S11320D0292E312C2A0C3B1CF5018080918016FF9F
S11320E003C06F2D70E002C06FEF7FEFC4010E9448
S11320F0C8116C0151011F7715C082E0282E312CC4
S11321002A0C3B1CF5018080918016FF03C06F2DC3
S113211070E002C06FEF7FEFC4010E94BD116C013B
S11321201068510113FD1CC006C080E290E0B301A9
S11321300E94D311EA948E2D90E0C816D906A8F314
S11321400FC0F40117FD859117FF81914F0190E0B5
S1132150B3010E94D311E110EA940894C108D10894
S1132160C114D10471F7E7C0843611F0893651F5F2
S1132170F50117FF07C080819181A281B38124E01A
S113218030E008C080819181AA2797FDA095BA2FDD
S113219022E030E0A20EB31E012F0F76B7FF08C075
S11321A0B095A095909581959F4FAF4FBF4F006814
S11321B0BC01CD01A2012AE030E00E94FF11D82E1B
S11321C0D4183FC0853721F41F7E2AE030E020C0B8
S11321D0197F8F36A9F0803720F4883509F0AEC016
S11321E00BC0803721F0883709F0A8C001C0106106
S11321F014FF09C0146007C014FF08C0166006C0AD
S113220028E030E005C020E130E002C020E132E007
S1132210F50117FF07C0608171818281938144E0D9
S113222050E006C06081718180E090E042E050E0BF
S1132230A40EB51EA2010E94FF11D82ED418012F9E
S11322400F7706FF09C00E7FDF1430F404FF06C0C9
S113225002FD04C00F7E02C01D2D01C01F2D802F62
S113226090E004FF0CC0FE01ED0DF11D2081203330
S113227011F4097E09C002FF06C01E5F05C08678FE
S11322809070009709F01F5F802E992403FD12C0FF
S113229000FF0DC0FD2C1E1550F4FE0CF11A1E2D6E
S11322A006C080E290E0B3010E94D3111F5F1E15A7
S11322B0C0F304C01E1510F4E11A01C0EE2484FE1C
S11322C00FC080E390E0B3010E94D31182FE1FC0CF
S11322D081FE03C088E590E010C088E790E00DC05F
S11322E0C40186789070009791F081FC02C080E26E
S11322F001C08BE207FD8DE290E0B3010E94D3118F
S113230006C080E390E0B3010E94D311FA94DF1475
S1132310C0F3DA94F201ED0DF11D808190E0B30178
S11323200E94D311DD20A9F706C080E290E0B3013A
S11323300E94D311EA94EE20C1F740CEF3018681C6
S1132340978102C08FEF9FEF2D960FB6F894DEBFF2
S11323500FBECDBFDF91CF911F910F91FF90EF90F2
S1132360DF90CF90BF90AF909F908F907F906F90B1
S11323705F904F903F902F900895FC01059061501D
S113238070400110D8F7809590958E0F9F1F089587
S1132390FC016150704001900110D8F78095909530
S11323A08E0F9F1F08950F931F93CF93DF938C017C
S11323B0EB018B8181FF1BC082FF0DC02E813F8109
S11323C08C819D812817390764F4E881F981019390
S11323D0F983E88306C0E885F985802F199500976D
S11323E031F48E819F8101969F838E8302C00FEF0B
S11323F01FEFC801DF91CF911F910F910895FA014A
S1132400AA27283051F1203181F1E8946F936E7F2F
S11324106E5F7F4F8F4F9F4FAF4FB1E03ED0B4E020
S11324203CD0670F781F891F9A1FA11D680F791F61
S11324308A1F911DA11D6A0F711D811D911DA11D72
S113244020D009F468943F912AE0269F1124301982
S1132450305D3193DEF6CF010895462F4770405D1D
S11324604193B3E00FD0C9F7F6CF462F4F70405DCC
S11324704A3318F0495D31FD4052419302D0A9F727
S1132480EACFB4E0A6959795879577956795BA9521
S1132490C9F700976105710508959B01AC010A2EE7
S11324A006945795479537952795BA95C9F7620FBE
S11124B0731F841F951FA01D0895F894FFCF7D
S11324BE4F4B0053454E44204F4B002B4950442C58
S11324CE004552524F52004641494C00414C524530
S11324DE41445900627573792E2E2E00414C52459B
S11324EE4159005761697453656E6452656164792C
S11324FE576974686F75745072696E7420636F7562
S113250E6E746572206572720D0A00576169744F9C
S113251E4B576974686F75745072696E7420636F6B
S113252E756E746572206572720D0A0041542B43E8
S113253E574C41500D0A0041542B43574A41505FAA
S113254E4445463D222573222C222573220D0A0072
S113255E41542B43574D4F44453D330D0A004154CE
S113256E2B4349505354415F4355523F0D0A00418A
S113257E542B4357444843505F4355523D312C31FD
S113258E0D0A0041542B43495053544152543D2299
S113259E544350222C222573222C25750D0A0041FA
S11325AE542B43495053454E443D25640D0A007740
S11325BE69666953656E64446174612077616974F8
S11325CE20657272202D3000263A005B2530325879
S11325DE5D0041542B43574155544F434F4E4E3D8E
S11325EE300D0A00415445300D0A000D0A52583A76
S11325FE25730D0A007769666920746573742073F8
S113260E746172740D0A000D0A4150206C69737462
S113261E20646973706C61793A0D0A000D0A0043E7
S113262E534E45542D3330310067776E75636F6D9D
S113263E736500415020636F6E6E65637465642E1E
S113264E0D0A00415020636F6E6E656374696F6E80
S113265E206661696C2E0D0A000D0A20416C6C6FA8
S113266E6361746564206C6F63616C2049503A0D2C
S113267E0A003139322E3136382E312E333300439F
S113268E6F6E6E6563746564205365727665722E23
S113269E0D0A0053657276657220636F6E6E656304
S11326AE74696F6E206661696C2E0D0A0074657311
S11326BE74206D736573736167653A2068656C6C1D
S11326CE6F0D0A007374617274204C6F6F700D0A73
S11326DE0068656C6C6F3A256420434453203A209D
S11126EE25640D0A0054583A25730D0A0000A5
S9030000FC
