S010000057696669546573742E73726563E5
S11300000C9472000C9494000C9494000C9494003E
S11300100C9494000C9494000C9494000C9494000C
S11300200C9494000C9494000C9494000C949400FC
S11300300C9494000C9494000C9494000C949400EC
S11300400C9494000C9494000C9494000C949400DC
S11300500C9494000C9494000C9494000C94B000B0
S11300600C9494000C94A6010C9494000C949400A9
S11300700C9494000C9494000C9494000C949400AC
S11300800C9494000C9494000C9494000C9494009C
S11300900C9494000C9494000C9494000C9494008C
S11300A00C9494000C9494000C9494000C9494007C
S11300B00C9494000C9494000C9494000C9494006C
S11300C00C9494000C9494000C9494000C941801D7
S11300D00C9494000C9494000C9494000C9494004C
S11300E00C94940011241FBECFEFD1E2DEBFCDBF2C
S11300F000E00CBF14E0A0E0B2E0E4EFF9E200E0BD
S11301000BBF02C007900D92A035B107D9F71BBEF3
S11301101AE0A0E5B4E001C01D92A83BB107E1F7E5
S11301200E94A90E0C94F8140C940000806C809327
S11301307C00EAE7F0E087EA808380818064808342
S11301400895EAE7F0E0808184FFFDCF8091780094
S113015090917900392F20E090E0822B932B089521
S11301601F920F920FB60F9211244F935F936F93C8
S11301707F938F939F93AF93BF93F8948FE686BD3D
S113018080915F0490916004A0916104B091620435
S11301900196A11DB11D80935F0490936004A09308
S11301A06104B093620440915F04509160046091D3
S11301B061047091620480915B0490915C04A0914D
S11301C05D04B0915E04481759076A077B0758F02D
S11301D081E080935A0410925F041092600410929C
S11301E06104109262047894809152048F5F80932A
S11301F05204843641F41092520481E090E09093CA
S1130200510480935004BF91AF919F918F917F913E
S11302106F915F914F910F900FBE0F901F901895A3
S1130220E0EDF0E0908195FFFDCF8093D600089536
S11302301F920F920FB60F920BB60F9211248F9349
S11302409F93EF93FF93909153048091D600E5E63A
S1130250F4E0E90FF11D8083809153048F5F809354
S1130260530480915304803410F010925304FF918E
S1130270EF919F918F910F900BBE0F900FBE0F9037
S11302801F901895E1E0F1E080818C7F8083E2E0AB
S1130290F1E0808180831092D00088E98093D100BE
S11302A086E08093D2001092D50087E08093D4003A
S11302B008950F931F93CF93DF93CDB7DEB7C05844
S11302C0D0400FB6F894DEBF0FBECDBFFE01E85795
S11302D0FF4F61917191CE0101964E2F5F2F0E94C5
S11302E028128981882351F08E010E5F1F4F0E94CE
S11302F01001F80181918F018823C9F7C058DF4F9D
S11303000FB6F894DEBF0FBECDBFDF91CF911F9122
S11303100F91089580915304882379F080915304B8
S1130320882349F080E090E001962091530430E066
S113033082179307CCF3109253040895E0ECF0E095
S1130340908195FFFDCF8093C60008951F920F9270
S11303500FB60F920BB60F9211248F939F93EF93C6
S1130360FF93909159048091C600E5EAF6E0E90F05
S1130370F11D8083809159048F5F8093590480918B
S11303805904FF91EF919F918F910F900BBE0F90A5
S11303900FBE0F901F90189556985E9889E999E5BD
S11303A0A1E081509040A040E1F70000569A8FEF01
S11303B09FE3A2E081509040A040E1F700C000001C
S11303C056985E9A8FEF9FEFA9E581509040A04028
S11303D0E1F700C000000895882311F05F9A01C07E
S11303E05F988FEF9FEFA8E081509040A040E1F725
S11303F000C0000008958DB18C7F8DB98EB18EB987
S11304001092C00088E98093C10086E08093C20006
S11304101092C50087E08093C400579A5F9A0E94A7
S1130420CC018FEF9FE7A4E081509040A040E1F71A
S113043000C0000081E00E94EC011092A60A109214
S1130440A50A08950F931F93CF93DF93CDB7DEB71B
S1130450C058D0400FB6F894DEBF0FBECDBFFE012A
S1130460E857FF4F61917191CE0101964E2F5F2F96
S11304700E9428128981882351F08E010E5F1F4F3C
S11304800E949E01F80181918F018823C9F7C05809
S1130490DF4F0FB6F894DEBF0FBECDBFDF91CF9113
S11304A01F910F9108958F929F92AF92BF92CF9216
S11304B0DF92EF92FF920F931F93CF93DF93CDB709
S11304C0DEB72A970FB6F894DEBF0FBECDBF6C011E
S11304D07B01161617060CF076C0FC0180818A3366
S11304E0C1F0319680E090E003C021912A3331F0CD
S11304F001968E159F05C9F781E06EC0FFEF8F3F0F
S11305009F0709F462C05C018C3091050CF05FC058
S113051002C0AA24BB24850105501040B6016B5FBC
S11305207F4FCE010196402F512F0E94DA11E1E056
S1130530F0E0EC0FFD1FE00FF11F1082CE010196D9
S11305400E94BC11AC01009709F443C0EA18FB08EF
S11305508701015010400817190734F5C7010196A7
S113056084179507C1F590935804809357040F2E70
S1130570F5EA8F2EF4E09F2EF02DB5016F5F7F4FCB
S11305806C0D7D1D882D992D402F512F0E94DA115D
S1130590F401E00FF11F8DE08083F401EE0DFF1DE7
S11305A08AE0808380E018C09093580480935704B5
S11305B085EA94E0B5016F5F7F4F6C0D7D1D0E944D
S11305C0DA1180E009C081E007C081E005C082E063
S11305D003C082E001C081E02A960FB6F894DEBF22
S11305E00FBECDBFDF91CF911F910F91FF90EF9080
S11305F0DF90CF90BF90AF909F908F9008950F930E
S11306001F93CF93DF93EC018B0160E072E042E033
S113061050E00E94E311282F392F2115310509F4E8
S11306206AC088818E3309F468C0073011056CF004
S1130630CE0163E072E047E050E00E94E311282F0E
S1130640392F2115310509F45AC004301105C4F0BD
S1130650CE016BE072E044E050E00E94E311282FE9
S1130660392F2115310561F4CE01B8010E945302DE
S1130670882309F446C0813009F045C084E04EC0A7
S11306800530110564F0CE0161E172E045E050E00F
S11306900E94E311282F392F21153105B1F10430BF
S11306A0110564F0CE0167E172E045E050E00E947C
S11306B0E311282F392F2115310549F10730110590
S11306C044F1CE016CE172E047E050E00E94E31196
S11306D0282F392F21153105F1F0CE0164E272E0A3
S11306E047E050E00E94E311282F392F21153105EE
S11306F0A1F489E013C082E011C088E00FC081E05A
S11307000DC083E00BC080E009C085E007C086E02F
S113071005C08AE003C087E001C080E0DF91CF918B
S11307201F910F9108952F923F924F925F926F9273
S11307307F928F929F92AF92BF92CF92DF92EF926D
S1130740FF920F931F93CF93DF93CDB7DEB7C250C1
S1130750D2400FB6F894DEBF0FBECDBF3C01C62E0B
S113076080915904882309F40BC120915904809184
S1130770540490915504820F911D22E08030920719
S113078044F0109255041092540410925604DD243F
S1130790F8C04091590485EA98E065EA76E050E0B3
S11307A00E94DA11209159048091540490915504C7
S11307B0820F911D90935504809354041092590410
S11307C0DD24AA24BB2488248A94982C0F2EF5EACD
S11307D0EF2EF8E0FF2EF02DCF5FDD4FE882C15001
S11307E0D240CE5FDD4FF882C250D2400F2EF7EADE
S11307F04F2EF8E05F2EF02D0F2EFEEF2F2EFFEF81
S11308003F2EF02D240C351C8091540490915504F6
S1130810181619060CF09BC08501B4018FEF6F3FC9
S1130820780709F483C0F701E00FF11F80818A3053
S113083009F083C0CB0101968017910709F07DC0B0
S11308408130910519F5409154045091550442505A
S11308505040CE010196642D752D0E94DA1140910D
S113086054045091550442505040822D932DBE01A2
S11308706F5F7F4F0E94DA11809154049091550468
S113088002979093550480935404BECFCF5FDD4FFD
S11308908881C150D240CE5FDD4F9881C250D24092
S11308A00E94FF02DC1428F4F301ED0DF11D808396
S11308B0D3942091540430915504C80101968217B1
S11308C0930719F4109256045CC0B8016A55774F27
S11308D04091540450915504401B510B41505040D9
S11308E0CE0101960E94DA114091540450915504AE
S11308F0401B510B415050408E2D9F2DBE016F5F08
S11309007F4F0E94DA112091540430915504C8019C
S113091080959095820F931F90935504809354046F
S11309202FEF0F3F120709F06FCF11C0F701E00F4F
S1130930F11F80818D3009F4B8010F5F1F4F809142
S1130940540490915504081719070CF467CF81E0FB
S113095080935604609154047091550485EA98E09C
S11309600E94FF028A3031F0843021F01092550445
S113097010925404F301ED0DF11D8083D39401C052
S1130980DD248D2DCE5FDD4F0FB6F894DEBF0FBE94
S1130990CDBFDF91CF911F910F91FF90EF90DF902A
S11309A0CF90BF90AF909F908F907F906F905F900B
S11309B04F903F902F900895CF93DF9300D00F92E4
S11309C0CDB7DEB78091570490915804009799F001
S11309D0E091A50AF091A60A309749F04091570496
S11309E05091580481E090E065EA74E01995109202
S11309F0580410925704809159048823F1F0CE01D1
S1130A00019664E00E9493038091570490915804E6
S1130A10009799F0E091A50AF091A60A309749F061
S1130A20409157045091580481E090E065EA74E0E5
S1130A30199510925804109257040F900F900F902C
S1130A400F90DF91CF9108952F923F924F925F9232
S1130A506F927F928F929F92AF92BF92CF92DF92CA
S1130A60EF92FF920F931F93CF93DF93CDB7DEB72F
S1130A70C050D2400FB6F894DEBF0FBECDBFEE24F7
S1130A80FF240F2EF5EAAF2EF6E0BF2EF02D0F2E29
S1130A90F1E12F2EF2E03F2EF02D0F2EF0E06F2E1D
S1130AA0F2E07F2EF02D0F2EFBE04F2EF2E05F2EB2
S1130AB0F02D809159048823E1F38091590488230F
S1130AC009F4A9C0CC24DD248824992485010C0DC3
S1130AD01D1DF8018081E1E0F0E0EC0FFD1FEE0D3B
S1130AE0FF1D80830894E11CF11CF80180810E94A1
S1130AF01001F80180818A3009F083C0F4E0EF1618
S1130B00F1040CF479C0CE010196B30142E050E047
S1130B100E94E311282F392F2115310529F4109251
S1130B20590480E090E07AC0CE010196B20144E01D
S1130B3050E00E94E311282F392F2115310529F4A3
S1130B40109259048FEF9FEF69C087E0E816F10413
S1130B508CF0CE010196B10145E050E00E94E31112
S1130B60282F392F2115310529F4109259048FEFBC
S1130B709FEF54C0E6E0EE16F10494F0CE01019626
S1130B8067E172E045E050E00E94E311282F392F1D
S1130B902115310529F4109259048FEF9FEF3EC0BF
S1130BA0F7E0EF16F10494F0CE0101966CE272E0E6
S1130BB045E050E00E94E311282F392F211531051B
S1130BC029F41092590480E090E028C089E0E816E6
S1130BD0F104A4F0CE01019663E072E047E050E036
S1130BE00E94E311282F392F2115310549F4109261
S1130BF0590480E090E012C0740103C0740101C084
S1130C0074010894C11CD11C8091590490E0C81649
S1130C10D9060CF45BCF109259044BCFC050DE4F71
S1130C200FB6F894DEBF0FBECDBFDF91CF911F91F9
S1130C300F91FF90EF90DF90CF90BF90AF909F9077
S1130C408F907F906F905F904F903F902F9008957A
S1130C50CF92DF92FF920F931F93CF93DF9300D035
S1130C600F92CDB7DEB70F2EF5E6CF2EDD24F02D93
S1130C7000E0FF2411E0CE01019664E00E9493039A
S1130C808823A1F0FE0131969F01280F311DC9016F
S1130C902191283029F0223029F0253021F426C072
S1130CA0012F01C0F12EE817F90791F7002311F085
S1130CB0FF20F9F40894C108D108C114D10479F4CF
S1130CC00F920F9283E392E0EDB7FEB79283818394
S1130CD00E9459010F900F908FEF9FEF0CC08FEF80
S1130CE09FE80197F1F700C00000C5CF8FEF9FEF99
S1130CF002C080E090E00F900F900F900F90DF9172
S1130D00CF911F910F91FF90DF90CF9008950F9393
S1130D101F93CF93DF9300D00F92CDB7DEB705E6D4
S1130D2010E0CE01019664E00E9493038823B9F099
S1130D309981913069F1953071F1FE01329621E08B
S1130D4030E02C0F3D1F280F311DC90105C0219132
S1130D50213021F1253029F1E817F907C1F70150B5
S1130D60104079F40F920F928BE592E0EDB7FEB745
S1130D70928381830E9459010F900F908FEF9FEF10
S1130D8012C08FEF9FE80197F1F700C00000C9CFB0
S1130D9080E090E008C08FEF9FEF05C080E090E016
S1130DA002C08FEF9FEF0F900F900F900F90DF9185
S1130DB0CF911F910F910895CF92DF92EF92FF92FE
S1130DC00F931F93CF93DF93CDB7DEB7C050D140BD
S1130DD00FB6F894DEBF0FBECDBFDD2440E050E077
S1130DE0BE016F5F7F4FEE24FF2405EA16E0CC249A
S1130DF0C394809159048823E1F380915904882392
S1130E00C1F3DB01A40FB51F9701F801E20FF31F33
S1130E1080818D9380818A3039F5DD2021F1CE01E6
S1130E20039660E072E042E050E00E94E311282F54
S1130E30392F2115310529F41092590480E090E0EE
S1130E4022C0CE01039661E172E045E050E00E94C9
S1130E50E311282F392F2115310599F410925904E3
S1130E608FEF9FEF10C0DC2CAD01461B570B2F5F9B
S1130E703F4F8091590490E0281739070CF0B9CFFF
S1130E80C4CF8FEF9FEFC050DF4F0FB6F894DEBF93
S1130E900FBECDBFDF91CF911F910F91FF90EF90C7
S1130EA0DF90CF9008950F920F928CE792E0ADB748
S1130EB0BEB712969C938E9311970E9422028FEFD5
S1130EC09FEFA9E581509040A040E1F700C00000E9
S1130ED00F900F900E942405089500D000D0EDB724
S1130EE0FEB7319627E832E0ADB7BEB712963C9311
S1130EF02E93119793838283758364830E942202C5
S1130F008DB79EB706960FB6F8949EBF0FBE8DBFE1
S1130F100E94240508950F920F9280EA92E0EDB7A3
S1130F20FEB7928381830E9422020F900F900E9449
S1130F30240508950F920F928EEA92E0EDB7FEB762
S1130F40928381830E9422020F900F900E942405B5
S1130F5008950F920F928FEB92E0EDB7FEB7928354
S1130F6081830E9422020F900F900E94240508950D
S1130F702DB73EB7285030400FB6F8943EBF0FBE91
S1130F802DBFEDB7FEB7319623ED32E0ADB7BEB756
S1130F9012963C932E9311979383828344835583B3
S1130FA0668377830E9422022DB73EB7285F3F4FA6
S1130FB00FB6F8943EBF0FBE2DBF0E9424050895BE
S1130FC09093A60A8093A50A80E00895EF92FF9279
S1130FD00F931F93CF93DF93082F192FEB0100D0AA
S1130FE00F928FEE92E0ADB7BEB712969C938E939C
S1130FF0119714967C936E9313970E9422020F907C
S11310000F900F900F900E94280699232CF01C1625
S11310101D060CF44AC057C00F920F928FEF92E056
S1131020EDB7FEB7928381830E94590188E193E072
S1131030ADB7BEB712969C938E9311970E94590137
S113104080915404909155040F900F90181619062E
S1131050ECF5C0E0D0E005EA18E00F2EFBE1EF2E3E
S1131060F3E0FF2EF02DF801EC0FFD1F808100D07E
S11310700F92EDB7FEB73196ADB7BEB71296FC929C
S1131080EE921197828313820E94590121968091D6
S11310905404909155040F900F900F900F90C8171F
S11310A0D9070CF38FEF9FEF13C0E02EF12E00E071
S11310B010E0F70181917F010E949E010F5F1F4F95
S11310C00C171D07B1F70E94870602C08FEF9FEF30
S11310D0DF91CF911F910F91FF90EF90089510929F
S11310E05904109255041092540408950F920F92CB
S11310F082E293E0ADB7BEB712969C938E9311979C
S11311000E9422028FEF9FE3A2E081509040A04012
S1131110E1F700C000000F900F900E94DC060895D4
S11311200F920F9284E393E0ADB7BEB712969C93EF
S11311308E9311970E9422028FEF9FE7A4E08150C3
S11311409040A040E1F700C000000F900F900E9473
S11311506F0808958823E9F4442369F021B181E0FC
S113116090E0AC0102C0440F551F6A95E2F7BA0142
S1131170622B61B9089521B181E090E0AC0102C015
S1131180440F551F6A95E2F7BA016095622361B96D
S113119008958130E9F4442369F024B181E090E0BA
S11311A0AC0102C0440F551F6A95E2F7BA01622BE5
S11311B064B9089524B181E090E0AC0102C0440F09
S11311C0551F6A95E2F7BA016095622364B90895E0
S11311D08230E9F4442369F027B181E090E0AC0166
S11311E002C0440F551F6A95E2F7BA01622B67B932
S11311F0089527B181E090E0AC0102C0440F551F6F
S11312006A95E2F7BA016095622367B9089583305D
S1131210E9F4442369F02AB181E090E0AC0102C012
S1131220440F551F6A95E2F7BA01622B6AB9089513
S11312302AB181E090E0AC0102C0440F551F6A95C9
S1131240E2F7BA01609562236AB908958430E9F43B
S1131250442369F02DB181E090E0AC0102C0440F59
S1131260551F6A95E2F7BA01622B6DB908952DB145
S113127081E090E0AC0102C0440F551F6A95E2F78B
S1131280BA01609562236DB908958530E9F4442369
S113129069F020B381E090E0AC0102C0440F551F17
S11312A06A95E2F7BA01622B60BB089520B381E02E
S11312B090E0AC0102C0440F551F6A95E2F7BA01F1
S11312C06095622360BB08958630E9F4442369F095
S11312D023B381E090E0AC0102C0440F551F6A952E
S11312E0E2F7BA01622B63BB089523B381E090E077
S11312F0AC0102C0440F551F6A95E2F7BA0160952C
S1131300622363BB0895873009F5442379F0E1E053
S1131310F1E0208181E090E0AC0102C0440F551F50
S11313206A95E2F7BA01622B60830895E1E0F1E087
S1131330208181E090E0AC0102C0440F551F6A9502
S1131340E2F7BA016095622360830895893009F554
S1131350442379F0E4E0F1E0208181E090E0AC0105
S113136002C0440F551F6A95E2F7BA01622B6083ED
S11313700895E4E0F1E0208181E090E0AC0102C056
S1131380440F551F6A95E2F7BA01609562236083A2
S113139008958A3009F5442379F0E7E0F1E02081EB
S11313A081E090E0AC0102C0440F551F6A95E2F75A
S11313B0BA01622B60830895E7E0F1E0208181E0C7
S11313C090E0AC0102C0440F551F6A95E2F7BA01E0
S11313D060956223608308958B3001F5442379F08E
S11313E0EAE0F1E0208181E090E0AC0102C0440F2A
S11313F0551F6A95E2F7BA01622B60830895EAE00B
S1131400F1E0208181E090E0AC0102C0440F551F5F
S11314106A95E2F7BA016095622360830895882390
S1131420E9F4442369F022B181E090E0AC0102C008
S1131430440F551F6A95E2F7BA01622B62B9089509
S113144022B181E090E0AC0102C0440F551F6A95BF
S1131450E2F7BA016095622362B908958130E9F434
S1131460442369F025B181E090E0AC0102C0440F4F
S1131470551F6A95E2F7BA01622B65B9089525B143
S113148081E090E0AC0102C0440F551F6A95E2F779
S1131490BA016095622365B908958230E9F4442362
S11314A069F028B181E090E0AC0102C0440F551FFF
S11314B06A95E2F7BA01622B68B9089528B181E010
S11314C090E0AC0102C0440F551F6A95E2F7BA01DF
S11314D06095622368B908958330E9F4442369F080
S11314E02BB181E090E0AC0102C0440F551F6A9516
S11314F0E2F7BA01622B6BB908952BB181E090E059
S1131500AC0102C0440F551F6A95E2F7BA01609519
S113151062236BB908958430E9F4442369F02EB151
S113152081E090E0AC0102C0440F551F6A95E2F7D8
S1131530BA01622B6EB908952EB181E090E0AC013E
S113154002C0440F551F6A95E2F7BA016095622301
S11315506EB908958530E9F4442369F021B381E03C
S113156090E0AC0102C0440F551F6A95E2F7BA013E
S1131570622B61BB089521B381E090E0AC0102C00D
S1131580440F551F6A95E2F7BA016095622361BB67
S113159008958630E9F4442369F024B381E090E0AF
S11315A0AC0102C0440F551F6A95E2F7BA01622BE1
S11315B064BB089524B381E090E0AC0102C0440F01
S11315C0551F6A95E2F7BA016095622364BB0895DA
S11315D0873009F5442379F0E2E0F1E0208181E0ED
S11315E090E0AC0102C0440F551F6A95E2F7BA01BE
S11315F0622B60830895E2E0F1E0208181E090E0D5
S1131600AC0102C0440F551F6A95E2F7BA01609518
S1131610622360830895893009F5442379F0E5E075
S1131620F1E0208181E090E0AC0102C0440F551F3D
S11316306A95E2F7BA01622B60830895E5E0F1E070
S1131640208181E090E0AC0102C0440F551F6A95EF
S1131650E2F7BA0160956223608308958A3009F540
S1131660442379F0E8E0F1E0208181E090E0AC01EE
S113167002C0440F551F6A95E2F7BA01622B6083DA
S11316800895E8E0F1E0208181E090E0AC0102C03F
S1131690440F551F6A95E2F7BA016095622360838F
S11316A008958B3001F5442379F0EBE0F1E02081DB
S11316B081E090E0AC0102C0440F551F6A95E2F747
S11316C0BA01622B60830895EBE0F1E0208181E0B0
S11316D090E0AC0102C0440F551F6A95E2F7BA01CD
S11316E06095622360830895882359F420B130E023
S11316F0C90102C0959587956A95E2F7982F917074
S11317007BC0813059F423B130E0C90102C0959502
S113171087956A95E2F7982F91706EC0823059F4DC
S113172026B130E0C90102C0959587956A95E2F724
S1131730982F917061C0833039F489B191E06817B2
S113174008F45AC090E058C0843059F42CB130E009
S1131750C90102C0959587956A95E2F7982F917013
S11317604BC0853051F48FB190E002C095958795B8
S11317706A95E2F7982F91703FC0863051F482B396
S113178090E002C0959587956A95E2F7982F91703D
S113179033C0873059F48091000190E002C09595E0
S11317A087956A95E2F7982F917026C0893059F48D
S11317B08091030190E002C0959587956A95E2F7C0
S11317C0982F917019C08A3059F48091060190E0E5
S11317D002C0959587956A95E2F7982F91700CC091
S11317E08B3051F48091090190E002C09595879562
S11317F06A95E2F7982F9170892F90E0089585E01B
S113180061E040E00E94AA08089585E061E041E0BB
S11318100E94AA08089585E061E00E94740B08956F
S113182085E061E040E00E940F0A089585E060E0F1
S113183041E00E940F0A089585E060E040E00E94C4
S11318400F0A089585E061E041E00E940F0A0895BF
S11318500E94220C0E941C0C000000000E94160C26
S1131860000000000E94100C000000000E941C0CEC
S1131870000000000E94160C000000000E94220CD0
S1131880000000000E941C0C0895CF930E94220CBB
S11318900E941C0CC9E00E94160C0E941C0CC15032
S11318A0D1F70E94280CCF9108950E94050C85E081
S11318B060E041E00E94AA080E94450C08950F933D
S11318C01F93CF93DF93082F0E94050CC8E0D0E04C
S11318D010E8812F802319F00E94220C02C00E947C
S11318E0100C0E94160C000000000E941C0C16959F
S11318F0219779F70E94220C0E94FF0B0000000040
S11319000E94160C0E940B0CC82F0E941C0C0E94F3
S1131910050C8C2FDF91CF911F910F910895FF92A9
S11319200F931F93CF93DF93F82E0E94FF0B0E9417
S1131930220C00000000C8E0D0E000E010E80E94A3
S1131940160C000000000E940B0C009709F0012BFC
S11319500E941C0C000000001695219781F70E943C
S1131960050CFF2019F00E94100C02C00E94220CEA
S11319700E94160C000000000E941C0C00000000D5
S11319800E94220C802FDF91CF911F910F91FF9025
S11319900895EF92FF920F931F93CF937C018B01D5
S11319A0C42F0E94280CCC2319F0C13059F405C06F
S11319B083E00E945F0C90E007C085E00E945F0C0A
S11319C090E002C080E090E00097E9F40E94FF0BF1
S11319D00E940B0C0097E1F70E94FF0B81E00E942C
S11319E08F0CC82F81E00E948F0C3C2F20E0280F21
S11319F0311DF7013183208380E00E948F0CF801B0
S1131A008083118280E0CF911F910F91FF90EF901E
S1131A1008952F923F924F925F926F927F928F928E
S1131A209F92AF92BF92CF92DF92EF92FF920F9369
S1131A301F93CF93DF930F920F92CDB7DEB78B0135
S1131A40BC0180E090E00E94A310C62ED72EF82E91
S1131A50E92EB80180E090E00E94A3102AE037ED5F
S1131A6043E25CE30E94591120E030E040E252E49A
S1131A700E940E1020E030E040EA50E40E940E1074
S1131A80362E272E89839A83382F292F862F922D3D
S1131A90A32FB22FBC01CD0120E030E048EC51E48B
S1131AA00E940E104B015C018C2D9D2DAF2DBE2D7F
S1131AB0BC01CD012CEA35EC47EA58E30E945911E8
S1131AC02AE037ED43E25CE30E940F109B01AC0176
S1131AD0C501B4010E9459112B013C018C2D9D2D8F
S1131AE0AF2DBE2DBC01CD0122EA37EE4BE356EB00
S1131AF00E9459110C2D1D2D2F2D3E2DA901980149
S1131B000E9459114B015C01802F912FAF2DBE2DE6
S1131B10BC01CD0124E533EE45E25DE30E94591199
S1131B209B01AC01C501B4010E940F1020E030E01C
S1131B3040E850E40E940E109B01AC01C301B201C5
S1131B400E940F10F62E072F482E892EE62E172FEF
S1131B50D82EC92E862F902FA42DB82DBC01CD01CF
S1131B6020E030E048EC52E40E94551118167CF055
S1131B708F2D902FA42DB82DBC01CD012DEC3CEC64
S1131B804CEC5DE30E947310882364F018C0EE24CB
S1131B9010E00F2EF8ECDF2EF02D0F2EF2E4CF2EF6
S1131BA0F02D0DC00F2EFDECEF2EF02D1CEC0F2EA2
S1131BB0FCECDF2EF02D0F2EFDE3CF2EF02D39811E
S1131BC02A81832D922DA32FB22FBC01CD0120E0B9
S1131BD030E040E251E40E9459110E947710DC0188
S1131BE0CB019093AA0A8093A90A8E2D912FAD2D33
S1131BF0BC2DBC01CD0120E030E040E251E40E9464
S1131C0059110E947710DC01CB019093AC0A8093A8
S1131C10AB0A0F900F90DF91CF911F910F91FF901E
S1131C20EF90DF90CF90BF90AF909F908F907F9078
S1131C306F905F904F903F902F900895CF93DF93D4
S1131C408093B10A1092B00A1092AF0AC2EBDAE0A4
S1131C5087EA9AE0BE0141E00E94C90C2091AF0AD4
S1131C603091B00A280F311D3093B00A2093AF0A87
S1131C708DEA9AE0BE0140E00E94C90C2091AF0AAF
S1131C803091B00A280F311D3093B00A2093AF0A67
S1131C902115310519F00E94450C0AC06091AD0A66
S1131CA07091AE0A8091A70A9091A80A0E94090D2A
S1131CB08091B10A813029F48091AB0A9091AC0AE9
S1131CC009C0882329F48091A90A9091AA0A02C024
S1131CD080E090E0DF91CF91089585E085BD8FE6A7
S1131CE086BDEEE6F0E0808181608083A89A089545
S1131CF0DC01CB0180935B0490935C04A0935D04AE
S1131D00B0935E0410925F04109260041092610418
S1131D1010926204089580915A04882321F010924D
S1131D205A0481E0089580E008958130910581F49A
S1131D3000D00F928BE393E0EDB7FEB792838183DB
S1131D40748363830E9459010F900F900F900F903A
S1131D500895CF93DF93CDB7DEB7C050D1400FB60F
S1131D60F894DEBF0FBECDBF0E9442010E94FB016A
S1131D7078940F920F9285E493E0ADB7BEB71296B4
S1131D809C938E9311970E9459018FEF9FEFACE2C1
S1131D9081509040A040E1F700C000000F900F90E8
S1131DA00E946F080E9490080E946F0885E99EE0D7
S1131DB00E94E0070E9476080E946F080E948B0729
S1131DC00E94A9070F920F9287E593E0ADB7BEB7C3
S1131DD012969C938E9311970E9459010F900F9025
S1131DE00E9453070F920F928CE693E0EDB7FEB773
S1131DF0928381830E9459010F900F908FE693E0A4
S1131E0069E773E00E946D07882379F40F920F92BB
S1131E1083E893E0ADB7BEB712969C938E93119767
S1131E200E9459010F900F900CC00F920F9283E9FA
S1131E3093E0EDB7FEB7928381830E9459010F901E
S1131E400F900F920F9289EA93E0ADB7BEB7129646
S1131E509C938E9311970E9459010F900F900E94AA
S1131E609A070F920F928CE693E0EDB7FEB7928338
S1131E7081830E9459010F900F9082EC93E041E519
S1131E8053EC60E070E00E94B807882379F40F9265
S1131E900F928FEC93E0ADB7BEB712969C938E93DE
S1131EA011970E9459010F900F900CC00F920F923E
S1131EB083EE93E0EDB7FEB7928381830E945901CC
S1131EC00F900F900F920F928CE693E0ADB7BEB7D0
S1131ED012969C938E9311970E945901DE011196DC
S1131EE0EDEFF3E087E101900D928150E1F70F905F
S1131EF00F90CE01019667E170E00E94E6070E9410
S1131F006D0E64E670E080E090E00E94780E0F921F
S1131F100F9284E194E0EDB7FEB7928381830E942F
S1131F20590178940F900F90EE24FF248E010F5FD7
S1131F301F4F0F2EF1E2AF2EF4E0BF2EF02D0F2E27
S1131F40F8E48F2EF4E09F2EF02D80E00E941E0E08
S1131F509093B70A8093B60A81E00E941E0E909374
S1131F60B50A8093B40A0E94DC040E948B0E882375
S1131F7061F367010894C11CD11C2091B60A309109
S1131F80B70A4091B40A5091B50A8DB79EB70C9721
S1131F900FB6F8949EBF0FBE8DBFEDB7FEB7319656
S1131FA0ADB7BEB712961C930E931197B382A2825B
S1131FB0F582E4828091630490916404978386831C
S1131FC031872087538742870E94F911F8010190D5
S1131FD00020E9F7BF0161507040601B710B8DB7A1
S1131FE09EB70C960FB6F8949EBF0FBE8DBFC80166
S1131FF00E94E60700D00F92ADB7BEB712969C922E
S11320008E92119714961C930E9313970E94590164
S11320100F900F900F900F90760197CF5058BB27D9
S1132020AA270ED008C1F9D030F0FED020F031F448
S11320309F3F11F41EF4EEC00EF4E095E7FBE4C0FC
S1132040E92F0AD180F3BA1762077307840795074B
S113205018F071F49EF522C10EF4E0950B2EBA2F00
S1132060A02D0B01B90190010C01CA01A00111249A
S1132070FF27591B99F0593F50F4503E68F11A1646
S1132080F040A22F232F342F4427585FF3CF4695D7
S113209037952795A795F0405395C9F77EF41F16F9
S11320A0BA0B620B730B840BBAF09150A1F0FF0FC3
S11320B0BB1F661F771F881FC2F70EC0BA0F621FAF
S11320C0731F841F48F4879577956795B795F7959F
S11320D09E3F08F0B3CF9395880F08F09927EE0F31
S11320E09795879508956CD008F481E00895BCD045
S11320F088F09F5790F0B92F9927B751A0F0D1F0ED
S1132100660F771F881F991F1AF0BA95C9F712C076
S1132110B13081F0C3D0B1E00895C0C0672F782FEB
S11321208827B85F39F0B93FCCF3869577956795E2
S1132130B395D9F73EF490958095709561957F4F4E
S11321408F4F9F4F0895E89409C097FB3EF49095F4
S11321508095709561957F4F8F4F9F4F9923A9F07C
S1132160F92F96E9BB279395F6958795779567950B
S1132170B795F111F8CFFAF4BB0F11F460FF1BC04F
S11321806F5F7F4F8F4F9F4F16C0882311F096E9E2
S113219011C0772321F09EE8872F762F05C0662390
S11321A071F096E8862F70E060E02AF09A95660F49
S11321B0771F881FDAF7880F9695879597F9089502
S11321C0990F0008550FAA0BE0E8FEEF1616170644
S11321D0E807F907C0F012161306E407F50798F0AC
S11321E0621B730B840B950B39F40A2661F0232BC5
S11321F0242B252B21F408950A2609F4A140A69541
S11322008FEF811D811D089597F99F6780E870E025
S113221060E008959FEF80EC089500240A94161658
S1132220170618060906089500240A9412161306C0
S1132230140605060895092E0394000C11F488234E
S113224052F0BB0F40F4BF2B11F460FF04C06F5F6A
S11322507F4F8F4F9F4F089557FD9058440F551F40
S113226059F05F3F71F04795880F97FB991F61F014
S11322709F3F79F087950895121613061406551F8B
S1132280F2CF4695F1DF08C0161617061806991FF7
S1132290F1CF86957105610508940895E894BB27EC
S11322A066277727CB0197F908958ADF08F48FEF23
S11322B008950BD0C0CFB1DF28F0B6DF18F0952316
S11322C009F0A2CFA7CF1124EACFC6DFA0F3959FD0
S11322D0D1F3950F50E0551F629FF001729FBB2709
S11322E0F00DB11D639FAA27F00DB11DAA1F649FB5
S11322F06627B00DA11D661F829F2227B00DA11D68
S1132300621F739FB00DA11D621F839FA00D611DED
S1132310221F749F3327A00D611D231F849F600D0E
S1132320211D822F762F6A2F11249F5750408AF047
S1132330E1F088234AF0EE0FFF1FBB1F661F771FD3
S1132340881F91505040A9F79E3F510570F05CCF13
S1132350A6CF5F3FECF3983EDCF3869577956795BF
S1132360B795F795E7959F5FC1F7FE2B880F911DF1
S11323709695879597F90895FC0188279927E894FD
S113238021912032E9F3293010F02E30C8F32B329A
S113239041F02D3239F4689404C00E94F111820F87
S11323A0911D219120532A30C0F31EF490958195FC
S11323B09F4F0895FB01DC0102C001900D92415032
S11323C05040D8F70895FB01DC014150504030F0F3
S11323D08D910190801919F40020B9F7881B990B8D
S11323E008957AE0979F902D879F802D910D112459
S11323F008950F931F93CF93DF93CDB7DEB72E9736
S11324000FB6F894DEBF0FBECDBF0E891F8986E0DC
S11324108C831A8309838FEF9FE79E838D83AE019C
S1132420465E5F4FCE010196688D798D0E945112F0
S1132430EF81F885E00FF11F10822E960FB6F89405
S1132440DEBF0FBECDBFDF91CF911F910F910895D5
S11324500F931F93CF93DF93CDB7DEB72E970FB6AD
S1132460F894DEBF0FBECDBF8C0186E08C831A8347
S113247009838FEF9FE79E838D83CE0101960E948F
S11324805112EF81F885E00FF11F10822E960FB6DE
S1132490F894DEBF0FBECDBFDF91CF911F910F9196
S11324A008952F923F924F925F926F927F928F92F4
S11324B09F92AF92BF92CF92DF92EF92FF920F93CF
S11324C01F93CF93DF93CDB7DEB72D970FB6F89454
S11324D0DEBF0FBECDBF3C017D876C875A01FC0176
S11324E017821682838181FFC8C12E010894411C82
S11324F0511CF3019381EC85FD8593FD859193FF38
S11325008191FD87EC87882309F4B3C1853241F4B6
S113251093FD859193FF8191FD87EC87853229F4A2
S113252090E0B3010E946E14E4CFFF24EE2410E087
S11325301032B0F48B3269F08C3228F4803251F0CE
S1132540833271F40BC08D3239F0803349F4116059
S11325502CC01260146029C0186027C0106125C007
S113256017FD2EC0282F20532A3098F416FF08C0D8
S11325708F2D880FF82EFF0CFF0CF80EF20E15C0ED
S11325808E2D880FE82EEE0CEE0CE80EE20E106293
S11325900CC08E3221F416FD6CC1106406C08C365A
S11325A011F4106802C0883659F4EC85FD8593FD5A
S11325B0859193FF8191FD87EC87882309F0B8CF3B
S11325C0982F9554933018F09052933038F424E0B7
S11325D030E0A20EB31E3FE339830FC0833631F0DF
S11325E0833781F0833509F05AC022C0F501808118
S11325F0898322E030E0A20EB31E21E0C22ED12C4A
S1132600420114C092E0292E312C2A0C3B1CF50106
S11326108080918016FF03C06F2D70E002C06FEFC1
S11326207FEFC4010E9463146C0151011F7715C030
S113263082E0282E312C2A0C3B1CF50180809180ED
S113264016FF03C06F2D70E002C06FEF7FEFC4016F
S11326500E9458146C011068510113FD1CC006C07F
S113266080E290E0B3010E946E14EA948E2D90E013
S1132670C816D906A8F30FC0F40117FD859117FFFA
S113268081914F0190E0B3010E946E14E110EA942D
S11326900894C108D108C114D10471F7E7C0843685
S11326A011F0893651F5F50117FF07C0808191813A
S11326B0A281B38124E030E008C080819181AA27FF
S11326C097FDA095BA2F22E030E0A20EB31E012F91
S11326D00F76B7FF08C0B095A095909581959F4F50
S11326E0AF4FBF4F0068BC01CD01A2012AE030E02A
S11326F00E949A14D82ED4183FC0853721F41F7E27
S11327002AE030E020C0197F8F36A9F0803720F40A
S1132710883509F0AEC00BC0803721F0883709F046
S1132720A8C001C0106114FF09C0146007C014FFE1
S113273008C0166006C028E030E005C020E130E0A3
S113274002C020E132E0F50117FF07C0608171810A
S11327508281938144E050E006C06081718180E011
S113276090E042E050E0A40EB51EA2010E949A142B
S1132770D82ED418012F0F7706FF09C00E7FDF145F
S113278030F404FF06C002FD04C00F7E02C01D2DFC
S113279001C01F2D802F90E004FF0CC0FE01ED0D41
S11327A0F11D2081203311F4097E09C002FF06C007
S11327B01E5F05C086789070009709F01F5F802E19
S11327C0992403FD12C000FF0DC0FD2C1E1550F40A
S11327D0FE0CF11A1E2D06C080E290E0B3010E94A7
S11327E06E141F5F1E15C0F304C01E1510F4E11A09
S11327F001C0EE2484FE0FC080E390E0B3010E9488
S11328006E1482FE1FC081FE03C088E590E010C0F4
S113281088E790E00DC0C40186789070009791F02D
S113282081FC02C080E201C08BE207FD8DE290E0F2
S1132830B3010E946E1406C080E390E0B3010E94CD
S11328406E14FA94DF14C0F3DA94F201ED0DF11D65
S1132850808190E0B3010E946E14DD20A9F706C0C8
S113286080E290E0B3010E946E14EA94EE20C1F776
S113287040CEF3018681978102C08FEF9FEF2D96A2
S11328800FB6F894DEBF0FBECDBFDF91CF911F917D
S11328900F91FF90EF90DF90CF90BF90AF909F90FB
S11328A08F907F906F905F904F903F902F900895FE
S11328B0FC010590615070400110D8F78095909507
S11328C08E0F9F1F0895FC0161507040019001100C
S11328D0D8F7809590958E0F9F1F08950F931F939F
S11328E0CF93DF938C01EB018B8181FF1BC082FFAF
S11328F00DC02E813F818C819D812817390764F496
S1132900E881F9810193F983E88306C0E885F985B4
S1132910802F1995009731F48E819F8101969F83B2
S11329208E8302C00FEF1FEFC801DF91CF911F917B
S11329300F910895FA01AA27283051F1203181F12D
S1132940E8946F936E7F6E5F7F4F8F4F9F4FAF4FB3
S1132950B1E03ED0B4E03CD0670F781F891F9A1FC6
S1132960A11D680F791F8A1F911DA11D6A0F711D7A
S1132970811D911DA11D20D009F468943F912AE086
S1132980269F11243019305D3193DEF6CF0108956E
S1132990462F4770405D4193B3E00FD0C9F7F6CF9F
S11329A0462F4F70405D4A3318F0495D31FD405267
S11329B0419302D0A9F7EACFB4E0A69597958795FD
S11329C077956795BA95C9F70097610571050895DC
S11329D09B01AC010A2E0694579547953795279588
S11329E0BA95C9F7620F731F841F951FA01D089520
S10729F0F894FFCF85
S11329F44F4B0053454E44204F4B002B4950442C1D
S1132A04004552524F52004641494C00414C5245F4
S1132A1441445900627573792E2E2E00414C52455F
S1132A244159005761697453656E645265616479F0
S1132A34576974686F75745072696E7420636F7526
S1132A446E746572206572720D0A00576169744F61
S1132A544B576974686F75745072696E7420636F30
S1132A64756E746572206572720D0A0041542B43AD
S1132A74574C41500D0A0041542B43574A41505F6F
S1132A844445463D222573222C222573220D0A0037
S1132A9441542B43574D4F44453D330D0A00415493
S1132AA42B4349505354415F4355523F0D0A00414F
S1132AB4542B4357444843505F4355523D312C31C2
S1132AC40D0A0041542B43495053544152543D225E
S1132AD4544350222C222573222C25750D0A0041BF
S1132AE4542B43495053454E443D25640D0A007705
S1132AF469666953656E64446174612077616974BD
S1132B0420657272202D3000263A005B253032583D
S1132B145D0041542B43574155544F434F4E4E3D52
S1132B24300D0A00415445300D0A000D0A52583A3A
S1132B3425730D0A007769666920746573742073BC
S1132B44746172740D0A000D0A4150206C69737427
S1132B5420646973706C61793A0D0A000D0A0043AC
S1132B64534E45542D3330310067776E75636F6D62
S1132B74736500415020636F6E6E65637465642EE3
S1132B840D0A00415020636F6E6E656374696F6E45
S1132B94206661696C2E0D0A000D0A20416C6C6F6D
S1132BA46361746564206C6F63616C2049503A0DF1
S1132BB40A003139322E3136382E312E3333004364
S1132BC46F6E6E6563746564205365727665722EE8
S1132BD40D0A0053657276657220636F6E6E6563C9
S1132BE474696F6E206661696C2E0D0A00746573D6
S1132BF474206D736573736167653A2068656C6CE2
S1132C046F0D0A007374617274204C6F6F700D0A37
S1132C140068656C6C6F3A256420434453203A2061
S1132C2425642074656D70203A2025642068756DD0
S1132C3469203A2025640A0054583A25730D0A0081
S9030000FC
