:100000000C9472000C9494000C9494000C94940042
:100010000C9494000C9494000C9494000C94940010
:100020000C9494000C9494000C9494000C94940000
:100030000C9494000C9494000C9494000C949400F0
:100040000C9494000C9494000C9494000C949400E0
:100050000C9494000C9494000C9494000C94261826
:100060000C9494000C9435080C9494000C94940017
:100070000C9494000C9494000C9494000C949400B0
:100080000C9494000C9494000C9494000C949400A0
:100090000C9412060C9494000C9494000C9494000C
:1000A0000C9494000C9494000C9494000C94940080
:1000B0000C9494000C9494000C9494000C94940070
:1000C0000C9494000C9494000C9494000C94A70746
:1000D0000C9494000C9494000C9494000C94940050
:1000E0000C94940011241FBECFEFD1E2DEBFCDBF30
:1000F00000E00CBF15E0A0E0B2E0E8EBFAE300E0BE
:100100000BBF02C007900D92A43EB107D9F71BBEEA
:1001100010E1A4EEB5E001C01D92AD3AB107E1F7E0
:100120000E944F020C945A1D0C940000806C809326
:100130007C00EAE7F0E087EA808380818064808346
:100140000895EAE7F0E0808184FFFDCF8091780098
:1001500090917900392F20E090E0822B932B089525
:10016000EF92FF920F931F93CF93DF93CDB7DEB73C
:100170002C970FB6F894DEBF0FBECDBF813091052E
:1001800009F0E8C08A01222717FD2095322FCB0104
:10019000B901A8019E012F5F3F4F8E010B5F1F4FDA
:1001A0000F2EF9E0EF2EFF24F02DEC0EFD1E0E9425
:1001B00036158DB79EB70A970FB6F8949EBF0FBE3F
:1001C0008DBFEDB7FEB7319680E092E0ADB7BEB718
:1001D00012969C938E9311978D819E81AF81B885E5
:1001E00082839383A483B58389859A85AB85BC85F7
:1001F00086839783A087B1870E94E807EDB7FEB793
:100200003A960FB6F894FEBF0FBEEDBF89819A8172
:10021000AB81BC8184319105A105B105C1F1853166
:100220009105A105B10538F482319105A105B1050B
:1002300009F082C00DC085319105A105B10509F411
:1002400041C086319105A105B10509F075C059C0BD
:100250008D819E8190930D0680930C0680910C06F3
:1002600090910D0600D00F9226E132E0ADB7BEB7F7
:1002700012963C932E93119714969C938E931397FA
:100280000E94E8070F900F900F900F9063C08D8130
:100290009E819093090680930806809108069091AC
:1002A000090600D00F922AE232E0EDB7FEB73283A2
:1002B0002183948383830E94E8070F900F900F900F
:1002C0000F9048C08D819E8190930B0680930A0603
:1002D00080910A0690910B0600D00F922EE332E037
:1002E000ADB7BEB712963C932E93119714969C937C
:1002F0008E9313970E94E8070F900F900F900F9026
:1003000029C08D819E819093FB058093FA05809191
:10031000FA059091FB0500D00F9222E532E0EDB78F
:10032000FEB732832183948383830E94E8070F9072
:100330000F900F900F900EC00F920F9288E692E0F0
:10034000ADB7BEB712969C938E9311970E94E807A3
:100350000F900F902C960FB6F894DEBF0FBECDBF56
:10036000DF91CF911F910F91FF90EF900895CF9261
:10037000DF92EF92FF920F931F93CF93DF9300D002
:100380000F92CDB7DEB769018A01222717FD2095AC
:10039000322FEE24D7FCE094FE2CAE014F5F5F4F6E
:1003A0000E94E714009769F40F920F9282E892E09E
:1003B000EDB7FEB7928381830E94E8070F900F90FC
:1003C00015C02091F905222329F069817A810E94C4
:1003D000750E0CC00F920F9285EA92E0EDB7FEB752
:1003E000928381830E94E8070F900F900F900F90E7
:1003F0000F900F90DF91CF911F910F91FF90EF9091
:10040000DF90CF900895CF92DF92EF92FF920F93FB
:100410001F93CF93DF9300D00F92CDB7DEB7690162
:100420008A01222717FD2095322FEE24D7FCE09475
:10043000FE2CAE014F5F5F4F0E94E714009769F4F6
:100440000F920F928EEB92E0EDB7FEB7928381830D
:100450000E94E8070F900F9015C02091F905222304
:1004600029F069817A810E94750E0CC00F920F925B
:1004700085EA92E0EDB7FEB7928381830E94E80798
:100480000F900F900F900F900F900F90DF91CF91E2
:100490001F910F91FF90EF90DF90CF900895CF9331
:1004A000DF93CDB7DEB7C556D0400FB6F894DEBFA8
:1004B0000FBECDBF0E94D1070E948A080E94540639
:1004C00078940F920F928FED92E0ADB7BEB712966F
:1004D0009C938E9311970E94E8078FEF92E0EDB7FF
:1004E000FEB7928381830E9467068FEF9FEFACE295
:1004F00081509040A040E1F700C000000F900F90A5
:100500000E9498068FEF9FEFA3EB81509040A04090
:10051000E1F700C000000F920F9288E093E0ADB7C2
:10052000BEB712969C938E9311970E94E8078FEFA7
:100530009FEFACE281509040A040E1F700C0000086
:100540000F900F900E94FE0E0E941F0F0E94FE0E41
:1005500080EB90E00E946F0E0E94050F0E94FE0E3D
:100560000E941A0E0E94380E0F920F9285E193E0BE
:10057000ADB7BEB712969C938E9311970E94E80771
:100580000F900F900E94E20D0F920F928AE293E07B
:10059000EDB7FEB7928381830E94E8070F900F901A
:1005A0008DE293E066E373E00E94FC0D882379F40A
:1005B0000F920F9284E493E0ADB7BEB712969C936E
:1005C0008E9311970E94E8070F900F900CC00F9226
:1005D0000F9284E593E0EDB7FEB7928381830E948A
:1005E000E8070F900F900F920F928AE693E0ADB755
:1005F000BEB712969C938E9311970E94E8070F90B6
:100600000F900E94290E0F920F928AE293E0EDB7AD
:10061000FEB7928381830E94E8070F900F9083E8D2
:1006200093E041E553EC60E070E00E94470E8823C0
:1006300091F481E08093F9050F920F9282E993E0A3
:10064000ADB7BEB712969C938E9311970E94E807A0
:100650000F900F900EC01092F9050F920F9286EA3C
:1006600093E0EDB7FEB7928381830E94E8070F9075
:100670000F900F920F928AE293E0ADB7BEB7129639
:100680009C938E9311970E94E8070F900F900E9401
:10069000FE0EDE011196E2E3F4E08FE001900D9290
:1006A0008150E1F783E490E0998B888B1A8A00D01F
:1006B00000D0EDB7FEB7319681E0ADB7BEB7119669
:1006C0008C93CE0140969283818382E08383CE0116
:1006D00042969583848367E574E080E090E020E1B2
:1006E00030E040E050E00F2EF1E1EF2EF0E0FF2E81
:1006F000F0E00F2FF0E01F2FF02D6E010894C11CC9
:10070000D11CAA24882483940E94FF12A2966CAF65
:100710007DAF8EAF9FAFA297EDB7FEB736960FB6FF
:10072000F894FEBF0FBEEDBF0E941A16A2966CADE4
:100730007DAD8EAD9FADA29740E050E020E030E06F
:100740000E94B701FE017396A1E4B4E08EE00D9023
:1007500001928150E1F78CE495E7A8E7B0E089A326
:100760009AA3ABA3BCA31DA200D000D0EDB7FEB7E7
:10077000319681E0ADB7BEB711968C93CE018196CC
:100780009283818382E08383CE01859695838483DF
:1007900067E574E080E090E020E130E040E050E088
:1007A0000F2EF3E1EF2EF0E0FF2EF0E00F2FF0E040
:1007B0001F2FF02D0F2EF3E1CF2EDD24F02DCC0EC8
:1007C000DD1EAA24882483940E94FF12A6966CAF93
:1007D0007DAF8EAF9FAFA697EDB7FEB736960FB63B
:1007E000F894FEBF0FBEEDBF81E090E00E949C0731
:1007F000A6966CAD7DAD8EAD9FADA69740E050E066
:1008000020E030E00E94B7018FEF9FEFACE2815013
:100810009040A040E1F700C00000FE01B696AFE4B2
:10082000B4E08EE00D9001928150E1F7FE01F49664
:10083000ADE5B4E083E00D9001928150E1F71FAA8D
:1008400000D000D0EDB7FEB7319681E0ADB7BEB7AE
:1008500011968C93CE01C4969283818382E0838328
:10086000CE01C7969583848367E574E080E090E0CD
:1008700020E130E040E050E00F2EF2E1EF2EF0E01A
:10088000FF2EF0E00F2FF0E01F2FF02D0F2EF6E2DD
:10089000CF2EDD24F02DCC0EDD1EAA24A3948824B7
:1008A00083940E94FF126B017C0110920D0610923E
:1008B0000C06EDB7FEB736960FB6F894FEBF0FBE26
:1008C000EDBF0E94400FC701B60140E050E020E0BC
:1008D00030E00E940302FE01F896A0E6B4E08EE04C
:1008E0000D9001928150E1F7FE01EA5BFF4FADE50B
:1008F000B4E083E00D9001928150E1F79E01275B07
:100900003F4FD9011C9200D000D0EDB7FEB7319611
:1009100081E0ADB7BEB711968C93CE018A5B9F4F35
:100920009283818382E083833583248367E574E047
:1009300080E090E020E130E040E050E00F2EF4E174
:10094000EF2EF0E0FF2EF0E00F2FF0E01F2FF02D44
:100950000F2EF8E3CF2EDD24F02DCC0EDD1EAA24C1
:10096000A394882483940E94FF126B017C0110924F
:10097000090610920806EDB7FEB736960FB6F89442
:10098000FEBF0FBEEDBF85E090E060E070E00E942A
:10099000A412C701B60140E050E020E030E00E9420
:1009A0000302FE01E65BFF4FAEE6B4E080E10D908E
:1009B00001928150E1F7FE01E65AFF4FADE5B4E048
:1009C00083E00D9001928150E1F79E01235A3F4F41
:1009D000D9011C9200D000D0EDB7FEB7319681E06E
:1009E000ADB7BEB711968C93CE01865A9F4F9283B6
:1009F000818382E083833583248367E574E080E02C
:100A000090E020E130E040E050E00F2EF5E1EF2EE5
:100A1000F0E0FF2EF0E00F2FF0E01F2FF02D0F2E53
:100A2000FAE4CF2EDD24F02DCC0EDD1EAA24A394F3
:100A3000882483940E94FF126B017C0110920B06A4
:100A400010920A06EDB7FEB736960FB6F894FEBFC1
:100A50000FBEEDBF0E94EA12C701B60140E050E0B0
:100A600020E030E00E9403020E94771864E670E004
:100A700080E090E00E94821800D00F9280EC93E01A
:100A8000ADB7BEB712969C938E9311978CE390E00E
:100A900014969C938E9313970E94E8070F900F90E3
:100AA0000F900F900F2EF7EDCF2EF3E0DF2EF02DED
:100AB0000F2EF8EEAF2EF3E0BF2EF02D0F2EFAEF33
:100AC0008F2EF3E09F2EF02D0F2EFCE06F2EF4E022
:100AD0007F2EF02D0F2EFEE14F2EF4E05F2EF02D35
:100AE00080E00E94D717182F092F00D00F92EDB782
:100AF000FEB73196ADB7BEB71296DC92CE92119783
:100B0000828393830E94E8070F900F900F900F90BD
:100B10000E94A1007C0100D00F92EDB7FEB7B28217
:100B2000A182948383830E94E80780910C069091B0
:100B30000D06ADB7BEB712969C928E921197149681
:100B40009C938E9313970E94E80780910C069091D6
:100B50000D060F900F900F900F900E94390F80910B
:100B600008069091090600D00F92EDB7FEB7728289
:100B70006182948383830E94E80740910806509124
:100B800009060F900F900F900F9085E090E060E0C5
:100B900070E00E94B31280910A0690910B0600D07B
:100BA0000F92ADB7BEB712965C924E921197149603
:100BB0009C938E9313970E94E80780910A06909168
:100BC0000B0660910A0670910B060F900F900F9024
:100BD0000F900E94BE120E946B0B0E9495188823F2
:100BE00009F47ECFA2966CAD7DAD8EAD9FADA29780
:100BF000412F502F20E030E00E94B701A6966CAD47
:100C00007DAD8EAD9FADA697A70120E030E00E949C
:100C1000B70166CFE8ECF0E0908195FFFDCF8093BF
:100C2000CE0008951F920F920FB60F920BB60F923F
:100C300011248F939F93EF93FF939091E4058091FC
:100C4000CE00EEE0F6E0E90FF11D80838091E4052F
:100C50008F5F8093E4058091E405FF91EF919F9170
:100C60008F910F900BBE0F900FBE0F901F90189595
:100C70001092C80088E98093C90086E08093CA007A
:100C80001092CD0080E18093CC0008951092C800AE
:100C900088E98093C90086E08093CA001092CD0055
:100CA0008FE58093CC0008958AB1837F8AB98BB198
:100CB0008BB90E9446060E945B088FEF9FE7A4E075
:100CC00081509040A040E1F700C0000008950F93CC
:100CD0001F93CF93DF93CDB7DEB7C058D0400FB688
:100CE000F894DEBF0FBECDBFFE01E857FF4F619104
:100CF0007191CE0101964E2F5F2F0E948A1A898131
:100D0000882351F08E010E5F1F4F0E940A06F801E2
:100D100081918F018823C9F7C058DF4F0FB6F8942F
:100D2000DEBF0FBECDBFDF91CF911F910F91089510
:100D30006F927F928F929F92AF92BF92CF92DF92EB
:100D4000EF92FF920F931F93CF93DF938091E4056F
:100D5000882309F497C08091E405843108F492C097
:100D600080910E068F3409F070C080910F068B348D
:100D700009F06BC0809115068A3309F066C00F2E0A
:100D8000FCEFEF2EF5E0FF2EF02DC8E0D0E0CC24F4
:100D9000DD24C39400E010E00F2EFEE0AF2EF6E05D
:100DA000BF2EF02D0F2EF0E88F2EF4E09F2EF02DA9
:100DB0000F2EFEE76F2EF4E07F2EF02D09C00F5F9F
:100DC0001F4F0894C11CD11C21960894E11CF11CF2
:100DD00000FD0FC001151105D9F10F920F92ADB7AB
:100DE000BEB712967C926E9211970E94E8070F9000
:100DF0000F90F501EC0FFD1F8081F701808300D07B
:100E00000F92EDB7FEB73196ADB7BEB712969C9272
:100E10008E921197828313820E94E8070F900F90A1
:100E20000F900F90BCE0CB16D1044CF20F920F92B2
:100E300083E894E0EDB7FEB7928381830E94E807D0
:100E40001092E4050F900F901DC01092E4051AC097
:100E5000F501EC0FFD1F8081D7018C9300D00F921C
:100E6000EDB7FEB73196ADB7BEB712969C928E9293
:100E70001197828313820E94E8070F900F900F90C2
:100E80000F909DCFDF91CF911F910F91FF90EF9029
:100E9000DF90CF90BF90AF909F908F907F906F909A
:100EA0000895CF92DF92EF92FF920F931F93CF930B
:100EB000DF938091E4058823B1F18091E4058823D4
:100EC00081F100E010E00F2EFEE0EF2EF6E0FF2EA5
:100ED000F02D0F2EF8E8CF2EF4E0DF2EF02DE701F5
:100EE000C00FD11F88810E949F07888100D00F9278
:100EF000EDB7FEB73196ADB7BEB71296DC92CE9283
:100F00001197828313820E94E8070F5F1F4F809121
:100F1000E40590E00F900F900F900F9008171907BD
:100F2000F4F21092E405DF91CF911F910F91FF90A1
:100F3000EF90DF90CF9008950E9496000895E0ED25
:100F4000F0E0908195FFFDCF8093D60008951F9229
:100F50000F920FB60F920BB60F9211248F939F939F
:100F6000EF93FF939091E5058091D600EEE0F8E0D5
:100F7000E90FF11D80838091E5058F5F8093E50582
:100F80008091E505803410F01092E505FF91EF9116
:100F90009F918F910F900BBE0F900FBE0F901F90DF
:100FA0001895E1E0F1E080818C7F8083E2E0F1E060
:100FB000808180831092D00088E98093D10086E000
:100FC0008093D2001092D50087E08093D4000895DA
:100FD0000F931F93CF93DF93CDB7DEB7C058D040A8
:100FE0000FB6F894DEBF0FBECDBFFE01E857FF4F2E
:100FF00061917191CE0101964E2F5F2F0E948A1A46
:101000008981882351F08E010E5F1F4F0E949F0738
:10101000F80181918F018823C9F7C058DF4F0FB6BF
:10102000F894DEBF0FBECDBFDF91CF911F910F911E
:1010300008958091E505882379F08091E50588235E
:1010400049F080E090E001962091E50530E08217BC
:101050009307CCF31092E5050895E0ECF0E0908161
:1010600095FFFDCF8093C60008951F920F920FB693
:101070000F920BB60F9211248F939F93EF93FF93D0
:101080009091EB058091C600EEE4FAE0E90FF11DC6
:1010900080838091EB058F5F8093EB058091EB055A
:1010A000FF91EF919F918F910F900BBE0F900FBE0C
:1010B0000F901F90189556985E9889E999E5A1E0E0
:1010C00081509040A040E1F70000569A8FEF9FE3D7
:1010D000A2E081509040A040E1F700C00000569887
:1010E0005E9A8FEF9FEFA9E581509040A040E1F715
:1010F00000C000000895882311F05F9A01C05F9836
:101100008FEF9FEFA8E081509040A040E1F700C032
:10111000000008958DB18C7F8DB98EB18EB910927B
:10112000C00088E98093C10086E08093C2001092DD
:10113000C50087E08093C400579A5F9A0E945B08BD
:101140008FEF9FE7A4E081509040A040E1F700C0FE
:10115000000081E00E947B0810924F0E10924E0E0C
:1011600008950F931F93CF93DF93CDB7DEB7C05889
:10117000D0400FB6F894DEBF0FBECDBFFE01E857DA
:10118000FF4F61917191CE0101964E2F5F2F0E940A
:101190008A1A8981882351F08E010E5F1F4F0E94A9
:1011A0002D08F80181918F018823C9F7C058DF4FBE
:1011B0000FB6F894DEBF0FBECDBFDF91CF911F9168
:1011C0000F9108958F929F92AF92BF92CF92DF922C
:1011D000EF92FF920F931F93CF93DF93CDB7DEB7BC
:1011E0002A970FB6F894DEBF0FBECDBF6C017B010E
:1011F000161617060CF076C0FC0180818A33C1F008
:10120000319680E090E003C021912A3331F00196BD
:101210008E159F05C9F781E06EC0FFEF8F3F9F07D6
:1012200009F462C05C018C3091050CF05FC002C013
:10123000AA24BB24850105501040B6016B5F7F4F87
:10124000CE010196402F512F0E946B1AE1E0F0E091
:10125000EC0FFD1FE00FF11F1082CE0101960E94DE
:101260004D1AAC01009709F443C0EA18FB08870146
:10127000015010400817190734F5C701019684176B
:101280009507C1F59093EA058093E9050F2EFEE4DA
:101290008F2EF8E09F2EF02DB5016F5F7F4F6C0D04
:1012A0007D1D882D992D402F512F0E946B1AF4011E
:1012B000E00FF11F8DE08083F401EE0DFF1D8AE049
:1012C000808380E018C09093EA058093E9058EE45E
:1012D00098E0B5016F5F7F4F6C0D7D1D0E946B1A0A
:1012E00080E009C081E007C081E005C082E003C062
:1012F00082E001C081E02A960FB6F894DEBF0FBEEF
:10130000CDBFDF91CF911F910F91FF90EF90DF90B4
:10131000CF90BF90AF909F908F9008950F931F93A1
:10132000CF93DF93EC018B016FE874E042E050E073
:101330000E94741A282F392F2115310509F46AC02B
:1013400088818E3309F468C0073011056CF0CE0136
:1013500062E974E047E050E00E94741A282F392FA8
:101360002115310509F45AC004301105C4F0CE012D
:101370006AE974E044E050E00E94741A282F392F83
:101380002115310561F4CE01B8010E94E2088823DD
:1013900009F446C0813009F045C084E04EC00530F4
:1013A000110564F0CE0160EA74E045E050E00E946F
:1013B000741A282F392F21153105B1F10430110588
:1013C00064F0CE0166EA74E045E050E00E94741AD1
:1013D000282F392F2115310549F10730110544F126
:1013E000CE016BEA74E047E050E00E94741A282FA7
:1013F000392F21153105F1F0CE0163EB74E047E0A0
:1014000050E00E94741A282F392F21153105A1F4BC
:1014100089E013C082E011C088E00FC081E00DC0F8
:1014200083E00BC080E009C085E007C086E005C00E
:101430008AE003C087E001C080E0DF91CF911F9177
:101440000F9108952F923F924F925F926F927F92E9
:101450008F929F92AF92BF92CF92DF92EF92FF92C4
:101460000F931F93CF93DF93CDB7DEB7C250D24017
:101470000FB6F894DEBF0FBECDBF3C01C62E8091E3
:10148000EB05882309F40BC12091EB058091E6055B
:101490009091E705820F911D22E08030920744F081
:1014A0001092E7051092E6051092E805DD24F8C0D9
:1014B0004091EB058EE49CE06EE47AE050E00E94FF
:1014C0006B1A2091EB058091E6059091E705820F5C
:1014D000911D9093E7058093E6051092EB05DD24BE
:1014E000AA24BB2488248A94982C0F2EFEE4EF2E85
:1014F000FCE0FF2EF02DCF5FDD4FE882C150D240DF
:10150000CE5FDD4FF882C250D2400F2EF0E54F2E55
:10151000FCE05F2EF02D0F2EFEEF2F2EFFEF3F2E63
:10152000F02D240C351C8091E6059091E7051816E6
:1015300019060CF09BC08501B4018FEF6F3F78074F
:1015400009F483C0F701E00FF11F80818A3009F0B0
:1015500083C0CB0101968017910709F07DC08130CF
:10156000910519F54091E6055091E705425050402C
:10157000CE010196642D752D0E946B1A4091E605EF
:101580005091E70542505040822D932DBE016F5F70
:101590007F4F0E946B1A8091E6059091E7050297B4
:1015A0009093E7058093E605BECFCF5FDD4F88813E
:1015B000C150D240CE5FDD4F9881C250D2400E94D0
:1015C0008E09DC1428F4F301ED0DF11D8083D39412
:1015D0002091E6053091E705C8010196821793072F
:1015E00019F41092E8055CC0B801615B734F40913B
:1015F000E6055091E705401B510B41505040CE018C
:1016000001960E946B1A4091E6055091E705401B38
:10161000510B415050408E2D9F2DBE016F5F7F4F6B
:101620000E946B1A2091E6053091E705C80180956C
:101630009095820F931F9093E7058093E6052FEF17
:101640000F3F120709F06FCF11C0F701E00FF11F34
:1016500080818D3009F4B8010F5F1F4F8091E6053E
:101660009091E705081719070CF467CF81E0809384
:10167000E8056091E6057091E7058EE49CE00E9424
:101680008E098A3031F0843021F01092E7051092F3
:10169000E605F301ED0DF11D8083D39401C0DD2437
:1016A0008D2DCE5FDD4F0FB6F894DEBF0FBECDBFE0
:1016B000DF91CF911F910F91FF90EF90DF90CF902E
:1016C000BF90AF909F908F907F906F905F904F9062
:1016D0003F902F900895CF93DF9300D00F92CDB716
:1016E000DEB78091E9059091EA05009799F0E091C5
:1016F0004E0EF0914F0E309749F04091E905509110
:10170000EA0581E090E06EE478E019951092EA0530
:101710001092E9058091EB058823F1F0CE01019646
:1017200064E00E94220A8091E9059091EA05009701
:1017300099F0E0914E0EF0914F0E309749F04091A4
:10174000E9055091EA0581E090E06EE478E01995B2
:101750001092EA051092E9050F900F900F900F90EC
:10176000DF91CF9108952F923F924F925F926F92A7
:101770007F928F929F92AF92BF92CF92DF92EF9221
:10178000FF920F931F93CF93DF93CDB7DEB7C05077
:10179000D2400FB6F894DEBF0FBECDBFEE24FF24BB
:1017A0000F2EFEE4AF2EFAE0BF2EF02D0F2EF0EA42
:1017B0002F2EF4E03F2EF02D0F2EFFE86F2EF4E0D9
:1017C0007F2EF02D0F2EFAE94F2EF4E05F2EF02D34
:1017D0008091EB058823E1F38091EB05882309F4E0
:1017E000A9C0CC24DD248824992485010C0D1D1D5D
:1017F000F8018081E1E0F0E0EC0FFD1FEE0DFF1D30
:1018000080830894E11CF11CF80180810E949F07ED
:10181000F80180818A3009F083C0F4E0EF16F1040A
:101820000CF479C0CE010196B30142E050E00E9471
:10183000741A282F392F2115310529F41092EB0540
:1018400080E090E07AC0CE010196B20144E050E021
:101850000E94741A282F392F2115310529F410926E
:10186000EB058FEF9FEF69C087E0E816F1048CF07D
:10187000CE010196B10145E050E00E94741A282F74
:10188000392F2115310529F41092EB058FEF9FEFC9
:1018900054C0E6E0EE16F10494F0CE01019666EA3B
:1018A00074E045E050E00E94741A282F392F21156A
:1018B000310529F41092EB058FEF9FEF3EC0F7E062
:1018C000EF16F10494F0CE0101966BEB74E045E065
:1018D00050E00E94741A282F392F2115310529F460
:1018E0001092EB0580E090E028C089E0E816F10452
:1018F000A4F0CE01019662E974E047E050E00E9456
:10190000741A282F392F2115310549F41092EB054F
:1019100080E090E012C0740103C0740101C0740142
:101920000894C11CD11C8091EB0590E0C816D90623
:101930000CF45BCF1092EB054BCFC050DE4F0FB6CF
:10194000F894DEBF0FBECDBFDF91CF911F910F91F5
:10195000FF90EF90DF90CF90BF90AF909F908F90CF
:101960007F906F905F904F903F902F900895CF920F
:10197000DF92FF920F931F93CF93DF9300D00F92CC
:10198000CDB7DEB70F2EF5E6CF2EDD24F02D00E02B
:10199000FF2411E0CE01019664E00E94220A882310
:1019A000A1F0FE0131969F01280F311DC90121913F
:1019B000283029F0223029F0253021F426C0012FCB
:1019C00001C0F12EE817F90791F7002311F0FF206D
:1019D000F9F40894C108D108C114D10479F40F9224
:1019E0000F9282EC94E0EDB7FEB7928381830E9460
:1019F000E8070F900F908FEF9FEF0CC08FEF9FE8DD
:101A00000197F1F700C00000C5CF8FEF9FEF02C034
:101A100080E090E00F900F900F900F90DF91CF91AA
:101A20001F910F91FF90DF90CF9008950F931F9318
:101A3000CF93DF9300D00F92CDB7DEB705E610E06D
:101A4000CE01019664E00E94220A8823B9F09981B0
:101A5000913069F1953071F1FE01329621E030E06C
:101A60002C0F3D1F280F311DC90105C021912130C8
:101A700021F1253029F1E817F907C1F7015010408D
:101A800079F40F920F928AEE94E0EDB7FEB792834D
:101A900081830E94E8070F900F908FEF9FEF12C095
:101AA0008FEF9FE80197F1F700C00000C9CF80E0F9
:101AB00090E008C08FEF9FEF05C080E090E002C08B
:101AC0008FEF9FEF0F900F900F900F90DF91CF91BE
:101AD0001F910F910895CF92DF92EF92FF920F9393
:101AE0001F93CF93DF93CDB7DEB7C050D1400FB671
:101AF000F894DEBF0FBECDBFDD2440E050E0BE0154
:101B00006F5F7F4FEE24FF240EE41AE0CC24C394D1
:101B10008091EB058823E1F38091EB058823C1F3E5
:101B2000DB01A40FB51F9701F801E20FF31F8081BD
:101B30008D9380818A3039F5DD2021F1CE01039625
:101B40006FE874E042E050E00E94741A282F392FA9
:101B50002115310529F41092EB0580E090E022C0B8
:101B6000CE01039660EA74E045E050E00E94741AEA
:101B7000282F392F2115310599F41092EB058FEF9D
:101B80009FEF10C0DC2CAD01461B570B2F5F3F4F62
:101B90008091EB0590E0281739070CF0B9CFC4CF3E
:101BA0008FEF9FEFC050DF4F0FB6F894DEBF0FBE30
:101BB000CDBFDF91CF911F910F91FF90EF90DF90FC
:101BC000CF9008950F920F928BE095E0ADB7BEB71E
:101BD00012969C938E9311970E94B1088FEF9FEFFE
:101BE000A9E581509040A040E1F700C000000F90AF
:101BF0000F900E94B30B089500D000D0EDB7FEB750
:101C0000319626E135E0ADB7BEB712963C932E93E0
:101C1000119793838283758364830E94B1088DB783
:101C20009EB706960FB6F8949EBF0FBE8DBF0E945A
:101C3000B30B08950F920F928FE295E0EDB7FEB7C8
:101C4000928381830E94B1080F900F900E94B30B82
:101C500008950F920F928DE395E0EDB7FEB7928352
:101C600081830E94B1080F900F900E94B30B0895DA
:101C70000F920F928EE495E0EDB7FEB792838183C9
:101C80000E94B1080F900F900E94B30B08952DB7DA
:101C90003EB7285030400FB6F8943EBF0FBE2DBF60
:101CA000EDB7FEB7319622E635E0ADB7BEB7129676
:101CB0003C932E9311979383828344835583668349
:101CC00077830E94B1082DB73EB7285F3F4F0FB60C
:101CD000F8943EBF0FBE2DBF0E94B30B08959093A2
:101CE0004F0E80934E0E80E00895EF92FF920F9377
:101CF0001F93CF93DF93082F192FEB0100D00F9282
:101D00008EE795E0ADB7BEB712969C938E93119770
:101D100014967C936E9313970E94B1080F900F90C6
:101D20000F900F900E94B70C99232CF01C161D06E3
:101D30000CF44AC057C00F920F928EE895E0EDB7B1
:101D4000FEB7928381830E94E80787EA95E0ADB7EA
:101D5000BEB712969C938E9311970E94E8078091CC
:101D6000E6059091E7050F900F9018161906ECF50F
:101D7000C0E0D0E00EE41CE00F2EFAEAEF2EF5E012
:101D8000FF2EF02DF801EC0FFD1F808100D00F9287
:101D9000EDB7FEB73196ADB7BEB71296FC92EE9294
:101DA0001197828313820E94E80721968091E605AD
:101DB0009091E7050F900F900F900F90C817D907DB
:101DC0000CF38FEF9FEF13C0E02EF12E00E010E038
:101DD000F70181917F010E942D080F5F1F4F0C17A3
:101DE0001D07B1F70E94160D02C08FEF9FEFDF9124
:101DF000CF911F910F91FF90EF9008951092EB05F6
:101E00001092E7051092E60508950F920F9281EB6C
:101E100095E0ADB7BEB712969C938E9311970E9432
:101E2000B1088FEF9FE3A2E081509040A040E1F71E
:101E300000C000000F900F900E946B0D08950F924C
:101E40000F9283EC95E0ADB7BEB712969C938E933C
:101E500011970E94B1088FEF9FE7A4E08150904056
:101E6000A040E1F700C000000F900F900E94FE0E0E
:101E700008958130910511F4429A08954298089589
:101E80008AEC95E00E94E80787B18C6087B988B139
:101E9000837F88B980E090E00E94390F08958823FD
:101EA000E9F4442369F021B181E090E0AC0102C083
:101EB000440F551F6A95E2F7BA01622B61B9089584
:101EC00021B181E090E0AC0102C0440F551F6A953A
:101ED000E2F7BA016095622361B908958130E9F4AF
:101EE000442369F024B181E090E0AC0102C0440FCA
:101EF000551F6A95E2F7BA01622B64B9089524B1BF
:101F000081E090E0AC0102C0440F551F6A95E2F7F2
:101F1000BA016095622364B908958230E9F44423DC
:101F200069F027B181E090E0AC0102C0440F551F79
:101F30006A95E2F7BA01622B67B9089527B181E08B
:101F400090E0AC0102C0440F551F6A95E2F7BA0158
:101F50006095622367B908958330E9F4442369F0FA
:101F60002AB181E090E0AC0102C0440F551F6A9590
:101F7000E2F7BA01622B6AB908952AB181E090E0D4
:101F8000AC0102C0440F551F6A95E2F7BA01609593
:101F900062236AB908958430E9F4442369F02DB1CD
:101FA00081E090E0AC0102C0440F551F6A95E2F752
:101FB000BA01622B6DB908952DB181E090E0AC01BA
:101FC00002C0440F551F6A95E2F7BA01609562237B
:101FD0006DB908958530E9F4442369F020B381E0B8
:101FE00090E0AC0102C0440F551F6A95E2F7BA01B8
:101FF000622B60BB089520B381E090E0AC0102C089
:10200000440F551F6A95E2F7BA016095622360BBE1
:1020100008958630E9F4442369F023B381E090E029
:10202000AC0102C0440F551F6A95E2F7BA01622B5A
:1020300063BB089523B381E090E0AC0102C0440F7C
:10204000551F6A95E2F7BA016095622363BB089554
:10205000873009F5442379F0E1E0F1E0208181E067
:1020600090E0AC0102C0440F551F6A95E2F7BA0137
:10207000622B60830895E1E0F1E0208181E090E04F
:10208000AC0102C0440F551F6A95E2F7BA01609592
:10209000622360830895893009F5442379F0E4E0F0
:1020A000F1E0208181E090E0AC0102C0440F551FB7
:1020B0006A95E2F7BA01622B60830895E4E0F1E0EB
:1020C000208181E090E0AC0102C0440F551F6A9569
:1020D000E2F7BA0160956223608308958A3009F5BA
:1020E000442379F0E7E0F1E0208181E090E0AC0169
:1020F00002C0440F551F6A95E2F7BA01622B608354
:102100000895E7E0F1E0208181E090E0AC0102C0B9
:10211000440F551F6A95E2F7BA0160956223608308
:1021200008958B3001F5442379F0EAE0F1E0208155
:1021300081E090E0AC0102C0440F551F6A95E2F7C0
:10214000BA01622B60830895EAE0F1E0208181E02A
:1021500090E0AC0102C0440F551F6A95E2F7BA0146
:1021600060956223608308958823E9F4442369F02D
:1021700022B181E090E0AC0102C0440F551F6A9586
:10218000E2F7BA01622B62B9089522B181E090E0D2
:10219000AC0102C0440F551F6A95E2F7BA01609581
:1021A000622362B908958130E9F4442369F025B1CE
:1021B00081E090E0AC0102C0440F551F6A95E2F740
:1021C000BA01622B65B9089525B181E090E0AC01B8
:1021D00002C0440F551F6A95E2F7BA016095622369
:1021E00065B908958230E9F4442369F028B181E0AB
:1021F00090E0AC0102C0440F551F6A95E2F7BA01A6
:10220000622B68B9089528B181E090E0AC0102C06A
:10221000440F551F6A95E2F7BA016095622368B9C9
:1022200008958330E9F4442369F02BB181E090E014
:10223000AC0102C0440F551F6A95E2F7BA01622B48
:102240006BB908952BB181E090E0AC0102C0440F5E
:10225000551F6A95E2F7BA01609562236BB908953C
:102260008430E9F4442369F02EB181E090E0AC01C0
:1022700002C0440F551F6A95E2F7BA01622B6EB98E
:1022800008952EB181E090E0AC0102C0440F551FCB
:102290006A95E2F7BA01609562236EB908958530B8
:1022A000E9F4442369F021B381E090E0AC0102C07D
:1022B000440F551F6A95E2F7BA01622B61BB08957E
:1022C00021B381E090E0AC0102C0440F551F6A9534
:1022D000E2F7BA016095622361BB08958630E9F4A4
:1022E000442369F024B381E090E0AC0102C0440FC4
:1022F000551F6A95E2F7BA01622B64BB089524B3B7
:1023000081E090E0AC0102C0440F551F6A95E2F7EE
:10231000BA016095622364BB0895873009F54423B0
:1023200079F0E2E0F1E0208181E090E0AC0102C0D0
:10233000440F551F6A95E2F7BA01622B6083089536
:10234000E2E0F1E0208181E090E0AC0102C0440FC6
:10235000551F6A95E2F7BA0160956223608308957C
:10236000893009F5442379F0E5E0F1E0208181E04E
:1023700090E0AC0102C0440F551F6A95E2F7BA0124
:10238000622B60830895E5E0F1E0208181E090E038
:10239000AC0102C0440F551F6A95E2F7BA0160957F
:1023A0006223608308958A3009F5442379F0E8E0D8
:1023B000F1E0208181E090E0AC0102C0440F551FA4
:1023C0006A95E2F7BA01622B60830895E8E0F1E0D4
:1023D000208181E090E0AC0102C0440F551F6A9556
:1023E000E2F7BA0160956223608308958B3001F5AE
:1023F000442379F0EBE0F1E0208181E090E0AC0152
:1024000002C0440F551F6A95E2F7BA01622B608340
:102410000895EBE0F1E0208181E090E0AC0102C0A2
:10242000440F551F6A95E2F7BA01609562236083F5
:102430000895882359F420B130E0C90102C0959570
:1024400087956A95E2F7982F91707BC0813059F497
:1024500023B130E0C90102C0959587956A95E2F7EE
:10246000982F91706EC0823059F426B130E0C901C6
:1024700002C0959587956A95E2F7982F917061C093
:10248000833039F489B191E0681708F45AC090E0BC
:1024900058C0843059F42CB130E0C90102C0959580
:1024A00087956A95E2F7982F91704BC0853051F46B
:1024B0008FB190E002C0959587956A95E2F7982FC5
:1024C00091703FC0863051F482B390E002C0959580
:1024D00087956A95E2F7982F917033C0873059F449
:1024E0008091000190E002C0959587956A95E2F78A
:1024F000982F917026C0893059F48091030190E0A3
:1025000002C0959587956A95E2F7982F917019C04A
:102510008A3059F48091060190E002C09595879524
:102520006A95E2F7982F91700CC08B3051F480912E
:10253000090190E002C0959587956A95E2F7982F7A
:102540009170892F90E00895CF93DF93D82FC62FF5
:1025500041E00E944F0F8D2F6C2F40E00E94B4107D
:10256000DF91CF9108954115510521F041E00E947E
:10257000B410089540E00E94B41008958130910590
:10258000E1F46130710559F482E060E041E00E94BD
:10259000B41082E061E040E00E94B410089561153B
:1025A0007105B9F482E060E040E00E94B41082E07E
:1025B00061E041E00E94B4100895009751F482E078
:1025C00060E040E00E94B41082E061E040E00E94E0
:1025D000B410089582E060E041E00E944F0F82E075
:1025E00060E040E00E94B41082E061E041E00E94BF
:1025F0004F0F82E061E040E00E94B41008952F92F6
:102600003F924F925F926F927F928F92AF92CF9252
:10261000DF92EF92FF920F931F93CF93DF9300D03F
:102620000F92CDB7DEB72B013C01BA01A901809111
:10263000EC059091ED05A091EE05B091EF05883085
:102640009105A105B10508F0A2C18091EC0590911A
:10265000ED05A091EE05B091EF0589839A83AB83D8
:10266000BC8389819A810F2EFAE42F2E3324F02D1A
:10267000829D9001839D300D929D300D1124F901B2
:10268000E05BF14F8DEF80838EEF818380E1868365
:1026900083E490E0A0E0B0E082839383A483B583D9
:1026A00047A250A661A672A643875487658776879E
:1026B000E782F08601871287F901E558F14FABED0B
:1026C000B5E088E00D9001928150E1F7EC2DFD2DF1
:1026D000DF010D900020E9F71197AD014E1B5F0B54
:1026E0008AE490E0E981FA81E89F9001E99F300D4A
:1026F000F89F300D11242D59314F84E1D9011D92DD
:102700008A95E9F744315105B0F089819A812AE42C
:1027100030E0829FA001839F500D929F500D1124A5
:10272000FA01ED59F14FAC2DBD2D84E10D900192D0
:102730008150E1F712C08AE490E0E981FA81E89FD4
:102740009001E99F300DF89F300D1124C9018D597A
:10275000914F6C2D7D2D0E946B1A89819A812AE4FC
:1027600030E0829FA001839F500D929F500D112455
:10277000405B514FDA01D596AC92B2E0B81568F4DF
:10278000829FA001839F500D929F500D1124405BAA
:10279000514F82E0FA0186AB11C089819A812AE407
:1027A00030E0829FA001839F500D929F500D112415
:1027B000405B514FDA01D6968C92D69789819A81E7
:1027C0002AE430E0829FA001839F500D929F500D1C
:1027D0001124405B514FFA011786108A118A128A20
:1027E000882009F4B0C04AE450E0888D87AB698145
:1027F0007A81649FF001659FF00D749FF00D1124A4
:10280000E857F14F1082118212821382E98DFA8DFE
:10281000DF010D900020E9F71197AE1BBF0BA4302C
:10282000B105C8F089819A812AE430E0829FA00135
:10283000839F500D929F500D1124405B514FE98DA5
:10284000FA8D80819181A281B381FA0180AF91AF2D
:10285000A2AFB3AF14C08AE490E049815A81489F87
:102860009001499F300D589F300D1124C9018857A0
:10287000914F698D7A8D4A2F5B2F0E946B1A51E020
:10288000581508F060C089819A814AE450E0849F1D
:102890009001859F300D949F300D11242057314FAA
:1028A0008B8DD9018C9369817A81649FF001659F3A
:1028B000F00D749FF00D1124EF56F14F108211822C
:1028C00012821382E98DFA8DDF010D900020E9F765
:1028D0001197AE1BBF0BA430B105C8F029813A8116
:1028E0008AE490E0289FA001299F500D389F500D49
:1028F00011244F56514FEC8DFD8D80819181A28125
:10290000B381FA0180839183A283B3831CC02AE43C
:1029100030E049815A81429FC001439F900D529FF0
:10292000900D11248F56914FEC8DFD8DDF010D9090
:102930000020E9F7AD01415050404E1B5F0B6E2F58
:102940007F2F0E946B1A49815A812AE430E0429F0E
:10295000C001439F900D529F900D11248756914FB7
:102960002FEFFC0120838091EC059091ED05A09163
:10297000EE05B091EF050196A11DB11D8093EC0508
:102980009093ED05A093EE05B093EF0507C04FEFD0
:102990005FEFBA0149835A836B837C8369817A81B3
:1029A0008B819C810F900F900F900F90DF91CF91B2
:1029B0001F910F91FF90EF90DF90CF90AF908F908D
:1029C0007F906F905F904F903F902F9008958F92DF
:1029D0009F92AF92BF92CF92DF92EF92FF920F93AE
:1029E0001F93CF93DF93DC01CB01EA01480159012A
:1029F0004091EC055091ED056091EE057091EF0569
:102A000084179507A607B70710F52AE430E0829FE0
:102A1000A001839F500D929F500D1124FA01E05B9D
:102A2000F14F84AE95AEA6AEB7AEEB5BFF4FC08262
:102A3000D182E282F3828AE490E0A0E0B0E0888371
:102A40009983AA83BB83CA01805B914F02C080E057
:102A500090E0DF91CF911F910F91FF90EF90DF9069
:102A6000CF90BF90AF909F908F9008958F929F923C
:102A7000AF92BF92EF92FF920F931F93CF93DF938A
:102A8000EC014A015B014A3451056105710599F574
:102A900088818D3FA9F589818E3FB9F5FE01E75BFD
:102AA000FF4F80818F3FB1F58A819B81AC81BD81D1
:102AB00083349105A105B10591F58F819885A0E03A
:102AC000B0E0F90180839183A283B3838CAD9DAD87
:102AD000AEADBFADF80180839183A283B383CB5B9E
:102AE000DF4F88819981AA81BB81F701808391831F
:102AF000A283B38318C088248A94982C540113C0ED
:102B000088248A94982C54010EC088248A94982C86
:102B1000540109C088248A94982C540104C0882444
:102B20008A94982C5401682D792D8A2D9B2DDF9144
:102B3000CF911F910F91FF90EF90BF90AF909F901A
:102B40008F900895DC01CB014091EC055091ED058B
:102B50006091EE057091EF0584179507A607B707FA
:102B600080F42AE430E0829FF001839FF00D929F71
:102B7000F00D1124E05BF14F87819085A185B2852E
:102B800008958FEF9FEF089582E061E040E00E949A
:102B90004F0F089582E061E041E00E944F0F0895D9
:102BA00082E061E00E941912089582E061E040E055
:102BB0000E94B410089582E060E041E00E94B410E9
:102BC000089582E060E040E00E94B410089582E041
:102BD00061E041E00E94B41008950E94E7150E9450
:102BE000E115000000000E94DB15000000000E94BB
:102BF000D515000000000E94E115000000000E94B1
:102C0000DB15000000000E94E715000000000E9494
:102C1000E1150895CF930E94E7150E94E115C9E0E0
:102C20000E94DB150E94E115C150D1F70E94ED15FD
:102C3000CF9108950E94CA1582E060E041E00E94B1
:102C40004F0F0E940A1608950F931F93CF93DF939F
:102C5000082F0E94CA15C8E0D0E010E8812F802319
:102C600019F00E94E71502C00E94D5150E94DB15DD
:102C7000000000000E94E1151695219779F70E9447
:102C8000E7150E94C415000000000E94DB150E9499
:102C9000D015C82F0E94E1150E94CA158C2FDF9114
:102CA000CF911F910F910895FF920F931F93CF9390
:102CB000DF93F82E0E94C4150E94E7150000000063
:102CC000C8E0D0E000E010E80E94DB150000000042
:102CD0000E94D015009709F0012B0E94E115000019
:102CE00000001695219781F70E94CA15FF2019F060
:102CF0000E94D51502C00E94E7150E94DB15000056
:102D000000000E94E115000000000E94E715802FDE
:102D1000DF91CF911F910F91FF900895EF92FF9255
:102D20000F931F93CF937C018B01C42F0E94ED154D
:102D3000CC2319F0C13059F405C083E00E94241659
:102D400090E007C085E00E94241690E002C080E079
:102D500090E00097E9F40E94C4150E94D0150097F6
:102D6000E1F70E94C41581E00E945416C82F81E04B
:102D70000E9454163C2F20E0280F311DF7013183AB
:102D8000208380E00E945416F8018083118280E045
:102D9000CF911F910F91FF90EF9008952F923F9246
:102DA0004F925F926F927F928F929F92AF92BF925B
:102DB000CF92DF92EF92FF920F931F93CF93DF9307
:102DC0000F920F92CDB7DEB78B01BC0180E090E08F
:102DD0000E943419C62ED72EF82EE92EB80180E0B5
:102DE00090E00E9434192AE037ED43E25CE30E9450
:102DF000EA1920E030E040E252E40E949F1820E00F
:102E000030E040EA50E40E949F18362E272E898336
:102E10009A83382F292F862F922DA32FB22FBC01F2
:102E2000CD0120E030E048EC51E40E949F184B01B6
:102E30005C018C2D9D2DAF2DBE2DBC01CD012CEA4A
:102E400035EC47EA58E30E94EA192AE037ED43E2FD
:102E50005CE30E94A0189B01AC01C501B4010E9473
:102E6000EA192B013C018C2D9D2DAF2DBE2DBC01EF
:102E7000CD0122EA37EE4BE356EB0E94EA190C2D06
:102E80001D2D2F2D3E2DA90198010E94EA194B01FD
:102E90005C01802F912FAF2DBE2DBC01CD0124E50B
:102EA00033EE45E25DE30E94EA199B01AC01C501E6
:102EB000B4010E94A01820E030E040E850E40E94F5
:102EC0009F189B01AC01C301B2010E94A018F62E0D
:102ED000072F482E892EE62E172FD82EC92E862F83
:102EE000902FA42DB82DBC01CD0120E030E048EC9E
:102EF00052E40E94E61918167CF08F2D902FA42D15
:102F0000B82DBC01CD012DEC3CEC4CEC5DE30E94F6
:102F10000419882364F018C0EE2410E00F2EF8EC9A
:102F2000DF2EF02D0F2EF2E4CF2EF02D0DC00F2E40
:102F3000FDECEF2EF02D1CEC0F2EFCECDF2EF02D17
:102F40000F2EFDE3CF2EF02D39812A81832D922D76
:102F5000A32FB22FBC01CD010E940819DC01CB01C7
:102F60009093A3108093A2108E2D912FAD2DBC2D88
:102F7000BC01CD010E940819DC01CB019093A51082
:102F80008093A4100F900F90DF91CF911F910F911C
:102F9000FF90EF90DF90CF90BF90AF909F908F9079
:102FA0007F906F905F904F903F902F900895CF93B8
:102FB000DF938093AA101092A9101092A810CBEA68
:102FC000D0E180EA90E1BE0141E00E948E1620919E
:102FD000A8103091A910280F311D3093A91020930B
:102FE000A81086EA90E1BE0140E00E948E16209172
:102FF000A8103091A910280F311D3093A9102093EB
:10300000A8102115310519F00E940A160AC0609116
:10301000A6107091A7108091A0109091A1100E940D
:10302000CE168091AA10813029F48091A41090913D
:10303000A51009C0882329F48091A2109091A310B3
:1030400002C080E090E0DF91CF9108951F920F922F
:103050000FB60F9211244F935F936F937F938F93CB
:103060009F93AF93BF93F8948FE686BD8091F5054B
:103070009091F605A091F705B091F8050196A11D74
:10308000B11D8093F5059093F605A093F705B093D5
:10309000F8054091F5055091F6056091F70570919E
:1030A000F8058091F1059091F205A091F305B0919A
:1030B000F405481759076A077B0758F081E08093A9
:1030C000F0051092F5051092F6051092F705109292
:1030D000F8057894BF91AF919F918F917F916F91F7
:1030E0005F914F910F900FBE0F901F90189585E044
:1030F00085BD8FE686BDEEE6F0E08081816080834D
:10310000A89A0895DC01CB018093F1059093F20514
:10311000A093F305B093F4051092F5051092F6050F
:103120001092F7051092F80508958091F005882314
:1031300021F01092F00581E0089580E00895505844
:10314000BB27AA270ED008C1F9D030F0FED020F05E
:1031500031F49F3F11F41EF4EEC00EF4E095E7FB4E
:10316000E4C0E92F0AD180F3BA1762077307840716
:10317000950718F071F49EF522C10EF4E0950B2E20
:10318000BA2FA02D0B01B90190010C01CA01A001B9
:103190001124FF27591B99F0593F50F4503E68F114
:1031A0001A16F040A22F232F342F4427585FF3CF55
:1031B000469537952795A795F0405395C9F77EF426
:1031C0001F16BA0B620B730B840BBAF09150A1F06F
:1031D000FF0FBB1F661F771F881FC2F70EC0BA0FF5
:1031E000621F731F841F48F4879577956795B7957D
:1031F000F7959E3F08F0B3CF9395880F08F0992775
:10320000EE0F9795879508956CD008F481E00895A6
:10321000BCD088F09F5790F0B92F9927B751A0F0F4
:10322000D1F0660F771F881F991F1AF0BA95C9F75A
:1032300012C0B13081F0C3D0B1E00895C0C0672F93
:10324000782F8827B85F39F0B93FCCF3869577950A
:103250006795B395D9F73EF49095809570956195F3
:103260007F4F8F4F9F4F0895E89409C097FB3EF41E
:1032700090958095709561957F4F8F4F9F4F9923C3
:10328000A9F0F92F96E9BB279395F6958795779541
:103290006795B795F111F8CFFAF4BB0F11F460FF01
:1032A0001BC06F5F7F4F8F4F9F4F16C0882311F059
:1032B00096E911C0772321F09EE8872F762F05C06D
:1032C000662371F096E8862F70E060E02AF09A9508
:1032D000660F771F881FDAF7880F9695879597F9FD
:1032E0000895990F0008550FAA0BE0E8FEEF161697
:1032F0001706E807F907C0F012161306E407F507EA
:1033000098F0621B730B840B950B39F40A2661F05D
:10331000232B242B252B21F408950A2609F4A14000
:10332000A6958FEF811D811D089597F99F6780E80D
:1033300070E060E008959FEF80EC089500240A9407
:103340001616170618060906089500240A94121680
:103350001306140605060895092E0394000C11F4B3
:10336000882352F0BB0F40F4BF2B11F460FF04C060
:103370006F5F7F4F8F4F9F4F089557FD9058440FB9
:10338000551F59F05F3F71F04795880F97FB991FC4
:1033900061F09F3F79F08795089512161306140681
:1033A000551FF2CF4695F1DF08C01616170618060E
:1033B000991FF1CF86957105610508940895E894E9
:1033C000BB2766277727CB0197F908958ADF08F492
:1033D0008FEF08950BD0C0CFB1DF28F0B6DF18F023
:1033E000952309F0A2CFA7CF1124EACFC6DFA0F31F
:1033F000959FD1F3950F50E0551F629FF001729F8A
:10340000BB27F00DB11D639FAA27F00DB11DAA1FA8
:10341000649F6627B00DA11D661F829F2227B00DF5
:10342000A11D621F739FB00DA11D621F839FA00D80
:10343000611D221F749F3327A00D611D231F849FD0
:10344000600D211D822F762F6A2F11249F57504027
:103450008AF0E1F088234AF0EE0FFF1FBB1F661FC2
:10346000771F881F91505040A9F79E3F510570F07B
:103470005CCFA6CF5F3FECF3983EDCF38695779563
:103480006795B795F795E7959F5FC1F7FE2B880F76
:10349000911D9695879597F90895FC01882799279E
:1034A000E89421912032E9F3293010F02E30C8F34E
:1034B0002B3241F02D3239F4689404C00E94821AF4
:1034C000820F911D219120532A30C0F31EF4909554
:1034D00081959F4F0895FB01DC0102C001900D9280
:1034E00041505040D8F70895FB01DC014150504055
:1034F00030F08D910190801919F40020B9F7881BE4
:10350000990B08957AE0979F902D879F802D910DBC
:10351000112408950F931F93CF93DF93CDB7DEB798
:103520002E970FB6F894DEBF0FBECDBF8C0186E09C
:103530008C831A8309838FEF9FE79E838D83CE014F
:1035400001960E94B31AEF81F885E00FF11F1082F7
:103550002E960FB6F894DEBF0FBECDBFDF91CF9190
:103560001F910F9108952F923F924F925F926F9209
:103570007F928F929F92AF92BF92CF92DF92EF9203
:10358000FF920F931F93CF93DF93CDB7DEB72D97A5
:103590000FB6F894DEBF0FBECDBF3C017D876C87B0
:1035A0005A01FC0117821682838181FFC8C12E0156
:1035B0000894411C511CF3019381EC85FD8593FD1A
:1035C000859193FF8191FD87EC87882309F4B3C12E
:1035D000853241F493FD859193FF8191FD87EC87BE
:1035E000853229F490E0B3010E94D01CE4CFFF247F
:1035F000EE2410E01032B0F48B3269F08C3228F4F3
:10360000803251F0833271F40BC08D3239F0803347
:1036100049F411602CC01260146029C0186027C0E2
:10362000106125C017FD2EC0282F20532A3098F492
:1036300016FF08C08F2D880FF82EFF0CFF0CF80E18
:10364000F20E15C08E2D880FE82EEE0CEE0CE80E53
:10365000E20E10620CC08E3221F416FD6CC11064B3
:1036600006C08C3611F4106802C0883659F4EC8517
:10367000FD8593FD859193FF8191FD87EC878823DC
:1036800009F0B8CF982F9554933018F0905293309A
:1036900038F424E030E0A20EB31E3FE339830FC0BC
:1036A000833631F0833781F0833509F05AC022C068
:1036B000F5018081898322E030E0A20EB31E21E073
:1036C000C22ED12C420114C092E0292E312C2A0C9A
:1036D0003B1CF5018080918016FF03C06F2D70E0C8
:1036E00002C06FEF7FEFC4010E94C51C6C01510145
:1036F0001F7715C082E0282E312C2A0C3B1CF501C7
:103700008080918016FF03C06F2D70E002C06FEFC4
:103710007FEFC4010E94BA1C6C011068510113FDB7
:103720001CC006C080E290E0B3010E94D01CEA9465
:103730008E2D90E0C816D906A8F30FC0F40117FD2E
:10374000859117FF81914F0190E0B3010E94D01C39
:10375000E110EA940894C108D108C114D10471F7AA
:10376000E7C0843611F0893651F5F50117FF07C01F
:1037700080819181A281B38124E030E008C0808102
:103780009181AA2797FDA095BA2F22E030E0A20EE2
:10379000B31E012F0F76B7FF08C0B095A095909586
:1037A00081959F4FAF4FBF4F0068BC01CD01A20173
:1037B0002AE030E00E94FC1CD82ED4183FC0853788
:1037C00021F41F7E2AE030E020C0197F8F36A9F057
:1037D000803720F4883509F0AEC00BC0803721F067
:1037E000883709F0A8C001C0106114FF09C0146037
:1037F00007C014FF08C0166006C028E030E005C00E
:1038000020E130E002C020E132E0F50117FF07C0FF
:10381000608171818281938144E050E006C06081C3
:10382000718180E090E042E050E0A40EB51EA2015C
:103830000E94FC1CD82ED418012F0F7706FF09C058
:103840000E7FDF1430F404FF06C002FD04C00F7EBB
:1038500002C01D2D01C01F2D802F90E004FF0CC061
:10386000FE01ED0DF11D2081203311F4097E09C008
:1038700002FF06C01E5F05C086789070009709F0B1
:103880001F5F802E992403FD12C000FF0DC0FD2C88
:103890001E1550F4FE0CF11A1E2D06C080E290E0B9
:1038A000B3010E94D01C1F5F1E15C0F304C01E157B
:1038B00010F4E11A01C0EE2484FE0FC080E390E012
:1038C000B3010E94D01C82FE1FC081FE03C088E5A8
:1038D00090E010C088E790E00DC0C4018678907039
:1038E000009791F081FC02C080E201C08BE207FDED
:1038F0008DE290E0B3010E94D01C06C080E390E00E
:10390000B3010E94D01CFA94DF14C0F3DA94F201E0
:10391000ED0DF11D808190E0B3010E94D01CDD20EF
:10392000A9F706C080E290E0B3010E94D01CEA949F
:10393000EE20C1F740CEF3018681978102C08FEF60
:103940009FEF2D960FB6F894DEBF0FBECDBFDF916F
:10395000CF911F910F91FF90EF90DF90CF90BF908C
:10396000AF909F908F907F906F905F904F903F901F
:103970002F900895FC010590615070400110D8F718
:10398000809590958E0F9F1F0895FC0161507040A7
:1039900001900110D8F7809590958E0F9F1F089584
:1039A0000F931F93CF93DF938C01EB018B8181FFEA
:1039B0001BC082FF0DC02E813F818C819D81281705
:1039C000390764F4E881F9810193F983E88306C03B
:1039D000E885F985802F1995009731F48E819F81B4
:1039E00001969F838E8302C00FEF1FEFC801DF9106
:1039F000CF911F910F910895FA01AA27283051F114
:103A0000203181F1E8946F936E7F6E5F7F4F8F4F0F
:103A10009F4FAF4FB1E03ED0B4E03CD0670F781F6E
:103A2000891F9A1FA11D680F791F8A1F911DA11D53
:103A30006A0F711D811D911DA11D20D009F468948C
:103A40003F912AE0269F11243019305D3193DEF634
:103A5000CF010895462F4770405D4193B3E00FD0EA
:103A6000C9F7F6CF462F4F70405D4A3318F0495DD5
:103A700031FD4052419302D0A9F7EACFB4E0A695B8
:103A80009795879577956795BA95C9F700976105DA
:103A9000710508959B01AC010A2E06945795479530
:103AA00037952795BA95C9F7620F731F841F951F25
:083AB000A01D0895F894FFCF5A
:103AB80076616C7565313A25642C76616C75653272
:103AC8003A25640D0A00676E46616E4F6E56616C4A
:103AD8007565203A2025640D0A00676E4C65644FB1
:103AE8006E56616C7565203A2025640D0A00676E74
:103AF8004D6F746F7256616C7565203A2025640DA0
:103B08000A00676E546578744C636456616C756519
:103B1800203A2025640D0A006E6F20737570706F4F
:103B280072746564206F626A6563742069642E0D1F
:103B38000A0053656E6453656E736F722044617436
:103B480061202D2D206D616B65506B74206572723C
:103B58006F722E0A00646973636F6E6E65637465B5
:103B6800642C207478206572726F720D0A0061638C
:103B7800747561746F722044617461202D2D206DFD
:103B8800616B65506B74206572726F722E0A000D3E
:103B98000A7265616420426C7565746F6F74682081
:103BA8004D61632041646472657373200D0A00419E
:103BB800542B414444523F0077696669207374610D
:103BC80072740D0A000D0A4150206C6973742064E8
:103BD8006973706C61793A0D0A000D0A00434E440E
:103BE800495F41455300636E64693331333138327C
:103BF80032343600415020636F6E6E6563746564BD
:103C08002E0D0A00415020636F6E6E656374696FF4
:103C18006E206661696C2E0D0A000D0A20416C6CDD
:103C28006F6361746564206C6F63616C2049503AFE
:103C38000D0A003139322E3136382E31302E3134DA
:103C48003100436F6E6E65637465642053657276E8
:103C580065722E0D0A0053657276657220636F6E69
:103C68006E656374696F6E206661696C2E0D0A005B
:103C7800494E4445585F454E545F56414C55455F43
:103C8800313A25640D0A0074656D70203D20256465
:103C9800205B435D200D0A00636473203D2025648A
:103CA800205B6C75785D200D0A0066616E20766178
:103CB8006C7565203D202564200D0A006C65642024
:103CC80076616C7565203D202564200D0A006D6FB6
:103CD800746F722076616C7565203D202564200D17
:103CE8000A0053656E73696E672054656D702031E4
:103CF8000053656E73696E67204344532031004357
:103D08006F6E74726F6C2046616E2031004F6E00CA
:103D1800436F6E74726F6C204C4544203100436FC2
:103D28006E74726F6C204D6F746F722031003A00A0
:103D38002563000D0A0D0A005B253032585D004FDF
:103D48004B0053454E44204F4B002B4950442C0008
:103D58004552524F52004641494C00414C52454150
:103D6800445900627573792E2E2E00414C524541FC
:103D780059005761697453656E6452656164795777
:103D88006974686F75745072696E7420636F756EAC
:103D9800746572206572720D0A00576169744F4B21
:103DA800576974686F75745072696E7420636F75A3
:103DB8006E746572206572720D0A0041542B435768
:103DC8004C41500D0A0041542B43574A41505F441F
:103DD80045463D222573222C222573220D0A0041D7
:103DE800542B43574D4F44453D330D0A0041542B46
:103DF8004349505354415F4355523F0D0A004154C3
:103E08002B4357444843505F4355523D312C310DA5
:103E18000A0041542B43495053544152543D2254B3
:103E28004350222C222573222C25750D0A0041545B
:103E38002B43495053454E443D25640D0A0077698C
:103E4800666953656E6444617461207761697420A2
:103E5800657272202D3000263A005B253032585D9D
:103E68000041542B43574155544F434F4E4E3D301C
:103E78000D0A00415445300D0A0046616E20496E16
:103E8800697469616C697A652E0A007265673131F7
:043E980031310000C4
:00000001FF
