:100000000C9472000C9494000C9494000C94940042
:100010000C9494000C9494000C9494000C94940010
:100020000C9494000C9494000C9494000C94940000
:100030000C9494000C9494000C9494000C949400F0
:100040000C9494000C9494000C9494000C949400E0
:100050000C9494000C9494000C9494000C949400D0
:100060000C9494000C9494000C9494000C949400C0
:100070000C9494000C9494000C9494000C949400B0
:100080000C9494000C9494000C9494000C949400A0
:100090000C9494000C9494000C9494000C94940090
:1000A0000C9494000C9494000C9494000C94940080
:1000B0000C9494000C9494000C9494000C94940070
:1000C0000C9494000C9494000C9494000C94940060
:1000D0000C9494000C9494000C9494000C94940050
:1000E0000C94940011241FBECFEFD1E2DEBFCDBF30
:1000F00000E00CBF12E0A0E0B2E0EAE6F8E000E0C9
:100100000BBF02C007900D92A030B107D9F71BBEFC
:1001100012E0A0E0B2E001C01D92A030B107E1F70B
:100120000E9404040C9433040C9400008823E9F426
:10013000442369F021B181E090E0AC0102C0440F9A
:10014000551F6A95E2F7BA01622B61B9089521B192
:1001500081E090E0AC0102C0440F551F6A95E2F7C0
:10016000BA016095622361B908958130E9F44423AE
:1001700069F024B181E090E0AC0102C0440F551F4A
:100180006A95E2F7BA01622B64B9089524B181E05F
:1001900090E0AC0102C0440F551F6A95E2F7BA0126
:1001A0006095622364B908958230E9F4442369F0CC
:1001B00027B181E090E0AC0102C0440F551F6A9561
:1001C000E2F7BA01622B67B9089527B181E090E0A8
:1001D000AC0102C0440F551F6A95E2F7BA01609561
:1001E000622367B908958330E9F4442369F02AB1A2
:1001F00081E090E0AC0102C0440F551F6A95E2F720
:10020000BA01622B6AB908952AB181E090E0AC018D
:1002100002C0440F551F6A95E2F7BA016095622348
:100220006AB908958430E9F4442369F02DB181E07E
:1002300090E0AC0102C0440F551F6A95E2F7BA0185
:10024000622B6DB908952DB181E090E0AC0102C040
:10025000440F551F6A95E2F7BA01609562236DB9A4
:1002600008958530E9F4442369F020B381E090E0FB
:10027000AC0102C0440F551F6A95E2F7BA01622B28
:1002800060BB089520B381E090E0AC0102C0440F50
:10029000551F6A95E2F7BA016095622360BB089525
:1002A0008630E9F4442369F023B381E090E0AC01A7
:1002B00002C0440F551F6A95E2F7BA01622B63BB77
:1002C000089523B381E090E0AC0102C0440F551FB4
:1002D0006A95E2F7BA016095622363BB089587309F
:1002E00009F5442379F0E1E0F1E0208181E090E03C
:1002F000AC0102C0440F551F6A95E2F7BA01622BA8
:1003000060830895E1E0F1E0208181E090E0AC01BC
:1003100002C0440F551F6A95E2F7BA016095622347
:1003200060830895893009F5442379F0E4E0F1E031
:10033000208181E090E0AC0102C0440F551F6A9516
:10034000E2F7BA01622B60830895E4E0F1E02081D6
:1003500081E090E0AC0102C0440F551F6A95E2F7BE
:10036000BA0160956223608308958A3009F54423B9
:1003700079F0E7E0F1E0208181E090E0AC0102C09B
:10038000440F551F6A95E2F7BA01622B6083089506
:10039000E7E0F1E0208181E090E0AC0102C0440F91
:1003A000551F6A95E2F7BA0160956223608308954C
:1003B0008B3001F5442379F0EAE0F1E0208181E01F
:1003C00090E0AC0102C0440F551F6A95E2F7BA01F4
:1003D000622B60830895EAE0F1E0208181E090E003
:1003E000AC0102C0440F551F6A95E2F7BA0160954F
:1003F0006223608308958823E9F4442369F022B1DD
:1004000081E090E0AC0102C0440F551F6A95E2F70D
:10041000BA01622B62B9089522B181E090E0AC018B
:1004200002C0440F551F6A95E2F7BA016095622336
:1004300062B908958130E9F4442369F025B181E07F
:1004400090E0AC0102C0440F551F6A95E2F7BA0173
:10045000622B65B9089525B181E090E0AC0102C03E
:10046000440F551F6A95E2F7BA016095622365B99A
:1004700008958230E9F4442369F028B181E090E0E6
:10048000AC0102C0440F551F6A95E2F7BA01622B16
:1004900068B9089528B181E090E0AC0102C0440F32
:1004A000551F6A95E2F7BA016095622368B908950D
:1004B0008330E9F4442369F02BB181E090E0AC0192
:1004C00002C0440F551F6A95E2F7BA01622B6BB95F
:1004D00008952BB181E090E0AC0102C0440F551F9C
:1004E0006A95E2F7BA01609562236BB9089584308A
:1004F000E9F4442369F02EB181E090E0AC0102C040
:10050000440F551F6A95E2F7BA01622B6EB9089540
:100510002EB181E090E0AC0102C0440F551F6A95F6
:10052000E2F7BA01609562236EB908958530E9F467
:10053000442369F021B381E090E0AC0102C0440F94
:10054000551F6A95E2F7BA01622B61BB089521B38A
:1005500081E090E0AC0102C0440F551F6A95E2F7BC
:10056000BA016095622361BB08958630E9F44423A3
:1005700069F024B381E090E0AC0102C0440F551F44
:100580006A95E2F7BA01622B64BB089524B381E057
:1005900090E0AC0102C0440F551F6A95E2F7BA0122
:1005A0006095622364BB0895873009F5442379F090
:1005B000E2E0F1E0208181E090E0AC0102C0440F74
:1005C000551F6A95E2F7BA01622B60830895E2E055
:1005D000F1E0208181E090E0AC0102C0440F551FA2
:1005E0006A95E2F7BA0160956223608308958930C5
:1005F00009F5442379F0E5E0F1E0208181E090E025
:10060000AC0102C0440F551F6A95E2F7BA01622B94
:1006100060830895E5E0F1E0208181E090E0AC01A5
:1006200002C0440F551F6A95E2F7BA016095622334
:10063000608308958A3009F5442379F0E8E0F1E019
:10064000208181E090E0AC0102C0440F551F6A9503
:10065000E2F7BA01622B60830895E8E0F1E02081BF
:1006600081E090E0AC0102C0440F551F6A95E2F7AB
:10067000BA0160956223608308958B3001F54423AD
:1006800079F0EBE0F1E0208181E090E0AC0102C084
:10069000440F551F6A95E2F7BA01622B60830895F3
:1006A000EBE0F1E0208181E090E0AC0102C0440F7A
:1006B000551F6A95E2F7BA01609562236083089539
:1006C000882359F420B130E0C90102C0959587957F
:1006D0006A95E2F7982F91707BC0813059F423B16D
:1006E00030E0C90102C0959587956A95E2F7982F89
:1006F00091706EC0823059F426B130E0C90102C059
:10070000959587956A95E2F7982F917061C083302F
:1007100039F489B191E0681708F45AC090E058C0E4
:10072000843059F42CB130E0C90102C09595879509
:100730006A95E2F7982F91704BC0853051F48FB1D4
:1007400090E002C0959587956A95E2F7982F917091
:100750003FC0863051F482B390E002C095958795F2
:100760006A95E2F7982F917033C0873059F48091E1
:10077000000190E002C0959587956A95E2F7982F61
:10078000917026C0893059F48091030190E002C035
:10079000959587956A95E2F7982F917019C08A30E0
:1007A00059F48091060190E002C0959587956A956D
:1007B000E2F7982F91700CC08B3051F480910901B1
:1007C00090E002C0959587956A95E2F7982F917011
:1007D000892F90E008958130910559F482E060E01E
:1007E00041E00E94FB0182E061E040E00E94FB01E9
:1007F000089582E060E040E00E94FB0182E061E059
:1008000040E00E94FB01089582E060E041E00E9428
:10081000960082E060E040E00E94FB0182E061E03F
:1008200041E00E94960082E061E040E00E94FB010E
:1008300081E090E00E94EB038FEF9FEFA6E88150EC
:100840009040A040E1F700C0000080E090E00E94EE
:10085000EB038FEF9FEFA6E881509040A040E1F7B7
:0A08600000C00000E5CFF894FFCFC0
:00000001FF
