:100000000C9472000C9494000C9494000C94940042
:100010000C9494000C9494000C9494000C94940010
:100020000C9494000C9494000C9494000C94940000
:100030000C9494000C9494000C9494000C949400F0
:100040000C9494000C9494000C9494000C949400E0
:100050000C9494000C9494000C9494000C949400D0
:100060000C9494000C9494000C9494000C949400C0
:100070000C9494000C9494000C9494000C949400B0
:100080000C9494000C9494000C9494000C949400A0
:100090000C9494000C9494000C9494000C94940090
:1000A0000C9494000C9494000C9494000C94940080
:1000B0000C9494000C9494000C9494000C94940070
:1000C0000C9494000C9494000C9494000C94940060
:1000D0000C9494000C9494000C9494000C94940050
:1000E0000C94940011241FBECFEFD1E2DEBFCDBF30
:1000F00000E00CBF12E0A0E0B2E0ECEBF3E100E0C6
:100100000BBF02C007900D92A033B107D9F71BBEF9
:1001100012E0A0E3B2E001C01D92A134B107E1F703
:100120000E9437050C94DC090C9400008823E9F444
:10013000442369F021B181E090E0AC0102C0440F9A
:10014000551F6A95E2F7BA01622B61B9089521B192
:1001500081E090E0AC0102C0440F551F6A95E2F7C0
:10016000BA016095622361B908958130E9F44423AE
:1001700069F024B181E090E0AC0102C0440F551F4A
:100180006A95E2F7BA01622B64B9089524B181E05F
:1001900090E0AC0102C0440F551F6A95E2F7BA0126
:1001A0006095622364B908958230E9F4442369F0CC
:1001B00027B181E090E0AC0102C0440F551F6A9561
:1001C000E2F7BA01622B67B9089527B181E090E0A8
:1001D000AC0102C0440F551F6A95E2F7BA01609561
:1001E000622367B908958330E9F4442369F02AB1A2
:1001F00081E090E0AC0102C0440F551F6A95E2F720
:10020000BA01622B6AB908952AB181E090E0AC018D
:1002100002C0440F551F6A95E2F7BA016095622348
:100220006AB908958430E9F4442369F02DB181E07E
:1002300090E0AC0102C0440F551F6A95E2F7BA0185
:10024000622B6DB908952DB181E090E0AC0102C040
:10025000440F551F6A95E2F7BA01609562236DB9A4
:1002600008958530E9F4442369F020B381E090E0FB
:10027000AC0102C0440F551F6A95E2F7BA01622B28
:1002800060BB089520B381E090E0AC0102C0440F50
:10029000551F6A95E2F7BA016095622360BB089525
:1002A0008630E9F4442369F023B381E090E0AC01A7
:1002B00002C0440F551F6A95E2F7BA01622B63BB77
:1002C000089523B381E090E0AC0102C0440F551FB4
:1002D0006A95E2F7BA016095622363BB089587309F
:1002E00009F5442379F0E1E0F1E0208181E090E03C
:1002F000AC0102C0440F551F6A95E2F7BA01622BA8
:1003000060830895E1E0F1E0208181E090E0AC01BC
:1003100002C0440F551F6A95E2F7BA016095622347
:1003200060830895893009F5442379F0E4E0F1E031
:10033000208181E090E0AC0102C0440F551F6A9516
:10034000E2F7BA01622B60830895E4E0F1E02081D6
:1003500081E090E0AC0102C0440F551F6A95E2F7BE
:10036000BA0160956223608308958A3009F54423B9
:1003700079F0E7E0F1E0208181E090E0AC0102C09B
:10038000440F551F6A95E2F7BA01622B6083089506
:10039000E7E0F1E0208181E090E0AC0102C0440F91
:1003A000551F6A95E2F7BA0160956223608308954C
:1003B0008B3001F5442379F0EAE0F1E0208181E01F
:1003C00090E0AC0102C0440F551F6A95E2F7BA01F4
:1003D000622B60830895EAE0F1E0208181E090E003
:1003E000AC0102C0440F551F6A95E2F7BA0160954F
:1003F0006223608308958823E9F4442369F022B1DD
:1004000081E090E0AC0102C0440F551F6A95E2F70D
:10041000BA01622B62B9089522B181E090E0AC018B
:1004200002C0440F551F6A95E2F7BA016095622336
:1004300062B908958130E9F4442369F025B181E07F
:1004400090E0AC0102C0440F551F6A95E2F7BA0173
:10045000622B65B9089525B181E090E0AC0102C03E
:10046000440F551F6A95E2F7BA016095622365B99A
:1004700008958230E9F4442369F028B181E090E0E6
:10048000AC0102C0440F551F6A95E2F7BA01622B16
:1004900068B9089528B181E090E0AC0102C0440F32
:1004A000551F6A95E2F7BA016095622368B908950D
:1004B0008330E9F4442369F02BB181E090E0AC0192
:1004C00002C0440F551F6A95E2F7BA01622B6BB95F
:1004D00008952BB181E090E0AC0102C0440F551F9C
:1004E0006A95E2F7BA01609562236BB9089584308A
:1004F000E9F4442369F02EB181E090E0AC0102C040
:10050000440F551F6A95E2F7BA01622B6EB9089540
:100510002EB181E090E0AC0102C0440F551F6A95F6
:10052000E2F7BA01609562236EB908958530E9F467
:10053000442369F021B381E090E0AC0102C0440F94
:10054000551F6A95E2F7BA01622B61BB089521B38A
:1005500081E090E0AC0102C0440F551F6A95E2F7BC
:10056000BA016095622361BB08958630E9F44423A3
:1005700069F024B381E090E0AC0102C0440F551F44
:100580006A95E2F7BA01622B64BB089524B381E057
:1005900090E0AC0102C0440F551F6A95E2F7BA0122
:1005A0006095622364BB0895873009F5442379F090
:1005B000E2E0F1E0208181E090E0AC0102C0440F74
:1005C000551F6A95E2F7BA01622B60830895E2E055
:1005D000F1E0208181E090E0AC0102C0440F551FA2
:1005E0006A95E2F7BA0160956223608308958930C5
:1005F00009F5442379F0E5E0F1E0208181E090E025
:10060000AC0102C0440F551F6A95E2F7BA01622B94
:1006100060830895E5E0F1E0208181E090E0AC01A5
:1006200002C0440F551F6A95E2F7BA016095622334
:10063000608308958A3009F5442379F0E8E0F1E019
:10064000208181E090E0AC0102C0440F551F6A9503
:10065000E2F7BA01622B60830895E8E0F1E02081BF
:1006600081E090E0AC0102C0440F551F6A95E2F7AB
:10067000BA0160956223608308958B3001F54423AD
:1006800079F0EBE0F1E0208181E090E0AC0102C084
:10069000440F551F6A95E2F7BA01622B60830895F3
:1006A000EBE0F1E0208181E090E0AC0102C0440F7A
:1006B000551F6A95E2F7BA01609562236083089539
:1006C000882359F420B130E0C90102C0959587957F
:1006D0006A95E2F7982F91707BC0813059F423B16D
:1006E00030E0C90102C0959587956A95E2F7982F89
:1006F00091706EC0823059F426B130E0C90102C059
:10070000959587956A95E2F7982F917061C083302F
:1007100039F489B191E0681708F45AC090E058C0E4
:10072000843059F42CB130E0C90102C09595879509
:100730006A95E2F7982F91704BC0853051F48FB1D4
:1007400090E002C0959587956A95E2F7982F917091
:100750003FC0863051F482B390E002C095958795F2
:100760006A95E2F7982F917033C0873059F48091E1
:10077000000190E002C0959587956A95E2F7982F61
:10078000917026C0893059F48091030190E002C035
:10079000959587956A95E2F7982F917019C08A30E0
:1007A00059F48091060190E002C0959587956A956D
:1007B000E2F7982F91700CC08B3051F480910901B1
:1007C00090E002C0959587956A95E2F7982F917011
:1007D000892F90E008950F931F93CF93DF93082FF5
:1007E0008AE060E040E00E94FB018AE061E040E0D6
:1007F0000E94FB018AE062E040E00E94FB018AE087
:1008000060E041E00E94FB01C0E0D0E010E0C801E0
:100810000C2E02C0959587950A94E2F780FF06C0DA
:1008200082E06C2F41E00E94FB0105C082E06C2F4A
:1008300040E00E94FB012196C830D10541F78AE0D3
:1008400062E041E00E94FB0185E991E00197F1F748
:1008500000C08AE062E040E00E94FB0185E991E08F
:100860000197F1F700C0DF91CF911F910F9108958B
:10087000CF93DF93EC018881882331F021960E9489
:10088000EB0389918823D9F7DF91CF9108950F93D6
:100890001F93CF93DF93082F8AE060E040E00E942F
:1008A000FB018AE061E040E00E94FB018AE062E037
:1008B00040E00E94FB01C0E0D0E010E0C8010C2E37
:1008C00002C0959587950A94E2F780FF06C082E002
:1008D0006C2F41E00E94FB0105C082E06C2F40E0DC
:1008E0000E94FB012196C830D10541F78AE062E001
:1008F00041E00E94FB0185E991E00197F1F700C01A
:100900008AE062E040E00E94FB0185E991E0019706
:10091000F1F700C0DF91CF911F910F910895EF92F1
:10092000FF920F931F93CF93DF93C82FF62E142FB0
:10093000D22FE02E00E08E2D602F41E00E94960025
:100940008E2D602F40E00E94FB010F5F083099F769
:100950008C2F6F2D41E00E9496008C2F6F2D40E070
:100960000E94FB018C2F612F41E00E9496008C2F8A
:10097000612F40E00E94FB018C2F6D2F41E00E940F
:1009800096008C2F6D2F40E00E94FB0185E991E0DD
:100990000197F1F700C08C2F6D2F40E00E94FB0102
:1009A00085E991E00197F1F700C088E30E944704D0
:1009B0008BE293E00197F1F78FE00E9447048BE20E
:1009C00093E00197F1F782E00E94470489E991E8FA
:1009D0000197F1F700C081E00E94470489E991E89E
:1009E0000197F1F700C086E00E9447048BE293E094
:1009F0000197F1F7DF91CF911F910F91FF90EF9049
:100A00000895CF93DF93EB01882329F480E092E0EF
:100A10000E94380406C0813021F488E092E00E94F0
:100A20003804CE0164E670E00E94C809262F6AE00F
:100A300070E00E94C809D62FC82F222329F0822FE8
:100A4000805D0E94EB0304C080E192E00E943804C4
:100A50008D2F805D0E94EB0382E192E00E943804BA
:100A60008C2F805D0E94EB03DF91CF9108950E944F
:100A700002068AE090E060E070E041E050E022E0B1
:100A800030E002E010E00E948F0484E192E00E94D6
:100A9000380480EC0E9447048BE293E00197F1F761
:100AA00084E292E00E9438048FEF9FE7A6E1815034
:100AB0009040A040E1F700C0000081E00E944704A0
:100AC000A9E9B1E81197F1F700C080E00E94CB07D7
:100AD00090933302809332028FEF9FE7A4E081501E
:100AE0009040A040E1F700C0000081E00E94CB07E9
:100AF00090933102809330028FEF9FE7A4E0815002
:100B00009040A040E1F700C0000082E00E9447044E
:100B1000A9E9B1E81197F1F700C060913202709134
:100B2000330280E00E94010580EC0E9447048BE2C2
:100B300093E00197F1F7609130027091310281E00A
:100B40000E9401058FEF9FE7ADE081509040A040EB
:100B5000E1F700C00000B9CF85E061E040E00E940D
:100B60009600089585E061E041E00E9496000895B6
:100B700085E061E00E946003089585E061E040E067
:100B80000E94FB01089585E060E041E00E94FB01C6
:100B9000089585E060E040E00E94FB01089585E053
:100BA00061E041E00E94FB0108950E94CF050E9490
:100BB000C905000000000E94C305000000000E945B
:100BC000BD05000000000E94C905000000000E9451
:100BD000C305000000000E94CF05000000000E9435
:100BE000C9050895CF930E94CF050E94C905C9E0A9
:100BF0000E94C3050E94C905C150D1F70E94D505C6
:100C0000CF9108950E94B20585E060E041E00E9426
:100C100096000E94F20508950F931F93CF93DF93E0
:100C2000082F0E94B205C8E0D0E010E8812F802391
:100C300019F00E94CF0502C00E94BD050E94C305A5
:100C4000000000000E94C9051695219779F70E94BF
:100C5000CF050E94AC05000000000E94C3050E9461
:100C6000B805C82F0E94C9050E94B2058C2FDF91DC
:100C7000CF911F910F910895FF920F931F93CF93E0
:100C8000DF93F82E0E94AC050E94CF050000000003
:100C9000C8E0D0E000E010E80E94C30500000000BA
:100CA0000E94B805009709F0012B0E94C9050000B9
:100CB00000001695219781F70E94B205FF2019F0D8
:100CC0000E94BD0502C00E94CF050E94C30500001E
:100CD00000000E94C905000000000E94CF05802F7F
:100CE000DF91CF911F910F91FF900895EF92FF92A6
:100CF0000F931F93CF937C018B01C42F0E94D505C6
:100D0000CC2319F0C13059F405C083E00E940C06D1
:100D100090E007C085E00E940C0690E002C080E0F1
:100D200090E00097E9F40E94AC050E94B805009796
:100D3000E1F70E94AC0581E00E943C06C82F81E0EB
:100D40000E943C063C2F20E0280F311DF701318323
:100D5000208380E00E943C06F8018083118280E0BD
:100D6000CF911F910F91FF90EF9008952F923F9296
:100D70004F925F926F927F928F929F92AF92BF92AB
:100D8000CF92DF92EF92FF920F931F93CF93DF9357
:100D90000F920F92CDB7DEB78B01BC0180E090E0DF
:100DA0000E94AF08C62ED72EF82EE92EB80180E09B
:100DB00090E00E94AF082AE037ED43E25CE30E9436
:100DC000650920E030E040E252E40E941A0820E089
:100DD00030E040EA50E40E941A08362E272E89831C
:100DE0009A83382F292F862F922DA32FB22FBC0143
:100DF000CD0120E030E048EC51E40E941A084B019C
:100E00005C018C2D9D2DAF2DBE2DBC01CD012CEA9A
:100E100035EC47EA58E30E9465092AE037ED43E2E2
:100E20005CE30E941B089B01AC01C501B4010E9458
:100E300065092B013C018C2D9D2DAF2DBE2DBC01D4
:100E4000CD0122EA37EE4BE356EB0E9465090C2DEB
:100E50001D2D2F2D3E2DA90198010E9465094B01E2
:100E60005C01802F912FAF2DBE2DBC01CD0124E55B
:100E700033EE45E25DE30E9465099B01AC01C501CB
:100E8000B4010E941B0820E030E040E850E40E94DA
:100E90001A089B01AC01C301B2010E941B08F62E87
:100EA000072F482E892EE62E172FD82EC92E862FD3
:100EB000902FA42DB82DBC01CD0120E030E048ECEE
:100EC00052E40E94610918167CF08F2D902FA42DFA
:100ED000B82DBC01CD012DEC3CEC4CEC5DE30E9447
:100EE0007F08882364F018C0EE2410E00F2EF8EC81
:100EF000DF2EF02D0F2EF2E4CF2EF02D0DC00F2E91
:100F0000FDECEF2EF02D1CEC0F2EFCECDF2EF02D67
:100F10000F2EFDE3CF2EF02D39812A81832D922DC6
:100F2000A32FB22FBC01CD0120E030E040E251E41C
:100F30000E9465090E948308DC01CB01909337026F
:100F4000809336028E2D912FAD2DBC2DBC01CD018D
:100F500020E030E040E251E40E9465090E948308ED
:100F6000DC01CB0190933902809338020F900F90EF
:100F7000DF91CF911F910F91FF90EF90DF90CF9075
:100F8000BF90AF909F908F907F906F905F904F90A9
:100F90003F902F900895CF93DF9380933E0210925D
:100FA0003D0210923C02CFE3D2E084E392E0BE0126
:100FB00041E00E94760620913C0230913D02280FCC
:100FC000311D30933D0220933C028AE392E0BE0142
:100FD00040E00E94760620913C0230913D02280FAD
:100FE000311D30933D0220933C022115310519F04B
:100FF0000E94F2050AC060913A0270913B02809112
:101000003402909135020E94B60680913E028130F2
:1010100029F4809138029091390209C0882329F47B
:10102000809136029091370202C080E090E0DF911B
:10103000CF9108955058BB27AA270ED008C1F9D0E8
:1010400030F0FED020F031F49F3F11F41EF4EEC0DA
:101050000EF4E095E7FBE4C0E92F0AD180F3BA175C
:10106000620773078407950718F071F49EF522C193
:101070000EF4E0950B2EBA2FA02D0B01B9019001B3
:101080000C01CA01A0011124FF27591B99F0593FF7
:1010900050F4503E68F11A16F040A22F232F342F3F
:1010A0004427585FF3CF469537952795A795F0408D
:1010B0005395C9F77EF41F16BA0B620B730B840BA2
:1010C000BAF09150A1F0FF0FBB1F661F771F881F5A
:1010D000C2F70EC0BA0F621F731F841F48F48795B2
:1010E00077956795B795F7959E3F08F0B3CF9395A1
:1010F000880F08F09927EE0F9795879508956CD083
:1011000008F481E00895BCD088F09F5790F0B92F83
:101110009927B751A0F0D1F0660F771F881F991F4C
:101120001AF0BA95C9F712C0B13081F0C3D0B1E05E
:101130000895C0C0672F782F8827B85F39F0B93F6E
:10114000CCF3869577956795B395D9F73EF490954E
:101150008095709561957F4F8F4F9F4F0895E894CC
:1011600009C097FB3EF490958095709561957F4FEF
:101170008F4F9F4F9923A9F0F92F96E9BB2793959D
:10118000F695879577956795B795F111F8CFFAF4AD
:10119000BB0F11F460FF1BC06F5F7F4F8F4F9F4FDE
:1011A00016C0882311F096E911C0772321F09EE83C
:1011B000872F762F05C0662371F096E8862F70E0A2
:1011C00060E02AF09A95660F771F881FDAF7880F7C
:1011D0009695879597F90895990F0008550FAA0BD2
:1011E000E0E8FEEF16161706E807F907C0F012163A
:1011F0001306E407F50798F0621B730B840B950B3D
:1012000039F40A2661F0232B242B252B21F4089591
:101210000A2609F4A140A6958FEF811D811D08952E
:1012200097F99F6780E870E060E008959FEF80EC99
:10123000089500240A94161617061806090608953C
:1012400000240A9412161306140605060895092EA2
:101250000394000C11F4882352F0BB0F40F4BF2B11
:1012600011F460FF04C06F5F7F4F8F4F9F4F089551
:1012700057FD9058440F551F59F05F3F71F0479547
:10128000880F97FB991F61F09F3F79F0879508952C
:10129000121613061406551FF2CF4695F1DF08C04B
:1012A000161617061806991FF1CF86957105610568
:1012B00008940895E894BB2766277727CB0197F910
:1012C00008958ADF08F48FEF08950BD0C0CFB1DF07
:1012D00028F0B6DF18F0952309F0A2CFA7CF11248C
:1012E000EACFC6DFA0F3959FD1F3950F50E0551FCD
:1012F000629FF001729FBB27F00DB11D639FAA276B
:10130000F00DB11DAA1F649F6627B00DA11D661FB9
:10131000829F2227B00DA11D621F739FB00DA11DDA
:10132000621F839FA00D611D221F749F3327A00D94
:10133000611D231F849F600D211D822F762F6A2F30
:1013400011249F5750408AF0E1F088234AF0EE0FB5
:10135000FF1FBB1F661F771F881F91505040A9F7C2
:101360009E3F510570F05CCFA6CF5F3FECF3983EF7
:10137000DCF3869577956795B795F795E7959F5F29
:10138000C1F7FE2B880F911D9695879597F90895C3
:10139000AA1BBB1B51E107C0AA1FBB1FA617B7079B
:1013A00010F0A61BB70B881F991F5A95A9F78095B7
:0C13B0009095BC01CD010895F894FFCF8A
:1013BC002054656D703A20002048756D693A200004
:1013CC0020002E0054454D502F48554D2053656E2E
:1013DC00736F72004F7065726174696E672E2E00A8
:00000001FF
