:100000000C9472000C9494000C9494000C94940042
:100010000C9494000C9494000C9494000C94940010
:100020000C9494000C9494000C9494000C94940000
:100030000C9494000C9494000C9494000C949400F0
:100040000C9494000C9494000C9494000C949400E0
:100050000C9494000C9494000C9494000C949304CD
:100060000C9494000C9494000C9494000C949400C0
:100070000C9494000C9494000C9494000C949400B0
:100080000C9494000C9494000C9494000C949400A0
:100090000C9494000C9494000C9494000C94940090
:1000A0000C9494000C9494000C9494000C94940080
:1000B0000C9494000C9494000C9494000C94940070
:1000C0000C9494000C9494000C9494000C94B8003C
:1000D0000C9494000C9494000C9494000C94940050
:1000E0000C94940011241FBECFEFD1E2DEBFCDBF30
:1000F00000E00CBF12E0A0E0B2E0E2E4F2E100E0D8
:100100000BBF02C007900D92A030B107D9F71BBEFC
:1001100012E0A0E0B2E001C01D92A634B107E1F701
:100120000E941A050C941F090C940000806C8093A7
:100130007C00EAE7F0E087EA808380818064808346
:100140000895EAE7F0E0808184FFFDCF8091780098
:1001500090917900392F20E090E0822B932B089525
:10016000E0EDF0E0908195FFFDCF8093D6000895FB
:100170001F920F920FB60F920BB60F9211248F930E
:100180009F93EF93FF93909100028091D600E6E059
:10019000F2E0E90FF11D8083809100028F5F809370
:1001A000000280910002803410F010920002FF9152
:1001B000EF919F918F910F900BBE0F900FBE0F90FC
:1001C0001F901895E1E0F1E080818C7F8083E2E070
:1001D000F1E0808180831092D00088E98093D10083
:1001E00086E08093D2001092D50087E08093D400FF
:1001F00008950F931F93CF93DF93CDB7DEB7C05809
:10020000D0400FB6F894DEBF0FBECDBFFE01E85759
:10021000FF4F61917191CE0101964E2F5F2F0E9489
:100220004F068981882351F08E010E5F1F4F0E9477
:10023000B000F80181918F018823C9F7C058DF4FC2
:100240000FB6F894DEBF0FBECDBFDF91CF911F91E7
:100250000F91089580910002882379F08091000227
:10026000882349F080E090E001962091000230E080
:1002700082179307CCF31092000208958823E9F4C3
:10028000442369F021B181E090E0AC0102C0440F49
:10029000551F6A95E2F7BA01622B61B9089521B141
:1002A00081E090E0AC0102C0440F551F6A95E2F76F
:1002B000BA016095622361B908958130E9F444235D
:1002C00069F024B181E090E0AC0102C0440F551FF9
:1002D0006A95E2F7BA01622B64B9089524B181E00E
:1002E00090E0AC0102C0440F551F6A95E2F7BA01D5
:1002F0006095622364B908958230E9F4442369F07B
:1003000027B181E090E0AC0102C0440F551F6A950F
:10031000E2F7BA01622B67B9089527B181E090E056
:10032000AC0102C0440F551F6A95E2F7BA0160950F
:10033000622367B908958330E9F4442369F02AB150
:1003400081E090E0AC0102C0440F551F6A95E2F7CE
:10035000BA01622B6AB908952AB181E090E0AC013C
:1003600002C0440F551F6A95E2F7BA0160956223F7
:100370006AB908958430E9F4442369F02DB181E02D
:1003800090E0AC0102C0440F551F6A95E2F7BA0134
:10039000622B6DB908952DB181E090E0AC0102C0EF
:1003A000440F551F6A95E2F7BA01609562236DB953
:1003B00008958530E9F4442369F020B381E090E0AA
:1003C000AC0102C0440F551F6A95E2F7BA01622BD7
:1003D00060BB089520B381E090E0AC0102C0440FFF
:1003E000551F6A95E2F7BA016095622360BB0895D4
:1003F0008630E9F4442369F023B381E090E0AC0156
:1004000002C0440F551F6A95E2F7BA01622B63BB25
:10041000089523B381E090E0AC0102C0440F551F62
:100420006A95E2F7BA016095622363BB089587304D
:1004300009F5442379F0E1E0F1E0208181E090E0EA
:10044000AC0102C0440F551F6A95E2F7BA01622B56
:1004500060830895E1E0F1E0208181E090E0AC016B
:1004600002C0440F551F6A95E2F7BA0160956223F6
:1004700060830895893009F5442379F0E4E0F1E0E0
:10048000208181E090E0AC0102C0440F551F6A95C5
:10049000E2F7BA01622B60830895E4E0F1E0208185
:1004A00081E090E0AC0102C0440F551F6A95E2F76D
:1004B000BA0160956223608308958A3009F5442368
:1004C00079F0E7E0F1E0208181E090E0AC0102C04A
:1004D000440F551F6A95E2F7BA01622B60830895B5
:1004E000E7E0F1E0208181E090E0AC0102C0440F40
:1004F000551F6A95E2F7BA016095622360830895FB
:100500008B3001F5442379F0EAE0F1E0208181E0CD
:1005100090E0AC0102C0440F551F6A95E2F7BA01A2
:10052000622B60830895EAE0F1E0208181E090E0B1
:10053000AC0102C0440F551F6A95E2F7BA016095FD
:100540006223608308958823E9F4442369F022B18B
:1005500081E090E0AC0102C0440F551F6A95E2F7BC
:10056000BA01622B62B9089522B181E090E0AC013A
:1005700002C0440F551F6A95E2F7BA0160956223E5
:1005800062B908958130E9F4442369F025B181E02E
:1005900090E0AC0102C0440F551F6A95E2F7BA0122
:1005A000622B65B9089525B181E090E0AC0102C0ED
:1005B000440F551F6A95E2F7BA016095622365B949
:1005C00008958230E9F4442369F028B181E090E095
:1005D000AC0102C0440F551F6A95E2F7BA01622BC5
:1005E00068B9089528B181E090E0AC0102C0440FE1
:1005F000551F6A95E2F7BA016095622368B90895BC
:100600008330E9F4442369F02BB181E090E0AC0140
:1006100002C0440F551F6A95E2F7BA01622B6BB90D
:1006200008952BB181E090E0AC0102C0440F551F4A
:100630006A95E2F7BA01609562236BB90895843038
:10064000E9F4442369F02EB181E090E0AC0102C0EE
:10065000440F551F6A95E2F7BA01622B6EB90895EF
:100660002EB181E090E0AC0102C0440F551F6A95A5
:10067000E2F7BA01609562236EB908958530E9F416
:10068000442369F021B381E090E0AC0102C0440F43
:10069000551F6A95E2F7BA01622B61BB089521B339
:1006A00081E090E0AC0102C0440F551F6A95E2F76B
:1006B000BA016095622361BB08958630E9F4442352
:1006C00069F024B381E090E0AC0102C0440F551FF3
:1006D0006A95E2F7BA01622B64BB089524B381E006
:1006E00090E0AC0102C0440F551F6A95E2F7BA01D1
:1006F0006095622364BB0895873009F5442379F03F
:10070000E2E0F1E0208181E090E0AC0102C0440F22
:10071000551F6A95E2F7BA01622B60830895E2E003
:10072000F1E0208181E090E0AC0102C0440F551F50
:100730006A95E2F7BA016095622360830895893073
:1007400009F5442379F0E5E0F1E0208181E090E0D3
:10075000AC0102C0440F551F6A95E2F7BA01622B43
:1007600060830895E5E0F1E0208181E090E0AC0154
:1007700002C0440F551F6A95E2F7BA0160956223E3
:10078000608308958A3009F5442379F0E8E0F1E0C8
:10079000208181E090E0AC0102C0440F551F6A95B2
:1007A000E2F7BA01622B60830895E8E0F1E020816E
:1007B00081E090E0AC0102C0440F551F6A95E2F75A
:1007C000BA0160956223608308958B3001F544235C
:1007D00079F0EBE0F1E0208181E090E0AC0102C033
:1007E000440F551F6A95E2F7BA01622B60830895A2
:1007F000EBE0F1E0208181E090E0AC0102C0440F29
:10080000551F6A95E2F7BA016095622360830895E7
:10081000882359F420B130E0C90102C0959587952D
:100820006A95E2F7982F91707BC0813059F423B11B
:1008300030E0C90102C0959587956A95E2F7982F37
:1008400091706EC0823059F426B130E0C90102C007
:10085000959587956A95E2F7982F917061C08330DE
:1008600039F489B191E0681708F45AC090E058C093
:10087000843059F42CB130E0C90102C095958795B8
:100880006A95E2F7982F91704BC0853051F48FB183
:1008900090E002C0959587956A95E2F7982F917040
:1008A0003FC0863051F482B390E002C095958795A1
:1008B0006A95E2F7982F917033C0873059F4809190
:1008C000000190E002C0959587956A95E2F7982F10
:1008D000917026C0893059F48091030190E002C0E4
:1008E000959587956A95E2F7982F917019C08A308F
:1008F00059F48091060190E002C0959587956A951C
:10090000E2F7982F91700CC08B3051F4809109015F
:1009100090E002C0959587956A95E2F7982F9170BF
:10092000892F90E008951F920F920FB60F92112415
:100930008F939F9382ED86BD809103028F5F80939A
:100940000302843641F41092030281E090E0909318
:100950000202809301029F918F910F900FBE0F9022
:100960001F90189585E085BD82ED86BDEEE6F0E02E
:10097000808181608083A89A0895CF93C0E082E04F
:100980006C2F41E00E943E0182E06C2F40E00E940B
:10099000A3028AE06C2F41E00E943E018AE06C2FA6
:1009A00040E00E94A302CF5FC83049F7CF9108957D
:1009B000EF92FF920F931F93CF93DF938C01C0E0D0
:1009C000D0E0E62EFF24C7010C2E02C09595879536
:1009D0000A94E2F780FF12C00115110531F482E09C
:1009E0006C2F41E00E94A3021AC001301105B9F436
:1009F0008AE06C2F41E00E94A30211C0011511058D
:100A000031F482E06C2F40E00E94A30208C0013064
:100A1000110529F48AE06C2F40E00E94A302219680
:100A2000C830D10581F6DF91CF911F910F91FF90D2
:100A3000EF9008950E94BD0481E00E9496000E94FC
:100A4000B204789480910102909102028130910564
:100A500051F410920202109201020E94A1009093A0
:100A600005028093040280910402909105029C018A
:100A7000285532402832310558F481E090E060E892
:100A80000E94D80480E090E060E00E94D804DACFB1
:100A90009C01205332402832310558F481E090E027
:100AA00060EC0E94D80480E090E060E00E94D804EE
:100AB000C9CF9C01285032402832310558F481E0DA
:100AC00090E060EE0E94D80480E090E060E00E9438
:100AD000D804B8CF9C01205E31402832310558F44B
:100AE00081E090E060EF0E94D80480E090E060E058
:100AF0000E94D804A7CF9C01285B314028323105E1
:100B000058F481E090E068EF0E94D80480E090E023
:100B100060E00E94D80496CF9C01205931402832D1
:100B2000310558F481E090E06CEF0E94D80480E039
:100B300090E060E00E94D80485CF9C0128563140A7
:100B40002832310558F481E090E06EEF0E94D8041D
:100B500080E090E060E00E94D80474CF9C012054B3
:100B600031402832310558F481E090E06FEF0E9467
:100B7000D80480E090E060E00E94D80463CF9C013C
:100B8000285131402832310558F481E090E06FEF70
:100B90000E94D80480E090E060E80E94D80452CF20
:100BA0009C01205F30402832310558F481E090E00C
:100BB0006FEF0E94D80480E090E060EC0E94D804BF
:100BC00041CF9C01285C30402832310558F481E047
:100BD00090E06FEF0E94D80480E090E060EE0E9409
:100BE000D80430CF9C01205A30402832310558F4C7
:100BF00081E090E06FEF0E94D80480E090E060EF29
:100C00000E94D8041FCF9C0128573040283231055C
:100C100058F481E090E06FEF0E94D80480E090E00B
:100C200068EF0E94D8040ECF9C0120553040283236
:100C3000310558F481E090E06FEF0E94D80480E025
:100C400090E06CEF0E94D804FDCE9C012852304009
:100C50002832310558F481E090E06FEF0E94D8040B
:100C600080E090E06EEF0E94D804ECCE88329105CF
:100C700058F481E090E06FEF0E94D80480E090E0AB
:100C80006FEF0E94D804DECE81E090E060E00E9429
:100C9000D80480E090E060E00E94D804D3CE0F93A7
:100CA0001F93CF93DF93CDB7DEB72E970FB6F8948F
:100CB000DEBF0FBECDBF8C0186E08C831A83098313
:100CC0008FEF9FE79E838D83CE0101960E94780669
:100CD000EF81F885E00FF11F10822E960FB6F89481
:100CE000DEBF0FBECDBFDF91CF911F910F91089551
:100CF0002F923F924F925F926F927F928F929F922C
:100D0000AF92BF92CF92DF92EF92FF920F931F9319
:100D1000CF93DF93CDB7DEB72D970FB6F894DEBF34
:100D20000FBECDBF3C017D876C875A01FC01178245
:100D30001682838181FFC8C12E010894411C511C79
:100D4000F3019381EC85FD8593FD859193FF81915E
:100D5000FD87EC87882309F4B3C1853241F493FD04
:100D6000859193FF8191FD87EC87853229F490E08E
:100D7000B3010E949508E4CFFF24EE2410E0103266
:100D8000B0F48B3269F08C3228F4803251F0833227
:100D900071F40BC08D3239F0803349F411602CC0EE
:100DA0001260146029C0186027C0106125C017FDAB
:100DB0002EC0282F20532A3098F416FF08C08F2DFC
:100DC000880FF82EFF0CFF0CF80EF20E15C08E2DBA
:100DD000880FE82EEE0CEE0CE80EE20E10620CC04E
:100DE0008E3221F416FD6CC1106406C08C3611F4ED
:100DF000106802C0883659F4EC85FD8593FD859115
:100E000093FF8191FD87EC87882309F0B8CF982F55
:100E10009554933018F09052933038F424E030E039
:100E2000A20EB31E3FE339830FC0833631F0833700
:100E300081F0833509F05AC022C0F5018081898391
:100E400022E030E0A20EB31E21E0C22ED12C4201DE
:100E500014C092E0292E312C2A0C3B1CF501808015
:100E6000918016FF03C06F2D70E002C06FEF7FEF1F
:100E7000C4010E948A086C0151011F7715C082E0ED
:100E8000282E312C2A0C3B1CF5018080918016FF06
:100E900003C06F2D70E002C06FEF7FEFC4010E94AE
:100EA0007F086C011068510113FD1CC006C080E270
:100EB00090E0B3010E949508EA948E2D90E0C81648
:100EC000D906A8F30FC0F40117FD859117FF819192
:100ED0004F0190E0B3010E949508E110EA94089454
:100EE000C108D108C114D10471F7E7C0843611F0EC
:100EF000893651F5F50117FF07C080819181A281E4
:100F0000B38124E030E008C080819181AA2797FD59
:100F1000A095BA2F22E030E0A20EB31E012F0F766B
:100F2000B7FF08C0B095A095909581959F4FAF4FA2
:100F3000BF4F0068BC01CD01A2012AE030E00E9451
:100F4000C108D82ED4183FC0853721F41F7E2AE06F
:100F500030E020C0197F8F36A9F0803720F4883523
:100F600009F0AEC00BC0803721F0883709F0A8C067
:100F700001C0106114FF09C0146007C014FF08C04D
:100F8000166006C028E030E005C020E130E002C075
:100F900020E132E0F50117FF07C060817181828195
:100FA000938144E050E006C06081718180E090E070
:100FB00042E050E0A40EB51EA2010E94C108D82E46
:100FC000D418012F0F7706FF09C00E7FDF1430F40D
:100FD00004FF06C002FD04C00F7E02C01D2D01C02B
:100FE0001F2D802F90E004FF0CC0FE01ED0DF11DC0
:100FF0002081203311F4097E09C002FF06C01E5F64
:1010000005C086789070009709F01F5F802E9924A4
:1010100003FD12C000FF0DC0FD2C1E1550F4FE0C88
:10102000F11A1E2D06C080E290E0B3010E949508DF
:101030001F5F1E15C0F304C01E1510F4E11A01C095
:10104000EE2484FE0FC080E390E0B3010E94950877
:1010500082FE1FC081FE03C088E590E010C088E7D3
:1010600090E00DC0C40186789070009791F081FCEB
:1010700002C080E201C08BE207FD8DE290E0B30187
:101080000E94950806C080E390E0B3010E94950895
:10109000FA94DF14C0F3DA94F201ED0DF11D8081B2
:1010A00090E0B3010E949508DD20A9F706C080E218
:1010B00090E0B3010E949508EA94EE20C1F740CE7B
:1010C000F3018681978102C08FEF9FEF2D960FB6B7
:1010D000F894DEBF0FBECDBFDF91CF911F910F916E
:1010E000FF90EF90DF90CF90BF90AF909F908F9048
:1010F0007F906F905F904F903F902F900895FC01EC
:101100000590615070400110D8F7809590958E0F32
:101110009F1F0895FC016150704001900110D8F7A5
:10112000809590958E0F9F1F08950F931F93CF93D7
:10113000DF938C01EB018B8181FF1BC082FF0DC00F
:101140002E813F818C819D812817390764F4E881C5
:10115000F9810193F983E88306C0E885F985802F3A
:101160001995009731F48E819F8101969F838E831C
:1011700002C00FEF1FEFC801DF91CF911F910F91B8
:101180000895FA01AA27283051F1203181F1E8941D
:101190006F936E7F6E5F7F4F8F4F9F4FAF4FB1E06A
:1011A0003ED0B4E03CD0670F781F891F9A1FA11D65
:1011B000680F791F8A1F911DA11D6A0F711D811D66
:1011C000911DA11D20D009F468943F912AE0269F2B
:1011D00011243019305D3193DEF6CF010895462F8A
:1011E0004770405D4193B3E00FD0C9F7F6CF462F6B
:1011F0004F70405D4A3318F0495D31FD40524193D4
:1012000002D0A9F7EACFB4E0A69597958795779590
:101210006795BA95C9F700976105710508959B0117
:10122000AC010A2E06945795479537952795BA95A0
:10123000C9F7620F731F841F951FA01D0895F894AE
:02124000FFCFDE
:00000001FF
