S010000057696669546573742E73726563E5
S11300000C9472000C9494000C9494000C9494003E
S11300100C9494000C9494000C9494000C9494000C
S11300200C9494000C9494000C9494000C949400FC
S11300300C9494000C9494000C9494000C949400EC
S11300400C9494000C9494000C9494000C949400DC
S11300500C9494000C9494000C9494000C94300828
S11300600C9494000C942C010C9494000C94940023
S11300700C9494000C9494000C9494000C949400AC
S11300800C9494000C9494000C9494000C9494009C
S11300900C9494000C9494000C9494000C9494008C
S11300A00C9494000C9494000C9494000C9494007C
S11300B00C9494000C9494000C9494000C9494006C
S11300C00C9494000C9494000C9494000C949E0052
S11300D00C9494000C9494000C9494000C9494004C
S11300E00C94940011241FBECFEFD1E2DEBFCDBF2C
S11300F000E00CBF14E0A0E0B2E0E2E7FAE100E0C7
S11301000BBF02C007900D92A433B107D9F71BBEF1
S11301101AE0A4E3B4E001C01D92A638B107E1F7E8
S11301200E94BD080C94370D0C940000E0EDF0E043
S1130130908195FFFDCF8093D60008951F920F9272
S11301400FB60F920BB60F9211248F939F93EF93D8
S1130150FF93909134048091D600E4E4F4E0E90F35
S1130160F11D8083809134048F5F809334048091E7
S11301703404803410F010923404FF91EF919F9175
S11301808F910F900BBE0F900FBE0F901F9018957C
S1130190E1E0F1E080818C7F8083E2E0F1E0808126
S11301A080831092D00088E98093D10086E0809308
S11301B0D2001092D50087E08093D40008950F9365
S11301C01F93CF93DF93CDB7DEB7C058D0400FB69F
S11301D0F894DEBF0FBECDBFFE01E857FF4F61911B
S11301E07191CE0101964E2F5F2F0E94670A89817B
S11301F0882351F08E010E5F1F4F0E949600F80174
S113020081918F018823C9F7C058DF4F0FB6F89446
S1130210DEBF0FBECDBFDF91CF911F910F91089527
S113022080913404882379F080913404882349F040
S113023080E090E001962091340430E08217930727
S1130240CCF3109234040895E0ECF0E0908195FF33
S1130250FDCF8093C60008951F920F920FB60F92A0
S11302600BB60F9211248F939F93EF93FF9390916A
S11302703A048091C600E4E8F6E0E90FF11D8083BA
S113028080913A048F5F80933A0480913A04FF91FD
S1130290EF919F918F910F900BBE0F900FBE0F9017
S11302A01F90189556985E9889E999E5A1E08150C8
S11302B09040A040E1F70000569A8FEF9FE3A2E040
S11302C081509040A040E1F700C0000056985E9A2B
S11302D08FEF9FEFA9E581509040A040E1F700C067
S11302E000000895882311F05F9A01C05F988FEF92
S11302F09FEFA8E081509040A040E1F700C00000CB
S113030008958DB18C7F8DB98EB18EB91092C000D5
S113031088E98093C10086E08093C2001092C500F2
S113032087E08093C400579A5F9A0E9452018FEF2E
S11303309FE7A4E081509040A040E1F700C0000096
S113034081E00E9472011092850A1092840A089535
S11303500F931F93CF93DF93CDB7DEB7C058D04030
S11303600FB6F894DEBF0FBECDBFFE01E857FF4FB6
S113037061917191CE0101964E2F5F2F0E94670A01
S11303808981882351F08E010E5F1F4F0E94240142
S1130390F80181918F018823C9F7C058DF4F0FB648
S11303A0F894DEBF0FBECDBFDF91CF911F910F91A7
S11303B008958F929F92AF92BF92CF92DF92EF9265
S11303C0FF920F931F93CF93DF93CDB7DEB72A9796
S11303D00FB6F894DEBF0FBECDBF6C017B011616BD
S11303E017060CF076C0FC0180818A33C1F0319687
S11303F080E090E003C021912A3331F001968E15FC
S11304009F05C9F781E06EC0FFEF8F3F9F0709F496
S113041062C05C018C3091050CF05FC002C0AA245C
S1130420BB24850105501040B6016B5F7F4FCE01A0
S11304300196402F512F0E94190AE1E0F0E0EC0FE1
S1130440FD1FE00FF11F1082CE0101960E94FB09EF
S1130450AC01009709F443C0EA18FB088701015076
S113046010400817190734F5C7010196841795073A
S1130470C1F590933904809338040F2EF4E88F2E3D
S1130480F4E09F2EF02DB5016F5F7F4F6C0D7D1D45
S1130490882D992D402F512F0E94190AF401E00F45
S11304A0F11F8DE08083F401EE0DFF1D8AE080834F
S11304B080E018C0909339048093380484E894E071
S11304C0B5016F5F7F4F6C0D7D1D0E94190A80E09E
S11304D009C081E007C081E005C082E003C082E07A
S11304E001C081E02A960FB6F894DEBF0FBECDBFDF
S11304F0DF91CF911F910F91FF90EF90DF90CF90FC
S1130500BF90AF909F908F9008950F931F93CF93B8
S1130510DF93EC018B0160E072E042E050E00E9466
S1130520220A282F392F2115310509F46AC0888140
S11305308E3309F468C0073011056CF0CE0163E016
S113054072E047E050E00E94220A282F392F21153B
S1130550310509F45AC004301105C4F0CE016BE032
S113056072E044E050E00E94220A282F392F21151E
S1130570310561F4CE01B8010E94D901882309F440
S113058046C0813009F045C084E04EC005301105F5
S113059064F0CE0161E172E045E050E00E94220A7D
S11305A0282F392F21153105B1F10430110564F0DC
S11305B0CE0167E172E045E050E00E94220A282F54
S11305C0392F2115310549F10730110544F1CE01C8
S11305D06CE172E047E050E00E94220A282F392F94
S11305E021153105F1F0CE0164E272E047E050E0FC
S11305F00E94220A282F392F21153105A1F489E000
S113060013C082E011C088E00FC081E00DC083E018
S11306100BC080E009C085E007C086E005C08AE021
S113062003C087E001C080E0DF91CF911F910F915B
S113063008952F923F924F925F926F927F928F9282
S11306409F92AF92BF92CF92DF92EF92FF920F935D
S11306501F93CF93DF93CDB7DEB7C250D2400FB60E
S1130660F894DEBF0FBECDBF3C01C62E80913A0484
S1130670882309F40BC120913A04809135049091A8
S11306803604820F911D22E08030920744F01092CC
S113069036041092350410923704DD24F8C04091DA
S11306A03A0484E898E064E876E050E00E94190A8D
S11306B020913A048091350490913604820F911D63
S11306C0909336048093350410923A04DD24AA24CE
S11306D0BB2488248A94982C0F2EF4E8EF2EF8E09B
S11306E0FF2EF02DCF5FDD4FE882C150D240CE5FA8
S11306F0DD4FF882C250D2400F2EF6E84F2EF8E0BC
S11307005F2EF02D0F2EFEEF2F2EFFEF3F2EF02D3C
S1130710240C351C80913504909136041816190662
S11307200CF09BC08501B4018FEF6F3F780709F48B
S113073083C0F701E00FF11F80818A3009F083C084
S1130740CB0101968017910709F07DC08130910596
S113075019F5409135045091360442505040CE0171
S11307600196642D752D0E94190A4091350450910B
S1130770360442505040822D932DBE016F5F7F4F4F
S11307800E94190A8091350490913604029790933F
S1130790360480933504BECFCF5FDD4F8881C150CE
S11307A0D240CE5FDD4F9881C250D2400E94850274
S11307B0DC1428F4F301ED0DF11D8083D394209112
S11307C0350430913604C80101968217930719F451
S11307D0109237045CC0B8016B57774F40913504D1
S11307E050913604401B510B41505040CE010196AC
S11307F00E94190A4091350450913604401B510B54
S1130800415050408E2D9F2DBE016F5F7F4F0E943F
S1130810190A2091350430913604C80180959095C9
S1130820820F931F90933604809335042FEF0F3F6C
S1130830120709F06FCF11C0F701E00FF11F80819B
S11308408D3009F4B8010F5F1F4F809135049091EA
S11308503604081719070CF467CF81E08093370436
S1130860609135047091360484E898E00E94850212
S11308708A3031F0843021F010923604109235041D
S1130880F301ED0DF11D8083D39401C0DD248D2D82
S1130890CE5FDD4F0FB6F894DEBF0FBECDBFDF9144
S11308A0CF911F910F91FF90EF90DF90CF90BF9069
S11308B0AF909F908F907F906F905F904F903F90FC
S11308C02F900895CF93DF9300D00F92CDB7DEB76A
S11308D08091380490913904009799F0E091840A4A
S11308E0F091850A309749F04091380450913904C9
S11308F081E090E064E874E0199510923904109254
S1130900380480913A048823F1F0CE01019664E022
S11309100E9419038091380490913904009799F04A
S1130920E091840AF091850A309749F040913804A7
S11309305091390481E090E064E874E019951092D4
S11309403904109238040F900F900F900F90DF919C
S1130950CF9108952F923F924F925F926F927F9220
S11309608F929F92AF92BF92CF92DF92EF92FF92BB
S11309700F931F93CF93DF93CDB7DEB7C050D24010
S11309800FB6F894DEBF0FBECDBFEE24FF240F2EAA
S1130990F4E8AF2EF6E0BF2EF02D0F2EF1E12F2E4E
S11309A0F2E03F2EF02D0F2EF0E06F2EF2E07F2EBE
S11309B0F02D0F2EFBE04F2EF2E05F2EF02D8091F4
S11309C03A048823E1F380913A04882309F4A9C006
S11309D0CC24DD248824992485010C0D1D1DF801E7
S11309E08081E1E0F0E0EC0FFD1FEE0DFF1D808340
S11309F00894E11CF11CF80180810E949600F80122
S1130A0080818A3009F083C0F4E0EF16F1040CF41D
S1130A1079C0CE010196B30142E050E00E94220A5F
S1130A20282F392F2115310529F410923A0480E03A
S1130A3090E07AC0CE010196B20144E050E00E94F9
S1130A40220A282F392F2115310529F410923A044E
S1130A508FEF9FEF69C087E0E816F1048CF0CE01B8
S1130A600196B10145E050E00E94220A282F392F57
S1130A702115310529F410923A048FEF9FEF54C0E9
S1130A80E6E0EE16F10494F0CE01019667E172E01F
S1130A9045E050E00E94220A282F392F2115310504
S1130AA029F410923A048FEF9FEF3EC0F7E0EF165F
S1130AB0F10494F0CE0101966CE272E045E050E05E
S1130AC00E94220A282F392F2115310529F410926A
S1130AD03A0480E090E028C089E0E816F104A4F02C
S1130AE0CE01019663E072E047E050E00E94220AE2
S1130AF0282F392F2115310549F410923A0480E04A
S1130B0090E012C0740103C0740101C07401089420
S1130B10C11CD11C80913A0490E0C816D9060CF48B
S1130B205BCF10923A044BCFC050DE4F0FB6F8940F
S1130B30DEBF0FBECDBFDF91CF911F910F91FF900C
S1130B40EF90DF90CF90BF90AF909F908F907F9069
S1130B506F905F904F903F902F900895CF92DF92C7
S1130B60FF920F931F93CF93DF9300D00F92CDB7D3
S1130B70DEB70F2EF5E6CF2EDD24F02D00E0FF24A6
S1130B8011E0CE01019664E00E9419038823A1F0CC
S1130B90FE0131969F01280F311DC9012191283092
S1130BA029F0223029F0253021F426C0012F01C07C
S1130BB0F12EE817F90791F7002311F0FF20F9F45B
S1130BC00894C108D108C114D10479F40F920F928A
S1130BD083E392E0EDB7FEB7928381830E94DF0046
S1130BE00F900F908FEF9FEF0CC08FEF9FE801974E
S1130BF0F1F700C00000C5CF8FEF9FEF02C080E087
S1130C0090E00F900F900F900F90DF91CF911F9174
S1130C100F91FF90DF90CF9008950F931F93CF9380
S1130C20DF9300D00F92CDB7DEB705E610E0CE011A
S1130C30019664E00E9419038823B9F099819130E8
S1130C4069F1953071F1FE01329621E030E02C0F0C
S1130C503D1F280F311DC90105C02191213021F10B
S1130C60253029F1E817F907C1F70150104079F44C
S1130C700F920F928BE592E0EDB7FEB792838183DA
S1130C800E94DF000F900F908FEF9FEF12C08FEF45
S1130C909FE80197F1F700C00000C9CF80E090E021
S1130CA008C08FEF9FEF05C080E090E002C08FEF97
S1130CB09FEF0F900F900F900F90DF91CF911F91A6
S1130CC00F910895CF92DF92EF92FF920F931F93AB
S1130CD0CF93DF93CDB7DEB7C050D1400FB6F894B1
S1130CE0DEBF0FBECDBFDD2440E050E0BE016F5F2C
S1130CF07F4FEE24FF2404E816E0CC24C3948091B3
S1130D003A048823E1F380913A048823C1F3DB0198
S1130D10A40FB51F9701F801E20FF31F80818D9393
S1130D2080818A3039F5DD2021F1CE01039660E01F
S1130D3072E042E050E00E94220A282F392F211548
S1130D40310529F410923A0480E090E022C0CE01EB
S1130D50039661E172E045E050E00E94220A282FE8
S1130D60392F2115310599F410923A048FEF9FEF32
S1130D7010C0DC2CAD01461B570B2F5F3F4F8091F9
S1130D803A0490E0281739070CF0B9CFC4CF8FEF9D
S1130D909FEFC050DF4F0FB6F894DEBF0FBECDBF3C
S1130DA0DF91CF911F910F91FF90EF90DF90CF9043
S1130DB008950F920F928CE792E0ADB7BEB71296EA
S1130DC09C938E9311970E94A8018FEF9FEFA9E542
S1130DD081509040A040E1F700C000000F900F90B8
S1130DE00E94AA04089500D000D0EDB7FEB7319652
S1130DF027E832E0ADB7BEB712963C932E93119715
S1130E0093838283758364830E94A8018DB79EB700
S1130E1006960FB6F8949EBF0FBE8DBF0E94AA041B
S1130E2008950F920F9280EA92E0EDB7FEB7928395
S1130E3081830E94A8010F900F900E94AA04089534
S1130E400F920F928EEA92E0EDB7FEB79283818300
S1130E500E94A8010F900F900E94AA0408950F9277
S1130E600F928FEB92E0EDB7FEB7928381830E94DD
S1130E70A8010F900F900E94AA0408952DB73EB7C1
S1130E80285030400FB6F8943EBF0FBE2DBFEDB7CB
S1130E90FEB7319623ED32E0ADB7BEB712963C9360
S1130EA02E93119793838283448355836683778338
S1130EB00E94A8012DB73EB7285F3F4F0FB6F894A4
S1130EC03EBF0FBE2DBF0E94AA0408959093850AC9
S1130ED08093840A80E00895EF92FF920F931F930A
S1130EE0CF93DF93082F192FEB0100D00F928FEED1
S1130EF092E0ADB7BEB712969C938E931197149659
S1130F007C936E9313970E94A8010F900F900F90FB
S1130F100F900E94AE0599232CF01C161D060CF4AC
S1130F204AC057C00F920F928FEF92E0EDB7FEB711
S1130F30928381830E94DF0088E193E0ADB7BEB75E
S1130F4012969C938E9311970E94DF008091350432
S1130F50909136040F900F9018161906ECF5C0E026
S1130F60D0E004E818E00F2EFBE1EF2EF3E0FF2EB3
S1130F70F02DF801EC0FFD1F808100D00F92EDB72A
S1130F80FEB73196ADB7BEB71296FC92EE921197AA
S1130F90828313820E94DF00219680913504909110
S1130FA036040F900F900F900F90C817D9070CF3C9
S1130FB08FEF9FEF13C0E02EF12E00E010E0F70159
S1130FC081917F010E9424010F5F1F4F0C171D07A1
S1130FD0B1F70E940D0602C08FEF9FEFDF91CF9112
S1130FE01F910F91FF90EF90089510923A04109280
S1130FF036041092350408950F920F9282E293E022
S1131000ADB7BEB712969C938E9311970E94A80118
S11310108FEF9FE3A2E081509040A040E1F700C031
S113102000000F900F900E94620608950F920F9295
S113103084E393E0ADB7BEB712969C938E93119759
S11310400E94A8018FEF9FE7A4E081509040A04048
S1131050E1F700C000000F900F900E94F50708957B
S11310601F920F920FB60F9211244F935F936F93B9
S11310707F938F939F93AF93BF93F8948FE686BD2E
S11310808091400490914104A0914204B0914304A2
S11310900196A11DB11D8093400490934104A09337
S11310A04204B09343044091400450914104609140
S11310B042047091430480913C0490913D04A091BA
S11310C03E04B0913F04481759076A077B0758F05C
S11310D081E080933B0410924004109241041092EA
S11310E04204109243047894BF91AF919F918F91E1
S11310F07F916F915F914F910F900FBE0F901F9052
S1131100189585E085BD8FE686BDEEE6F0E080812A
S113111081608083A89A0895DC01CB0180933C040C
S113112090933D04A0933E04B0933F041092400476
S11311301092410410924204109243040895809145
S11311403B04882321F010923B0481E0089580E061
S113115008958130910581F400D00F928BE393E0E0
S1131160EDB7FEB792838183748363830E94DF00AB
S11311700F900F900F900F900895CF93DF93CDB7FA
S1131180DEB7C050D1400FB6F894DEBF0FBECDBF5E
S11311900E94C8000E94810178940F920F9285E406
S11311A093E0ADB7BEB712969C938E9311970E94AD
S11311B0DF008FEF9FEFACE281509040A040E1F759
S11311C000C000000F900F900E94F5070E941608BF
S11311D00E94F50789EA98E00E9466070E94FC07CE
S11311E00E94F5070E9411070E942F070F920F9289
S11311F087E593E0ADB7BEB712969C938E93119793
S11312000E94DF000F900F900E94D9060F920F9258
S11312108CE693E0EDB7FEB7928381830E94DF00F2
S11312200F900F908FE693E069E773E00E94F30656
S1131230882379F40F920F9283E893E0ADB7BEB799
S113124012969C938E9311970E94DF000F900F903B
S11312500CC00F920F9283E993E0EDB7FEB792832F
S113126081830E94DF000F900F900F920F9289EA02
S113127093E0ADB7BEB712969C938E9311970E94DC
S1131280DF000F900F900E9420070F920F928CE6C0
S113129093E0EDB7FEB7928381830E94DF000F9045
S11312A00F9082EC93E041E553EC60E070E00E9423
S11312B03E07882379F40F920F928FEC93E0ADB739
S11312C0BEB712969C938E9311970E94DF000F90E5
S11312D00F900CC00F920F9283EE93E0EDB7FEB720
S11312E0928381830E94DF000F900F900F920F92E0
S11312F08CE693E0ADB7BEB712969C938E9311978C
S11313000E94DF00DE011196EDEFF3E087E101902A
S11313100D928150E1F70F900F90CE01019667E195
S113132070E00E946C070E94810864E670E080E02F
S113133090E00E948C080F920F9284E194E0EDB744
S1131340FEB7928381830E94DF000F900F90EE24FA
S1131350FF248E010F5F1F4F0F2EF1E2AF2EF4E03A
S1131360BF2EF02D0F2EFCE28F2EF4E09F2EF02DD9
S11313700E9462040E949F088823D1F367010894A5
S1131380C11CD11C00D000D0EDB7FEB73196ADB76B
S1131390BEB712961C930E931197B382A282F58264
S11313A0E4820E94380AF80101900020E9F7BF01A5
S11313B061507040601B710B8DB79EB706960FB6D7
S11313C0F8949EBF0FBE8DBFC8010E946C0700D069
S11313D00F92ADB7BEB712969C928E921197149647
S11313E01C930E9313970E94DF000F900F900F90A1
S11313F00F907601BDCFFC0188279927E8942191AD
S11314002032E9F3293010F02E30C8F32B3241F0AA
S11314102D3239F4689404C00E94300A820F911D61
S1131420219120532A30C0F31EF4909581959F4F4B
S11314300895FB01DC0102C001900D92415050401F
S1131440D8F70895FB01DC014150504030F08D91F4
S11314500190801919F40020B9F7881B990B08959D
S11314607AE0979F902D879F802D910D11240895E8
S11314700F931F93CF93DF93CDB7DEB72E970FB69D
S1131480F894DEBF0FBECDBF0E891F8986E08C8322
S11314901A8309838FEF9FE79E838D83AE01465E97
S11314A05F4FCE010196688D798D0E94900AEF817D
S11314B0F885E00FF11F10822E960FB6F894DEBF68
S11314C00FBECDBFDF91CF911F910F9108950F9360
S11314D01F93CF93DF93CDB7DEB72E970FB6F89453
S11314E0DEBF0FBECDBF8C0186E08C831A830983D7
S11314F08FEF9FE79E838D83CE0101960E94900A11
S1131500EF81F885E00FF11F10822E960FB6F89444
S1131510DEBF0FBECDBFDF91CF911F910F91089514
S11315202F923F924F925F926F927F928F929F92EF
S1131530AF92BF92CF92DF92EF92FF920F931F93DD
S1131540CF93DF93CDB7DEB72D970FB6F894DEBFF8
S11315500FBECDBF3C017D876C875A01FC01178209
S11315601682838181FFC8C12E010894411C511C3D
S1131570F3019381EC85FD8593FD859193FF819122
S1131580FD87EC87882309F4B3C1853241F493FDC8
S1131590859193FF8191FD87EC87853229F490E052
S11315A0B3010E94AD0CE4CFFF24EE2410E010320E
S11315B0B0F48B3269F08C3228F4803251F08332EB
S11315C071F40BC08D3239F0803349F411602CC0B2
S11315D01260146029C0186027C0106125C017FD6F
S11315E02EC0282F20532A3098F416FF08C08F2DC0
S11315F0880FF82EFF0CFF0CF80EF20E15C08E2D7E
S1131600880FE82EEE0CEE0CE80EE20E10620CC011
S11316108E3221F416FD6CC1106406C08C3611F4B0
S1131620106802C0883659F4EC85FD8593FD8591D8
S113163093FF8191FD87EC87882309F0B8CF982F19
S11316409554933018F09052933038F424E030E0FD
S1131650A20EB31E3FE339830FC0833631F08337C4
S113166081F0833509F05AC022C0F5018081898355
S113167022E030E0A20EB31E21E0C22ED12C4201A2
S113168014C092E0292E312C2A0C3B1CF5018080D9
S1131690918016FF03C06F2D70E002C06FEF7FEFE3
S11316A0C4010E94A20C6C0151011F7715C082E095
S11316B0282E312C2A0C3B1CF5018080918016FFCA
S11316C003C06F2D70E002C06FEF7FEFC4010E9472
S11316D0970C6C011068510113FD1CC006C080E218
S11316E090E0B3010E94AD0CEA948E2D90E0C816F0
S11316F0D906A8F30FC0F40117FD859117FF819156
S11317004F0190E0B3010E94AD0CE110EA940894FB
S1131710C108D108C114D10471F7E7C0843611F0AF
S1131720893651F5F50117FF07C080819181A281A7
S1131730B38124E030E008C080819181AA2797FD1D
S1131740A095BA2F22E030E0A20EB31E012F0F762F
S1131750B7FF08C0B095A095909581959F4FAF4F66
S1131760BF4F0068BC01CD01A2012AE030E00E9415
S1131770D90CD82ED4183FC0853721F41F7E2AE017
S113178030E020C0197F8F36A9F0803720F48835E7
S113179009F0AEC00BC0803721F0883709F0A8C02B
S11317A001C0106114FF09C0146007C014FF08C011
S11317B0166006C028E030E005C020E130E002C039
S11317C020E132E0F50117FF07C060817181828159
S11317D0938144E050E006C06081718180E090E034
S11317E042E050E0A40EB51EA2010E94D90CD82EEE
S11317F0D418012F0F7706FF09C00E7FDF1430F4D1
S113180004FF06C002FD04C00F7E02C01D2D01C0EE
S11318101F2D802F90E004FF0CC0FE01ED0DF11D83
S11318202081203311F4097E09C002FF06C01E5F27
S113183005C086789070009709F01F5F802E992468
S113184003FD12C000FF0DC0FD2C1E1550F4FE0C4C
S1131850F11A1E2D06C080E290E0B3010E94AD0C87
S11318601F5F1E15C0F304C01E1510F4E11A01C059
S1131870EE2484FE0FC080E390E0B3010E94AD0C1F
S113188082FE1FC081FE03C088E590E010C088E797
S113189090E00DC0C40186789070009791F081FCAF
S11318A002C080E201C08BE207FD8DE290E0B3014B
S11318B00E94AD0C06C080E390E0B3010E94AD0C21
S11318C0FA94DF14C0F3DA94F201ED0DF11D808176
S11318D090E0B3010E94AD0CDD20A9F706C080E2C0
S11318E090E0B3010E94AD0CEA94EE20C1F740CE23
S11318F0F3018681978102C08FEF9FEF2D960FB67B
S1131900F894DEBF0FBECDBFDF91CF911F910F9131
S1131910FF90EF90DF90CF90BF90AF909F908F900B
S11319207F906F905F904F903F902F900895FC01AF
S11319300590615070400110D8F7809590958E0FF6
S11319409F1F0895FC016150704001900110D8F769
S1131950809590958E0F9F1F08950F931F93CF939B
S1131960DF938C01EB018B8181FF1BC082FF0DC0D3
S11319702E813F818C819D812817390764F4E88189
S1131980F9810193F983E88306C0E885F985802FFE
S11319901995009731F48E819F8101969F838E83E0
S11319A002C00FEF1FEFC801DF91CF911F910F917C
S11319B00895FA01AA27283051F1203181F1E894E1
S11319C06F936E7F6E5F7F4F8F4F9F4FAF4FB1E02E
S11319D03ED0B4E03CD0670F781F891F9A1FA11D29
S11319E0680F791F8A1F911DA11D6A0F711D811D2A
S11319F0911DA11D20D009F468943F912AE0269FEF
S1131A0011243019305D3193DEF6CF010895462F4D
S1131A104770405D4193B3E00FD0C9F7F6CF462F2E
S1131A204F70405D4A3318F0495D31FD4052419397
S1131A3002D0A9F7EACFB4E0A69597958795779554
S1131A406795BA95C9F700976105710508959B01DB
S1131A50AC010A2E06945795479537952795BA9564
S1131A60C9F7620F731F841F951FA01D0895F89472
S1051A70FFCFA2
S1131A724F4B0053454E44204F4B002B4950442CAE
S1131A82004552524F52004641494C00414C524586
S1131A9241445900627573792E2E2E00414C5245F1
S1131AA24159005761697453656E64526561647982
S1131AB2576974686F75745072696E7420636F75B8
S1131AC26E746572206572720D0A00576169744FF3
S1131AD24B576974686F75745072696E7420636FC2
S1131AE2756E746572206572720D0A0041542B433F
S1131AF2574C41500D0A0041542B43574A41505F01
S1131B024445463D222573222C222573220D0A00C8
S1131B1241542B43574D4F44453D330D0A00415424
S1131B222B4349505354415F4355523F0D0A0041E0
S1131B32542B4357444843505F4355523D312C3153
S1131B420D0A0041542B43495053544152543D22EF
S1131B52544350222C222573222C25750D0A004150
S1131B62542B43495053454E443D25640D0A007796
S1131B7269666953656E644461746120776169744E
S1131B8220657272202D3000263A005B25303258CF
S1131B925D0041542B43574155544F434F4E4E3DE4
S1131BA2300D0A00415445300D0A000D0A52583ACC
S1131BB225730D0A0077696669207465737420734E
S1131BC2746172740D0A000D0A4150206C697374B9
S1131BD220646973706C61793A0D0A000D0A00433E
S1131BE2534E45542D3330310067776E75636F6DF4
S1131BF2736500415020636F6E6E65637465642E75
S1131C020D0A00415020636F6E6E656374696F6ED6
S1131C12206661696C2E0D0A000D0A20416C6C6FFE
S1131C226361746564206C6F63616C2049503A0D82
S1131C320A003139322E3136382E312E34320043F5
S1131C426F6E6E6563746564205365727665722E79
S1131C520D0A0053657276657220636F6E6E65635A
S1131C6274696F6E206661696C2E0D0A0074657367
S1131C7274206D736573736167653A2068656C6C73
S1131C826F0D0A007374617274204C6F6F700D0AC9
S1131C920068656C6C6F3A25640D0A0054583A2545
S1071CA2730D0A00B0
S9030000FC
