:100000000C9472000C9494000C9494000C94940042
:100010000C9494000C9494000C9494000C94940010
:100020000C9494000C9494000C9494000C94940000
:100030000C9494000C9494000C9494000C949400F0
:100040000C9494000C9494000C9494000C949400E0
:100050000C9494000C9494000C9494000C94CA1486
:100060000C9494000C9496060C9494000C949400B8
:100070000C9494000C9494000C9494000C949400B0
:100080000C9494000C9494000C9494000C949400A0
:100090000C9476040C9494000C9494000C949400AA
:1000A0000C9494000C9494000C9494000C94940080
:1000B0000C9494000C9494000C9494000C94940070
:1000C0000C9494000C9494000C9494000C940806E6
:1000D0000C9494000C9494000C9494000C94940050
:1000E0000C94940011241FBECFEFD1E2DEBFCDBF30
:1000F00000E00CBF15E0A0E0B2E0E4EAF0E300E0CD
:100100000BBF02C007900D92AC3BB107D9F71BBEE5
:1001100010E1ACEBB5E001C01D92A837B107E1F7E3
:100120000E944F020C9450180C940000806C809335
:100130007C00EAE7F0E087EA808380818064808346
:100140000895EAE7F0E0808184FFFDCF8091780098
:1001500090917900392F20E090E0822B932B089525
:10016000EF92FF920F931F93CF93DF93CDB7DEB73C
:100170002C970FB6F894DEBF0FBECDBF813091052E
:1001800009F0E8C08A01222717FD2095322FCB0104
:10019000B901A8019E012F5F3F4F8E010B5F1F4FDA
:1001A0000F2EF9E0EF2EFF24F02DEC0EFD1E0E9425
:1001B0003C148DB79EB70A970FB6F8949EBF0FBE3A
:1001C0008DBFEDB7FEB7319680E092E0ADB7BEB718
:1001D00012969C938E9311978D819E81AF81B885E5
:1001E00082839383A483B58389859A85AB85BC85F7
:1001F00086839783A087B1870E944906EDB7FEB733
:100200003A960FB6F894FEBF0FBEEDBF89819A8172
:10021000AB81BC8184319105A105B105C1F1853166
:100220009105A105B10538F482319105A105B1050B
:1002300009F082C00DC085319105A105B10509F411
:1002400041C086319105A105B10509F075C059C0BD
:100250008D819E819093E5058093E4058091E4056E
:100260009091E50500D00F9226E132E0ADB7BEB720
:1002700012963C932E93119714969C938E931397FA
:100280000E9449060F900F900F900F9063C08D81D0
:100290009E819093E1058093E0058091E005909127
:1002A000E10500D00F922AE232E0EDB7FEB73283CB
:1002B0002183948383830E9449060F900F900F90AF
:1002C0000F9048C08D819E819093E3058093E20555
:1002D0008091E2059091E30500D00F922EE332E089
:1002E000ADB7BEB712963C932E93119714969C937C
:1002F0008E9313970E9449060F900F900F900F90C6
:1003000029C08D819E819093D3058093D2058091E1
:10031000D2059091D30500D00F9222E532E0EDB7DF
:10032000FEB732832183948383830E9449060F9012
:100330000F900F900F900EC00F920F9288E692E0F0
:10034000ADB7BEB712969C938E9311970E94490643
:100350000F900F902C960FB6F894DEBF0FBECDBF56
:10036000DF91CF911F910F91FF90EF900895CF9261
:10037000DF92EF92FF920F931F93CF93DF9300D002
:100380000F92CDB7DEB769018A01222717FD2095AC
:10039000322FEE24D7FCE094FE2CAE014F5F5F4F6E
:1003A0000E94ED13009769F40F920F9282E892E099
:1003B000EDB7FEB7928381830E9449060F900F909C
:1003C00015C02091D105222329F069817A810E94EC
:1003D000D60C0CC00F920F9285EA92E0EDB7FEB7F3
:1003E000928381830E9449060F900F900F900F9087
:1003F0000F900F90DF91CF911F910F91FF90EF9091
:10040000DF90CF900895CF92DF92EF92FF920F93FB
:100410001F93CF93DF9300D00F92CDB7DEB7690162
:100420008A01222717FD2095322FEE24D7FCE09475
:10043000FE2CAE014F5F5F4F0E94ED13009769F4F1
:100440000F920F928EEB92E0EDB7FEB7928381830D
:100450000E9449060F900F9015C02091D1052223CC
:1004600029F069817A810E94D60C0CC00F920F92FC
:1004700085EA92E0EDB7FEB7928381830E94490638
:100480000F900F900F900F900F900F90DF91CF91E2
:100490001F910F91FF90EF90DF90CF900895CF9331
:1004A000DF93CDB7DEB766970FB6F894DEBF0FBE09
:1004B000CDBF0E9432060E94EB060E94B8047894D9
:1004C0000F920F928FED92E0ADB7BEB712969C934C
:1004D0008E9311970E9449068FEF92E0EDB7FEB719
:1004E000928381830E94CB048FEF9FEFACE2815017
:1004F0009040A040E1F700C000000F900F900E94D4
:10050000FC048FEF9FEFA3EB81509040A040E1F7F8
:1005100000C000000F920F9288E093E0ADB7BEB725
:1005200012969C938E9311970E9449068FEF9FEF2E
:10053000ACE281509040A040E1F700C000000F9075
:100540000F900E945F0D0E94800D0E945F0D80EB56
:1005500090E00E94D00C0E94660D0E945F0D0E94E8
:100560007B0C0E94990C0F920F9285E193E0ADB73E
:10057000BEB712969C938E9311970E9449060F90D6
:100580000F900E94430C0F920F928AE293E0EDB716
:10059000FEB7928381830E9449060F900F908DE2EF
:1005A00093E066E373E00E945D0C882379F40F9278
:1005B0000F9284E493E0ADB7BEB712969C938E93EE
:1005C00011970E9449060F900F900CC00F920F9246
:1005D00084E593E0EDB7FEB7928381830E944906DC
:1005E0000F900F900F920F928AE693E0ADB7BEB7CF
:1005F00012969C938E9311970E9449060F900F902C
:100600000E948A0C0F920F928AE293E0EDB7FEB738
:10061000928381830E9449060F900F9083E893E0B4
:1006200041E553EC60E070E00E94A80C882391F44F
:1006300081E08093D1050F920F9282E993E0ADB7EC
:10064000BEB712969C938E9311970E9449060F9005
:100650000F900EC01092D1050F920F9286EA93E090
:10066000EDB7FEB7928381830E9449060F900F90E9
:100670000F920F928AE293E0ADB7BEB712969C93A9
:100680008E9311970E9449060F900F900E945F0D64
:100690008FEF9FEFACE281509040A040E1F700C0A7
:1006A0000000DE011196E3E5F4E082E101900D9295
:1006B0008150E1F7DE015396E5E6F4E083E0019036
:1006C0000D928150E1F71E8A00D000D0EDB7FEB741
:1006D000319681E0ADB7BEB711968C93CE014396AB
:1006E0009283818382E08383CE01469695838483BF
:1006F00067E574E080E090E020E130E040E050E029
:100700000F2EF6E1EF2EF0E0FF2EF0E00F2FF0E0DD
:100710001F2FF02D6E010894C11CD11CAA24A39494
:10072000882483940E9405126B017C018FEF9FEF58
:100730009093D3058093D205EDB7FEB736960FB6EA
:10074000F894FEBF0FBEEDBF8AE090E060E070E07D
:1007500041E050E022E030E002E010E00E9493111E
:1007600081E00E944B1189E991E80197F1F700C0FF
:1007700080E80E944B11ABE2B3E01197F1F7C7019B
:10078000B6014FEF5FEF20E030E00E9403020E94CD
:100790001B1564E670E080E090E00E94261500D012
:1007A0000F9280EC93E0EDB7FEB7928381838CE3E8
:1007B00090E0948383830E9449060F900F900F90DE
:1007C0000F9007ED13E00F2EF1E3EF2EF4E0FF2E74
:1007D000F02D0F2EF2E4CF2EF4E0DF2EF02D0F2EB1
:1007E000FFE0AF2EF4E0BF2EF02D0F2EF0E28F2EA3
:1007F000F4E09F2EF02D0F2EFDEE6F2EF3E07F2EF6
:10080000F02D0F2EFEEF4F2EF3E05F2EF02D809196
:10081000D2059091D30500D00F92ADB7BEB7129616
:100820001C930E93119714969C938E9313970E948A
:1008300049068091D2059091D3050F900F900F90AB
:100840000F9081309105A9F4C3010E943C1180EC06
:100850000E944B11EBE2F3E03197F1F7C2010E94E5
:100860003C1182E00E944B118BE293E00197F1F77B
:1008700030C08091D2059091D30582309105A9F4C2
:10088000C5010E943C1180EC0E944B11ABE2B3E029
:100890001197F1F7C4010E943C1182E00E944B11B4
:1008A000EBE2F3E03197F1F714C0C7010E943C116D
:1008B00080EC0E944B118BE293E00197F1F7C601A7
:1008C0000E943C1182E00E944B11ABE2B3E0119711
:1008D000F1F70E94CC090E94391599CFE8ECF0E0BD
:1008E000908195FFFDCF8093CE0008951F920F92C7
:1008F0000FB60F920BB60F9211248F939F93EF9325
:10090000FF939091BC058091CE00E6EEF5E0E90FF3
:10091000F11D80838091BC058F5F8093BC05809121
:10092000BC05FF91EF919F918F910F900BBE0F909F
:100930000FBE0F901F9018951092C80088E9809301
:10094000C90086E08093CA001092CD0080E18093B8
:10095000CC0008951092C80088E98093C90086E011
:100960008093CA001092CD008FE58093CC0008954B
:100970008AB1837F8AB98BB18BB90E94AA040E9485
:10098000BC068FEF9FE7A4E081509040A040E1F7C4
:1009900000C0000008950F931F93CF93DF93CDB74E
:1009A000DEB7C058D0400FB6F894DEBF0FBECDBF43
:1009B000FE01E857FF4F61917191CE0101964E2FD4
:1009C0005F2F0E9480158981882351F08E010E5F70
:1009D0001F4F0E946E04F80181918F018823C9F78F
:1009E000C058DF4F0FB6F894DEBF0FBECDBFDF910A
:1009F000CF911F910F9108956F927F928F929F9246
:100A0000AF92BF92CF92DF92EF92FF920F931F931C
:100A1000CF93DF938091BC05882309F497C0809120
:100A2000BC05843108F492C08091E6058F3409F04A
:100A300070C08091E7058B3409F06BC08091ED05A3
:100A40008A3309F066C00F2EF4EDEF2EF5E0FF2E8D
:100A5000F02DC8E0D0E0CC24DD24C39400E010E009
:100A60000F2EF6EEAF2EF5E0BF2EF02D0F2EFAE68C
:100A70008F2EF4E09F2EF02D0F2EF8E66F2EF4E06F
:100A80007F2EF02D09C00F5F1F4F0894C11CD11C91
:100A900021960894E11CF11C00FD0FC00115110501
:100AA000D9F10F920F92ADB7BEB712967C926E92AB
:100AB00011970E9449060F900F90F501EC0FFD1F52
:100AC0008081F701808300D00F92EDB7FEB7319699
:100AD000ADB7BEB712969C928E9211978283138205
:100AE0000E9449060F900F900F900F90BCE0CB161C
:100AF000D1044CF20F920F928DE694E0EDB7FEB761
:100B0000928381830E9449061092BC050F900F903A
:100B10001DC01092BC051AC0F501EC0FFD1F8081AD
:100B2000D7018C9300D00F92EDB7FEB73196ADB7D9
:100B3000BEB712969C928E921197828313820E9466
:100B400049060F900F900F900F909DCFDF91CF919E
:100B50001F910F91FF90EF90DF90CF90BF90AF90DB
:100B60009F908F907F906F900895CF92DF92EF9239
:100B7000FF920F931F93CF93DF938091BC0588233F
:100B8000B1F18091BC05882381F100E010E00F2EC7
:100B9000F6EEEF2EF5E0FF2EF02D0F2EF2E7CF2E22
:100BA000F4E0DF2EF02DE701C00FD11F88810E94F5
:100BB0000006888100D00F92EDB7FEB73196ADB731
:100BC000BEB71296DC92CE921197828313820E9456
:100BD00049060F5F1F4F8091BC0590E00F900F906A
:100BE0000F900F9008171907F4F21092BC05DF91CF
:100BF000CF911F910F91FF90EF90DF90CF900895CC
:100C0000E0EDF0E0908195FFFDCF8093D600089550
:100C10001F920F920FB60F920BB60F9211248F9363
:100C20009F93EF93FF939091BD058091D600E6EEE0
:100C3000F7E0E90FF11D80838091BD058F5F809300
:100C4000BD058091BD05803410F01092BD05FF9167
:100C5000EF919F918F910F900BBE0F900FBE0F9051
:100C60001F901895E1E0F1E080818C7F8083E2E0C5
:100C7000F1E0808180831092D00088E98093D100D8
:100C800086E08093D2001092D50087E08093D40054
:100C900008950F931F93CF93DF93CDB7DEB7C0585E
:100CA000D0400FB6F894DEBF0FBECDBFFE01E857AF
:100CB000FF4F61917191CE0101964E2F5F2F0E94DF
:100CC00080158981882351F08E010E5F1F4F0E948D
:100CD0000006F80181918F018823C9F7C058DF4FC2
:100CE0000FB6F894DEBF0FBECDBFDF91CF911F913D
:100CF0000F9108958091BD05882379F08091BD05FD
:100D0000882349F080E090E001962091BD0530E015
:100D100082179307CCF31092BD050895E0ECF0E044
:100D2000908195FFFDCF8093C60008951F920F928A
:100D30000FB60F920BB60F9211248F939F93EF93E0
:100D4000FF939091C3058091C600E6E2FAE0E90FB7
:100D5000F11D80838091C3058F5F8093C3058091CF
:100D6000C305FF91EF919F918F910F900BBE0F9054
:100D70000FBE0F901F90189556985E9889E999E5D7
:100D8000A1E081509040A040E1F70000569A8FEF1B
:100D90009FE3A2E081509040A040E1F700C0000036
:100DA00056985E9A8FEF9FEFA9E581509040A04042
:100DB000E1F700C000000895882311F05F9A01C098
:100DC0005F988FEF9FEFA8E081509040A040E1F73F
:100DD00000C0000008958DB18C7F8DB98EB18EB9A1
:100DE0001092C00088E98093C10086E08093C20021
:100DF0001092C50087E08093C400579A5F9A0E94C2
:100E0000BC068FEF9FE7A4E081509040A040E1F73F
:100E100000C0000081E00E94DC061092270E1092B4
:100E2000260E08950F931F93CF93DF93CDB7DEB7B0
:100E3000C058D0400FB6F894DEBF0FBECDBFFE0144
:100E4000E857FF4F61917191CE0101964E2F5F2FB0
:100E50000E9480158981882351F08E010E5F1F4FFB
:100E60000E948E06F80181918F018823C9F7C0582E
:100E7000DF4F0FB6F894DEBF0FBECDBFDF91CF912D
:100E80001F910F9108958F929F92AF92BF92CF9230
:100E9000DF92EF92FF920F931F93CF93DF93CDB723
:100EA000DEB72A970FB6F894DEBF0FBECDBF6C0138
:100EB0007B01161617060CF076C0FC0180818A3380
:100EC000C1F0319680E090E003C021912A3331F0E7
:100ED00001968E159F05C9F781E06EC0FFEF8F3F29
:100EE0009F0709F462C05C018C3091050CF05FC073
:100EF00002C0AA24BB24850105501040B6016B5FD7
:100F00007F4FCE010196402F512F0E946115E1E0E5
:100F1000F0E0EC0FFD1FE00FF11F1082CE010196F3
:100F20000E944315AC01009709F443C0EA18FB087E
:100F30008701015010400817190734F5C7010196C1
:100F400084179507C1F59093C2058093C1050F2EB4
:100F5000F6E28F2EF8E09F2EF02DB5016F5F7F4FE8
:100F60006C0D7D1D882D992D402F512F0E946115EC
:100F7000F401E00FF11F8DE08083F401EE0DFF1D01
:100F80008AE0808380E018C09093C2058093C105F9
:100F900086E298E0B5016F5F7F4F6C0D7D1D0E946A
:100FA000611580E009C081E007C081E005C082E0F2
:100FB00003C082E001C081E02A960FB6F894DEBF3C
:100FC0000FBECDBFDF91CF911F910F91FF90EF909A
:100FD000DF90CF90BF90AF909F908F9008950F9328
:100FE0001F93CF93DF93EC018B0169E774E042E03C
:100FF00050E00E946A15282F392F2115310509F478
:101000006AC088818E3309F468C0073011056CF01E
:10101000CE016CE774E047E050E00E946A15282F8B
:10102000392F2115310509F45AC004301105C4F0D7
:10103000CE0164E874E044E050E00E946A15282F75
:10104000392F2115310561F4CE01B8010E94430703
:10105000882309F446C0813009F045C084E04EC0C1
:101060000530110564F0CE016AE874E045E050E017
:101070000E946A15282F392F21153105B1F104304E
:10108000110564F0CE0160E974E045E050E00E9493
:101090006A15282F392F2115310549F1073011051F
:1010A00044F1CE0165E974E047E050E00E946A1522
:1010B000282F392F21153105F1F0CE016DE974E0AB
:1010C00047E050E00E946A15282F392F211531057D
:1010D000A1F489E013C082E011C088E00FC081E074
:1010E0000DC083E00BC080E009C085E007C086E04A
:1010F00005C08AE003C087E001C080E0DF91CF91A6
:101100001F910F9108952F923F924F925F926F928D
:101110007F928F929F92AF92BF92CF92DF92EF9287
:10112000FF920F931F93CF93DF93CDB7DEB7C250DB
:10113000D2400FB6F894DEBF0FBECDBF3C01C62E25
:101140008091C305882309F40BC12091C3058091C8
:10115000BE059091BF05820F911D22E0803092075D
:1011600044F01092BF051092BE051092C005DD2418
:10117000F8C04091C30586E29CE066E27AE050E068
:101180000E9461152091C3058091BE059091BF0515
:10119000820F911D9093BF058093BE051092C305E9
:1011A000DD24AA24BB2488248A94982C0F2EF6E2EE
:1011B000EF2EFCE0FF2EF02DCF5FDD4FE882C15017
:1011C000D240CE5FDD4FF882C250D2400F2EF8E2FF
:1011D0004F2EFCE05F2EF02D0F2EFEEF2F2EFFEF97
:1011E0003F2EF02D240C351C8091BE059091BF053B
:1011F000181619060CF09BC08501B4018FEF6F3FE4
:10120000780709F483C0F701E00FF11F80818A306D
:1012100009F083C0CB0101968017910709F07DC0CA
:101220008130910519F54091BE055091BF0542509E
:101230005040CE010196642D752D0E94611540919C
:10124000BE055091BF0542505040822D932DBE01E6
:101250006F5F7F4F0E9461158091BE059091BF0521
:1012600002979093BF058093BE05BECFCF5FDD4F41
:101270008881C150D240CE5FDD4F9881C250D240AC
:101280000E94EF07DC1428F4F301ED0DF11D8083BB
:10129000D3942091BE053091BF05C80101968217F5
:1012A000930719F41092C0055CC0B801695D734FD3
:1012B0004091BE055091BF05401B510B415050401D
:1012C000CE0101960E9461154091BE055091BF0567
:1012D000401B510B415050408E2D9F2DBE016F5F22
:1012E0007F4F0E9461152091BE053091BF05C80156
:1012F00080959095820F931F9093BF058093BE05B4
:101300002FEF0F3F120709F06FCF11C0F701E00F69
:10131000F11F80818D3009F4B8010F5F1F4F80915C
:10132000BE059091BF05081719070CF467CF81E03F
:101330008093C0056091BE057091BF0586E29CE078
:101340000E94EF078A3031F0843021F01092BF05FF
:101350001092BE05F301ED0DF11D8083D39401C001
:10136000DD248D2DCE5FDD4F0FB6F894DEBF0FBEAE
:10137000CDBFDF91CF911F910F91FF90EF90DF9044
:10138000CF90BF90AF909F908F907F906F905F9025
:101390004F903F902F900895CF93DF9300D00F92FE
:1013A000CDB7DEB78091C1059091C205009799F045
:1013B000E091260EF091270E309749F04091C1053B
:1013C0005091C20581E090E066E278E019951092B4
:1013D000C2051092C1058091C3058823F1F0CE01AA
:1013E000019664E00E9483088091C1059091C20536
:1013F000009799F0E091260EF091270E309749F072
:101400004091C1055091C20581E090E066E278E02C
:1014100019951092C2051092C1050F900F900F9070
:101420000F90DF91CF9108952F923F924F925F924C
:101430006F927F928F929F92AF92BF92CF92DF92E4
:10144000EF92FF920F931F93CF93DF93CDB7DEB749
:10145000C050D2400FB6F894DEBF0FBECDBFEE2411
:10146000FF240F2EF6E2AF2EFAE0BF2EF02D0F2E46
:10147000FAE82F2EF4E03F2EF02D0F2EF9E76F2E15
:10148000F4E07F2EF02D0F2EF4E84F2EF4E05F2EC7
:10149000F02D8091C3058823E1F38091C305882353
:1014A00009F4A9C0CC24DD248824992485010C0DDD
:1014B0001D1DF8018081E1E0F0E0EC0FFD1FEE0D55
:1014C000FF1D80830894E11CF11CF80180810E94BB
:1014D0000006F80180818A3009F083C0F4E0EF163D
:1014E000F1040CF479C0CE010196B30142E050E062
:1014F0000E946A15282F392F2115310529F41092E1
:10150000C30580E090E07AC0CE010196B20144E0CC
:1015100050E00E946A15282F392F2115310529F432
:101520001092C3058FEF9FEF69C087E0E816F104C2
:101530008CF0CE010196B10145E050E00E946A15A1
:10154000282F392F2115310529F41092C3058FEF6B
:101550009FEF54C0E6E0EE16F10494F0CE01019640
:1015600060E974E045E050E00E946A15282F392FA9
:101570002115310529F41092C3058FEF9FEF3EC06E
:10158000F7E0EF16F10494F0CE01019665EA74E0FD
:1015900045E050E00E946A15282F392F21153105AA
:1015A00029F41092C30580E090E028C089E0E81695
:1015B000F104A4F0CE0101966CE774E047E050E03E
:1015C0000E946A15282F392F2115310549F41092F0
:1015D000C30580E090E012C0740103C0740101C033
:1015E00074010894C11CD11C8091C30590E0C816F9
:1015F000D9060CF45BCF1092C3054BCFC050DE4F21
:101600000FB6F894DEBF0FBECDBFDF91CF911F9113
:101610000F91FF90EF90DF90CF90BF90AF909F9091
:101620008F907F906F905F904F903F902F90089594
:10163000CF92DF92FF920F931F93CF93DF9300D04F
:101640000F92CDB7DEB70F2EF5E6CF2EDD24F02DAD
:1016500000E0FF2411E0CE01019664E00E948308BF
:101660008823A1F0FE0131969F01280F311DC90189
:101670002191283029F0223029F0253021F426C08C
:10168000012F01C0F12EE817F90791F7002311F09F
:10169000FF20F9F40894C108D108C114D10479F4E9
:1016A0000F920F928CEA94E0EDB7FEB7928381839C
:1016B0000E9449060F900F908FEF9FEF0CC08FEFA5
:1016C0009FE80197F1F700C00000C5CF8FEF9FEFB3
:1016D00002C080E090E00F900F900F900F90DF918C
:1016E000CF911F910F91FF90DF90CF9008950F93AE
:1016F0001F93CF93DF9300D00F92CDB7DEB705E6EF
:1017000010E0CE01019664E00E9483088823B9F0BE
:101710009981913069F1953071F1FE01329621E0A5
:1017200030E02C0F3D1F280F311DC90105C021914C
:10173000213021F1253029F1E817F907C1F70150CF
:10174000104079F40F920F9284ED94E0EDB7FEB75C
:10175000928381830E9449060F900F908FEF9FEF35
:1017600012C08FEF9FE80197F1F700C00000C9CFCA
:1017700080E090E008C08FEF9FEF05C080E090E030
:1017800002C08FEF9FEF0F900F900F900F90DF919F
:10179000CF911F910F910895CF92DF92EF92FF9218
:1017A0000F931F93CF93DF93CDB7DEB7C050D140D7
:1017B0000FB6F894DEBF0FBECDBFDD2440E050E091
:1017C000BE016F5F7F4FEE24FF2406E21AE0CC24B7
:1017D000C3948091C3058823E1F38091C3058823D6
:1017E000C1F3DB01A40FB51F9701F801E20FF31F4E
:1017F00080818D9380818A3039F5DD2021F1CE0101
:10180000039669E774E042E050E00E946A15282FD1
:10181000392F2115310529F41092C30580E090E09D
:1018200022C0CE0103966AE874E045E050E00E94D1
:101830006A15282F392F2115310599F41092C30507
:101840008FEF9FEF10C0DC2CAD01461B570B2F5FB5
:101850003F4F8091C30590E0281739070CF0B9CFAE
:10186000C4CF8FEF9FEFC050DF4F0FB6F894DEBFAD
:101870000FBECDBFDF91CF911F910F91FF90EF90E1
:10188000DF90CF9008950F920F9285EF94E0ADB75F
:10189000BEB712969C938E9311970E9412078FEFFA
:1018A0009FEFA9E581509040A040E1F700C0000003
:1018B0000F900F900E94140A089500D000D0EDB749
:1018C000FEB7319620E035E0ADB7BEB712963C9337
:1018D0002E93119793838283758364830E941207EA
:1018E0008DB79EB706960FB6F8949EBF0FBE8DBFFC
:1018F0000E94140A08950F920F9289E195E0EDB7C6
:10190000FEB7928381830E9412070F900F900E946E
:10191000140A08950F920F9287E295E0EDB7FEB793
:10192000928381830E9412070F900F900E94140AE5
:1019300008950F920F9288E395E0EDB7FEB792837A
:1019400081830E9412070F900F900E94140A08953D
:101950002DB73EB7285030400FB6F8943EBF0FBEAB
:101960002DBFEDB7FEB731962CE435E0ADB7BEB76D
:1019700012963C932E9311979383828344835583CD
:10198000668377830E9412072DB73EB7285F3F4FCB
:101990000FB6F8943EBF0FBE2DBF0E94140A0895E3
:1019A0009093270E8093260E80E00895EF92FF9289
:1019B0000F931F93CF93DF93082F192FEB0100D0C4
:1019C0000F9288E695E0ADB7BEB712969C938E93C2
:1019D000119714967C936E9313970E9412070F90A1
:1019E0000F900F900F900E94180B99232CF01C164B
:1019F0001D060CF44AC057C00F920F9288E795E07D
:101A0000EDB7FEB7928381830E94490681E995E094
:101A1000ADB7BEB712969C938E9311970E9449065C
:101A20008091BE059091BF050F900F901816190672
:101A3000ECF5C0E0D0E006E21CE00F2EF4E9EF2E5A
:101A4000F5E0FF2EF02DF801EC0FFD1F808100D096
:101A50000F92EDB7FEB73196ADB7BEB71296FC92B6
:101A6000EE921197828313820E94490621968091FB
:101A7000BE059091BF050F900F900F900F90C81763
:101A8000D9070CF38FEF9FEF13C0E02EF12E00E08B
:101A900010E0F70181917F010E948E060F5F1F4FBA
:101AA0000C171D07B1F70E94770B02C08FEF9FEF55
:101AB000DF91CF911F910F91FF90EF9008951092B9
:101AC000C3051092BF051092BE0508950F920F92A4
:101AD0008BE995E0ADB7BEB712969C938E931197A4
:101AE0000E9412078FEF9FE3A2E081509040A04038
:101AF000E1F700C000000F900F900E94CC0B0895FA
:101B00000F920F928DEA95E0ADB7BEB712969C93F7
:101B10008E9311970E9412078FEF9FE7A4E08150E8
:101B20009040A040E1F700C000000F900F900E948D
:101B30005F0D08958823E9F4442369F021B181E021
:101B400090E0AC0102C0440F551F6A95E2F7BA015C
:101B5000622B61B9089521B181E090E0AC0102C02F
:101B6000440F551F6A95E2F7BA016095622361B987
:101B700008958130E9F4442369F024B181E090E0D4
:101B8000AC0102C0440F551F6A95E2F7BA01622BFF
:101B900064B9089524B181E090E0AC0102C0440F23
:101BA000551F6A95E2F7BA016095622364B90895FA
:101BB0008230E9F4442369F027B181E090E0AC0180
:101BC00002C0440F551F6A95E2F7BA01622B67B94C
:101BD000089527B181E090E0AC0102C0440F551F89
:101BE0006A95E2F7BA016095622367B90895833078
:101BF000E9F4442369F02AB181E090E0AC0102C02D
:101C0000440F551F6A95E2F7BA01622B6AB908952D
:101C10002AB181E090E0AC0102C0440F551F6A95E3
:101C2000E2F7BA01609562236AB908958430E9F455
:101C3000442369F02DB181E090E0AC0102C0440F73
:101C4000551F6A95E2F7BA01622B6DB908952DB15F
:101C500081E090E0AC0102C0440F551F6A95E2F7A5
:101C6000BA01609562236DB908958530E9F4442383
:101C700069F020B381E090E0AC0102C0440F551F31
:101C80006A95E2F7BA01622B60BB089520B381E048
:101C900090E0AC0102C0440F551F6A95E2F7BA010B
:101CA0006095622360BB08958630E9F4442369F0AF
:101CB00023B381E090E0AC0102C0440F551F6A9548
:101CC000E2F7BA01622B63BB089523B381E090E091
:101CD000AC0102C0440F551F6A95E2F7BA01609546
:101CE000622363BB0895873009F5442379F0E1E06E
:101CF000F1E0208181E090E0AC0102C0440F551F6B
:101D00006A95E2F7BA01622B60830895E1E0F1E0A1
:101D1000208181E090E0AC0102C0440F551F6A951C
:101D2000E2F7BA016095622360830895893009F56E
:101D3000442379F0E4E0F1E0208181E090E0AC011F
:101D400002C0440F551F6A95E2F7BA01622B608307
:101D50000895E4E0F1E0208181E090E0AC0102C070
:101D6000440F551F6A95E2F7BA01609562236083BC
:101D700008958A3009F5442379F0E7E0F1E0208105
:101D800081E090E0AC0102C0440F551F6A95E2F774
:101D9000BA01622B60830895E7E0F1E0208181E0E1
:101DA00090E0AC0102C0440F551F6A95E2F7BA01FA
:101DB00060956223608308958B3001F5442379F0A8
:101DC000EAE0F1E0208181E090E0AC0102C0440F44
:101DD000551F6A95E2F7BA01622B60830895EAE025
:101DE000F1E0208181E090E0AC0102C0440F551F7A
:101DF0006A95E2F7BA0160956223608308958823AB
:101E0000E9F4442369F022B181E090E0AC0102C022
:101E1000440F551F6A95E2F7BA01622B62B9089523
:101E200022B181E090E0AC0102C0440F551F6A95D9
:101E3000E2F7BA016095622362B908958130E9F44E
:101E4000442369F025B181E090E0AC0102C0440F69
:101E5000551F6A95E2F7BA01622B65B9089525B15D
:101E600081E090E0AC0102C0440F551F6A95E2F793
:101E7000BA016095622365B908958230E9F444237C
:101E800069F028B181E090E0AC0102C0440F551F19
:101E90006A95E2F7BA01622B68B9089528B181E02A
:101EA00090E0AC0102C0440F551F6A95E2F7BA01F9
:101EB0006095622368B908958330E9F4442369F09A
:101EC0002BB181E090E0AC0102C0440F551F6A9530
:101ED000E2F7BA01622B6BB908952BB181E090E073
:101EE000AC0102C0440F551F6A95E2F7BA01609534
:101EF00062236BB908958430E9F4442369F02EB16C
:101F000081E090E0AC0102C0440F551F6A95E2F7F2
:101F1000BA01622B6EB908952EB181E090E0AC0158
:101F200002C0440F551F6A95E2F7BA01609562231B
:101F30006EB908958530E9F4442369F021B381E056
:101F400090E0AC0102C0440F551F6A95E2F7BA0158
:101F5000622B61BB089521B381E090E0AC0102C027
:101F6000440F551F6A95E2F7BA016095622361BB81
:101F700008958630E9F4442369F024B381E090E0C9
:101F8000AC0102C0440F551F6A95E2F7BA01622BFB
:101F900064BB089524B381E090E0AC0102C0440F1B
:101FA000551F6A95E2F7BA016095622364BB0895F4
:101FB000873009F5442379F0E2E0F1E0208181E007
:101FC00090E0AC0102C0440F551F6A95E2F7BA01D8
:101FD000622B60830895E2E0F1E0208181E090E0EF
:101FE000AC0102C0440F551F6A95E2F7BA01609533
:101FF000622360830895893009F5442379F0E5E090
:10200000F1E0208181E090E0AC0102C0440F551F57
:102010006A95E2F7BA01622B60830895E5E0F1E08A
:10202000208181E090E0AC0102C0440F551F6A9509
:10203000E2F7BA0160956223608308958A3009F55A
:10204000442379F0E8E0F1E0208181E090E0AC0108
:1020500002C0440F551F6A95E2F7BA01622B6083F4
:102060000895E8E0F1E0208181E090E0AC0102C059
:10207000440F551F6A95E2F7BA01609562236083A9
:1020800008958B3001F5442379F0EBE0F1E02081F5
:1020900081E090E0AC0102C0440F551F6A95E2F761
:1020A000BA01622B60830895EBE0F1E0208181E0CA
:1020B00090E0AC0102C0440F551F6A95E2F7BA01E7
:1020C0006095622360830895882359F420B130E03D
:1020D000C90102C0959587956A95E2F7982F91708E
:1020E0007BC0813059F423B130E0C90102C095951D
:1020F00087956A95E2F7982F91706EC0823059F4F7
:1021000026B130E0C90102C0959587956A95E2F73E
:10211000982F917061C0833039F489B191E06817CC
:1021200008F45AC090E058C0843059F42CB130E023
:10213000C90102C0959587956A95E2F7982F91702D
:102140004BC0853051F48FB190E002C095958795D2
:102150006A95E2F7982F91703FC0863051F482B3B0
:1021600090E002C0959587956A95E2F7982F917057
:1021700033C0873059F48091000190E002C09595FA
:1021800087956A95E2F7982F917026C0893059F4A7
:102190008091030190E002C0959587956A95E2F7DA
:1021A000982F917019C08A3059F48091060190E0FF
:1021B00002C0959587956A95E2F7982F91700CC0AB
:1021C0008B3051F48091090190E002C0959587957C
:1021D0006A95E2F7982F9170892F90E008950F93F8
:1021E0001F93CF93DF93082F8AE060E040E00E94C6
:1021F000FF0E8AE061E040E00E94FF0E8AE062E0AC
:1022000040E00E94FF0E8AE060E041E00E94FF0E85
:10221000C0E0D0E010E0C8010C2E02C09595879573
:102220000A94E2F780FF06C082E06C2F41E00E9432
:10223000FF0E05C082E06C2F40E00E94FF0E219649
:10224000C830D10541F78AE062E041E00E94FF0E0C
:1022500085E991E00197F1F700C08AE062E040E093
:102260000E94FF0E85E991E00197F1F700C0DF9130
:10227000CF911F910F910895CF93DF93EC01888147
:10228000882331F021960E94EF1089918823D9F795
:10229000DF91CF9108950F931F93CF93DF93082F72
:1022A0008AE060E040E00E94FF0E8AE061E040E0EA
:1022B0000E94FF0E8AE062E040E00E94FF0EC0E054
:1022C000D0E010E0C8010C2E02C0959587950A94C5
:1022D000E2F780FF06C082E06C2F41E00E94FF0E13
:1022E00005C082E06C2F40E00E94FF0E2196C830AE
:1022F000D10541F78AE062E041E00E94FF0E85E9E6
:1023000091E00197F1F700C08AE062E040E00E94AE
:10231000FF0E85E991E00197F1F700C0DF91CF91C1
:102320001F910F910895EF92FF920F931F93CF93F8
:10233000DF93C82FF62E142FD22FE02E00E08E2D23
:10234000602F41E00E949A0D8E2D602F40E00E9488
:10235000FF0E0F5F083099F78C2F6F2D41E00E9420
:102360009A0D8C2F6F2D40E00E94FF0E8C2F612F55
:1023700041E00E949A0D8C2F612F40E00E94FF0ED9
:102380008C2F6D2F41E00E949A0D8C2F6D2F40E015
:102390000E94FF0E85E991E00197F1F700C08C2FB4
:1023A0006D2F40E00E94FF0E85E991E00197F1F763
:1023B00000C088E30E944B118BE293E00197F1F794
:1023C0008FE00E944B118BE293E00197F1F782E0DE
:1023D0000E944B1189E991E80197F1F700C081E073
:1023E0000E944B1189E991E80197F1F700C086E05E
:1023F0000E944B118BE293E00197F1F7DF91CF91AF
:102400001F910F91FF90EF9008952F923F924F925E
:102410005F926F927F928F92AF92CF92DF92EF9204
:10242000FF920F931F93CF93DF9300D00F92CDB7FE
:10243000DEB72B013C01BA01A9018091C40590913E
:10244000C505A091C605B091C70588309105A105C5
:10245000B10508F0A2C18091C4059091C505A09175
:10246000C605B091C70589839A83AB83BC838981F4
:102470009A810F2EFAE42F2E3324F02D829D9001A5
:10248000839D300D929D300D1124F901E85DF14FCF
:102490008DEF80838EEF818380E1868383E490E0FB
:1024A000A0E0B0E082839383A483B58347A250A6C3
:1024B00061A672A64387548765877687E782F08690
:1024C00001871287F901ED5AF14FA4EBB5E088E0DE
:1024D0000D9001928150E1F7EC2DFD2DDF010D9063
:1024E0000020E9F71197AD014E1B5F0B8AE490E0E5
:1024F000E981FA81E89F9001E99F300DF89F300D46
:102500001124255C314F84E1D9011D928A95E9F7A8
:1025100044315105B0F089819A812AE430E0829FEC
:10252000A001839F500D929F500D1124FA01E55C8C
:10253000F14FAC2DBD2D84E10D9001928150E1F75A
:1025400012C08AE490E0E981FA81E89F9001E99F56
:10255000300DF89F300D1124C901855C914F6C2D11
:102560007D2D0E94611589819A812AE430E0829F45
:10257000A001839F500D929F500D1124485D514F33
:10258000DA01D596AC92B2E0B81568F4829FA0014A
:10259000839F500D929F500D1124485D514F82E052
:1025A000FA0186AB11C089819A812AE430E0829FCA
:1025B000A001839F500D929F500D1124485D514FF3
:1025C000DA01D6968C92D69789819A812AE430E0F6
:1025D000829FA001839F500D929F500D1124485D52
:1025E000514FFA011786108A118A128A882009F43D
:1025F000B0C04AE450E0888D87AB69817A81649FDE
:10260000F001659FF00D749FF00D1124E05AF14F19
:102610001082118212821382E98DFA8DDF010D90F2
:102620000020E9F71197AE1BBF0BA430B105C8F02D
:1026300089819A812AE430E0829FA001839F500D16
:10264000929F500D1124485D514FE98DFA8D808184
:102650009181A281B381FA0180AF91AFA2AFB3AFF4
:1026600014C08AE490E049815A81489F9001499FB3
:10267000300D589F300D1124C901805A914F698D3A
:102680007A8D4A2F5B2F0E94611551E0581508F092
:1026900060C089819A814AE450E0849F9001859FBF
:1026A000300D949F300D11242859314F8B8DD90155
:1026B0008C9369817A81649FF001659FF00D749F0E
:1026C000F00D1124E759F14F10821182128213820A
:1026D000E98DFA8DDF010D900020E9F71197AE1B0F
:1026E000BF0BA430B105C8F029813A818AE490E09B
:1026F000289FA001299F500D389F500D1124475944
:10270000514FEC8DFD8D80819181A281B381FA01C1
:1027100080839183A283B3831CC02AE430E0498183
:102720005A81429FC001439F900D529F900D1124EA
:102730008759914FEC8DFD8DDF010D900020E9F759
:10274000AD01415050404E1B5F0B6E2F7F2F0E94FA
:10275000611549815A812AE430E0429FC001439FBC
:10276000900D529F900D11248F58914F2FEFFC0127
:1027700020838091C4059091C505A091C605B091B4
:10278000C7050196A11DB11D8093C4059093C50591
:10279000A093C605B093C70507C04FEF5FEFBA011E
:1027A00049835A836B837C8369817A818B819C8185
:1027B0000F900F900F900F90DF91CF911F910F917D
:1027C000FF90EF90DF90CF90AF908F907F906F90C1
:1027D0005F904F903F902F9008958F929F92AF926D
:1027E000BF92CF92DF92EF92FF920F931F93CF93FE
:1027F000DF93DC01CB01EA01480159014091C40596
:102800005091C5056091C6057091C705841795075D
:10281000A607B70710F52AE430E0829FA001839F46
:10282000500D929F500D1124FA01E85DF14F84AED6
:1028300095AEA6AEB7AEEB5BFF4FC082D182E2820F
:10284000F3828AE490E0A0E0B0E088839983AA83D1
:10285000BB83CA01885D914F02C080E090E0DF91A8
:10286000CF911F910F91FF90EF90DF90CF90BF908D
:10287000AF909F908F9008958F929F92AF92BF924A
:10288000EF92FF920F931F93CF93DF93EC014A01D6
:102890005B014A3451056105710599F588818D3FC9
:1028A000A9F589818E3FB9F5FE01E75BFF4F808175
:1028B0008F3FB1F58A819B81AC81BD8183349105C5
:1028C000A105B10591F58F819885A0E0B0E0F901EF
:1028D00080839183A283B3838CAD9DADAEADBFAD3C
:1028E000F80180839183A283B383CB5BDF4F888120
:1028F0009981AA81BB81F70180839183A283B383ED
:1029000018C088248A94982C540113C088248A946F
:10291000982C54010EC088248A94982C540109C024
:1029200088248A94982C540104C088248A94982C72
:102930005401682D792D8A2D9B2DDF91CF911F9108
:102940000F91FF90EF90BF90AF909F908F90089560
:10295000DC01CB014091C4055091C5056091C605CD
:102960007091C70584179507A607B70780F42AE476
:1029700030E0829FF001839FF00D929FF00D1124B3
:10298000E85DF14F87819085A185B28508958FEF2D
:102990009FEF08951F920F920FB60F9211244F933D
:1029A0005F936F937F938F939F93AF93BF93F894AD
:1029B0008FE686BD8091CD059091CE05A091CF0583
:1029C000B091D0050196A11DB11D8093CD059093C6
:1029D000CE05A093CF05B093D0054091CD05509181
:1029E000CE056091CF057091D0058091C905909179
:1029F000CA05A091CB05B091CC05481759076A07C5
:102A00007B0758F081E08093C8051092CD051092A5
:102A1000CE051092CF051092D0057894BF91AF915A
:102A20009F918F917F916F915F914F910F900FBE0A
:102A30000F901F90189585E085BD8FE686BDEEE668
:102A4000F0E0808181608083A89A0895DC01CB0149
:102A50008093C9059093CA05A093CB05B093CC058C
:102A60001092CD051092CE051092CF051092D00590
:102A700008958091C805882321F01092C80581E04F
:102A8000089580E00895FC0188279927E894219112
:102A90002032E9F3293010F02E30C8F32B3241F008
:102AA0002D3239F4689404C00E947815820F911D6C
:102AB000219120532A30C0F31EF4909581959F4FA9
:102AC0000895FB01DC0102C001900D92415050407D
:102AD000D8F70895FB01DC014150504030F08D9152
:102AE0000190801919F40020B9F7881B990B0895FB
:102AF0007AE0979F902D879F802D910D1124089546
:102B00000F931F93CF93DF93CDB7DEB72E970FB6FA
:102B1000F894DEBF0FBECDBF8C0186E08C831A8394
:102B200009838FEF9FE79E838D83CE0101960E94DC
:102B3000A915EF81F885E00FF11F10822E960FB6D0
:102B4000F894DEBF0FBECDBFDF91CF911F910F91E3
:102B500008952F923F924F925F926F927F928F9241
:102B60009F92AF92BF92CF92DF92EF92FF920F931C
:102B70001F93CF93DF93CDB7DEB72D970FB6F894A1
:102B8000DEBF0FBECDBF3C017D876C875A01FC01C3
:102B900017821682838181FFC8C12E010894411CCF
:102BA000511CF3019381EC85FD8593FD859193FF85
:102BB0008191FD87EC87882309F4B3C1853241F404
:102BC00093FD859193FF8191FD87EC87853229F4F0
:102BD00090E0B3010E94C617E4CFFF24EE2410E07A
:102BE0001032B0F48B3269F08C3228F4803251F01C
:102BF000833271F40BC08D3239F0803349F41160A7
:102C00002CC01260146029C0186027C0106125C054
:102C100017FD2EC0282F20532A3098F416FF08C025
:102C20008F2D880FF82EFF0CFF0CF80EF20E15C03A
:102C30008E2D880FE82EEE0CEE0CE80EE20E1062E0
:102C40000CC08E3221F416FD6CC1106406C08C36A7
:102C500011F4106802C0883659F4EC85FD8593FDA7
:102C6000859193FF8191FD87EC87882309F0B8CF88
:102C7000982F9554933018F09052933038F424E004
:102C800030E0A20EB31E3FE339830FC0833631F02C
:102C9000833781F0833509F05AC022C0F501808165
:102CA000898322E030E0A20EB31E21E0C22ED12C97
:102CB000420114C092E0292E312C2A0C3B1CF50154
:102CC0008080918016FF03C06F2D70E002C06FEF0F
:102CD0007FEFC4010E94BB176C0151011F7715C023
:102CE00082E0282E312C2A0C3B1CF501808091803B
:102CF00016FF03C06F2D70E002C06FEF7FEFC401BD
:102D00000E94B0176C011068510113FD1CC006C071
:102D100080E290E0B3010E94C617EA948E2D90E005
:102D2000C816D906A8F30FC0F40117FD859117FF47
:102D300081914F0190E0B3010E94C617E110EA941F
:102D40000894C108D108C114D10471F7E7C08436D2
:102D500011F0893651F5F50117FF07C08081918187
:102D6000A281B38124E030E008C080819181AA274C
:102D700097FDA095BA2F22E030E0A20EB31E012FDE
:102D80000F76B7FF08C0B095A095909581959F4F9D
:102D9000AF4FBF4F0068BC01CD01A2012AE030E077
:102DA0000E94F217D82ED4183FC0853721F41F7E19
:102DB0002AE030E020C0197F8F36A9F0803720F458
:102DC000883509F0AEC00BC0803721F0883709F094
:102DD000A8C001C0106114FF09C0146007C014FF2F
:102DE00008C0166006C028E030E005C020E130E0F1
:102DF00002C020E132E0F50117FF07C06081718158
:102E00008281938144E050E006C06081718180E05E
:102E100090E042E050E0A40EB51EA2010E94F2171D
:102E2000D82ED418012F0F7706FF09C00E7FDF14AC
:102E300030F404FF06C002FD04C00F7E02C01D2D49
:102E400001C01F2D802F90E004FF0CC0FE01ED0D8E
:102E5000F11D2081203311F4097E09C002FF06C054
:102E60001E5F05C086789070009709F01F5F802E66
:102E7000992403FD12C000FF0DC0FD2C1E1550F457
:102E8000FE0CF11A1E2D06C080E290E0B3010E94F4
:102E9000C6171F5F1E15C0F304C01E1510F4E11AFB
:102EA00001C0EE2484FE0FC080E390E0B3010E94D5
:102EB000C61782FE1FC081FE03C088E590E010C0E7
:102EC00088E790E00DC0C40186789070009791F07B
:102ED00081FC02C080E201C08BE207FD8DE290E040
:102EE000B3010E94C61706C080E390E0B3010E94C0
:102EF000C617FA94DF14C0F3DA94F201ED0DF11D58
:102F0000808190E0B3010E94C617DD20A9F706C0BA
:102F100080E290E0B3010E94C617EA94EE20C1F768
:102F200040CEF3018681978102C08FEF9FEF2D96EF
:102F30000FB6F894DEBF0FBECDBFDF91CF911F91CA
:102F40000F91FF90EF90DF90CF90BF90AF909F9048
:102F50008F907F906F905F904F903F902F9008954B
:102F6000FC010590615070400110D8F78095909554
:102F70008E0F9F1F0895FC01615070400190011059
:102F8000D8F7809590958E0F9F1F08950F931F93EC
:102F9000CF93DF938C01EB018B8181FF1BC082FFFC
:102FA0000DC02E813F818C819D812817390764F4E3
:102FB000E881F9810193F983E88306C0E885F98502
:102FC000802F1995009731F48E819F8101969F8300
:102FD0008E8302C00FEF1FEFC801DF91CF911F91C9
:102FE0000F910895FA01AA27283051F1203181F17B
:102FF000E8946F936E7F6E5F7F4F8F4F9F4FAF4F01
:10300000B1E03ED0B4E03CD0670F781F891F9A1F13
:10301000A11D680F791F8A1F911DA11D6A0F711DC7
:10302000811D911DA11D20D009F468943F912AE0D3
:10303000269F11243019305D3193DEF6CF010895BB
:10304000462F4770405D4193B3E00FD0C9F7F6CFEC
:10305000462F4F70405D4A3318F0495D31FD4052B4
:10306000419302D0A9F7EACFB4E0A695979587954A
:1030700077956795BA95C9F7009761057105089529
:103080009B01AC010A2E06945795479537952795D5
:10309000BA95C9F7620F731F841F951FA01D08956D
:0430A000F894FFCFD2
:1030A40076616C7565313A25642C76616C75653290
:1030B4003A25640D0A00676E46616E4F6E56616C68
:1030C4007565203A2025640D0A00676E4C65644FCF
:1030D4006E56616C7565203A2025640D0A00676E92
:1030E4004D6F746F7256616C7565203A2025640DBE
:1030F4000A00676E546578744C636456616C756538
:10310400203A2025640D0A006E6F20737570706F6D
:1031140072746564206F626A6563742069642E0D3D
:103124000A0053656E6453656E736F722044617454
:1031340061202D2D206D616B65506B74206572725A
:103144006F722E0A00646973636F6E6E65637465D3
:10315400642C207478206572726F720D0A006163AA
:10316400747561746F722044617461202D2D206D1B
:10317400616B65506B74206572726F722E0A000D5C
:103184000A7265616420426C7565746F6F7468209F
:103194004D61632041646472657373200D0A0041BC
:1031A400542B414444523F0077696669207374612B
:1031B40072740D0A000D0A4150206C697374206406
:1031C4006973706C61793A0D0A000D0A00434E442C
:1031D400495F41455300636E64693331333138329A
:1031E40032343600415020636F6E6E6563746564DB
:1031F4002E0D0A00415020636F6E6E656374696F13
:103204006E206661696C2E0D0A000D0A20416C6CFB
:103214006F6361746564206C6F63616C2049503A1C
:103224000D0A003139322E3136382E31302E3134F8
:103234003100436F6E6E6563746564205365727606
:1032440065722E0D0A0053657276657220636F6E87
:103254006E656374696F6E206661696C2E0D0A0079
:10326400494E4445585F454E545F56414C55455F61
:10327400313A25640D0A00746578746C63642076B1
:10328400616C7565203D202564200D0A0045766536
:103294007279646179204E65772020202000466190
:1032A400636521202D434E204C6F74696F6E005965
:1032B4006F7572205065726665637420202020004B
:1032C40052756E6E696E6720506172746E657221FC
:1032D40000536F756E64206D696E642C736F756E28
:1032E4006400626F647921202D434E2053706F7205
:1032F400747300436F6E74726F6C20546578744CF1
:1033040043442031004F6E003A002563000D0A0D3E
:103314000A005B253032585D004F4B0053454E4444
:10332400204F4B002B4950442C004552524F520021
:103334004641494C00414C52454144590062757321
:10334400792E2E2E00414C52454159005761697423
:1033540053656E645265616479576974686F7574F6
:103364005072696E7420636F756E74657220657235
:10337400720D0A00576169744F4B576974686F7511
:10338400745072696E7420636F756E746572206513
:1033940072720D0A0041542B43574C41500D0A00E0
:1033A40041542B43574A41505F4445463D222573BF
:1033B400222C222573220D0A0041542B43574D4FD2
:1033C40044453D330D0A0041542B43495053544165
:1033D4005F4355523F0D0A0041542B435744484321
:1033E400505F4355523D312C310D0A0041542B435B
:1033F400495053544152543D22544350222C2225C7
:1034040073222C25750D0A0041542B434950534512
:103414004E443D25640D0A007769666953656E6400
:1034240044617461207761697420657272202D3063
:1034340000263A005B253032585D0041542B435737
:103444004155544F434F4E4E3D300D0A00415445B3
:0C345400300D0A00726567313131310023
:00000001FF
